:020000040800F2
:10000000506200204501000899690008451D00085C
:1000100095690008AF020008B37F000800000000E7
:10002000000000000000000000000000A17C0008AB
:10003000B302000800000000D70100088D7D000811
:100040005F0100085F0100085F0100085F01000810
:100050005F0100085F0100085F0100085F01000800
:100060005F0100085F0100085F0100085F010008F0
:100070005F0100085F0100085F0100085F010008E0
:100080005F0100085F0100085F0100085F010008D0
:100090005F0100085F0100085F0100085F010008C0
:1000A0005F0100085F0100085F0100085F010008B0
:1000B0005F0100085F0100085F0100085F010008A0
:1000C0005F0100085F0100085F0100085F01000890
:1000D0005F010008B17F00085F0100085F010008B0
:1000E0005F0100085F0100085F0100085F01000870
:1000F0005F0100085F0100085F0100085F01000860
:100100005F0100085F0100085F0100085F0100084F
:100110005F0100085F0100085F0100085F0100083F
:100120005F0100085F0100085F0100085F0100082F
:10013000DFF80CD000F0A0F800480047699B0008E9
:10014000506200200648804706480047FEE7FEE769
:10015000FEE7FEE7FEE7FEE7FEE7FEE7FEE7FEE777
:10016000B57D00083101000872B6704762B670476D
:10017000EFF3108072B6704780F310887047B0FAC2
:1001800080F0704790FAA0F0704730BF704720BFF2
:1001900070470000EFF3108072B6704780F310884C
:1001A00070471D484FF0FF010170002080F309885F
:1001B0001A48012101701A484FF08051016062B65F
:1001C000FEE717484FF080510160704714484FF028
:1001D00080510160704772B6EFF3098028B1203872
:1001E00080E8F00F0F490968086000B50E488047A5
:1001F0005DF804EB0D480E490A78027009480D4974
:100200000A680260106890E8F00F203080F30988D7
:100210004EF0040E62B6704722ED00E0450000206B
:1002200004ED00E04C0000203F7100083A0000207F
:100230003B0000205400002010B5431A934209D21D
:100240008318881803E010F8011D03F8011D521EE1
:10025000F9D210BD40EA01039B0703D009E008C9A9
:10026000121F08C0042AFAD203E011F8013B00F87B
:10027000013B521EF9D210BD064C074D06E0E06866
:1002800040F0010394E8070098471034AC42F6D3DD
:10029000FFF752FF147601083476010810B507F015
:1002A0006DFE10BD7047704770477047704700BFC4
:1002B000FEE770472DE9F04104460F4615461E46FD
:1002C0001148007B00F0020058B907E02A88B9B253
:1002D000A0B206F0E9FA761E641CAD1C002EF5DC17
:1002E0000FE00CE0B5F80080B8F1000F04D0B9B20F
:1002F000A0B2424606F0D8FA761E641CAD1C002E51
:10030000F0DCBDE8F08100002C5A00202DE9F84F08
:1003100004460F4690469946DDE90A5ABAF80000AD
:100320000090BAF802B098F80060D548007B00F061
:10033000030020B1012828D0022839D112E009F0A9
:10034000070008280DD2DFE800F0040506070809B9
:100350000A0BA4E0B3E0C3E0D3E0E3E0F3E003E1A1
:1003600013E125E009F0070008280DD2DFE800F0CE
:100370000405060708090A0B1CE029E036E043E003
:1003800050E05DE06AE077E012E009F0070008283D
:100390000DD2DFE800F00405060708090A0B0AE1A0
:1003A00015E120E12BE136E141E14CE157E100BFED
:1003B00000BF00BF06F0800020B1B9B2A0B25A461B
:1003C00006F072FA681E050001D1BDE8F88F00BF83
:1003D00006F0400028B1B9B2621C90B25A4606F04D
:1003E00063FA681E050000D1EFE700BF06F02000A9
:1003F00028B1B9B2A21C90B25A4606F055FA681E4E
:10040000050000D1E1E700BF06F0100028B1B9B245
:10041000E21C90B25A4606F047FA681E050000D169
:10042000D3E700BF06F0080028B1B9B2221D90B290
:100430005A4606F039FA681E050000D1C5E700BF2C
:1004400006F0040028B1B9B2621D90B25A4606F017
:100450002BFA681E050000D1B7E700BF06F00200C6
:1004600028B1B9B2A21D90B25A4606F01DFA681E14
:10047000050000D1A9E700BF06F0010028B1B9B21C
:10048000E21D90B25A4606F00FFA681E050000D130
:100490009BE7083408F10100804606788AE706F0F9
:1004A00080030BB15B4600E0009B1A46B9B2A0B2D4
:1004B00006F0FAF9681E050000D186E700BF06F0D5
:1004C00040030BB15B4600E0009B1A46B9B2631CC7
:1004D00098B206F0E9F9681E050000D175E700BF83
:1004E00006F020030BB15B4600E0009B1A46B9B250
:1004F000A31C98B206F0D8F9681E050000D164E785
:1005000000BF06F010030BB15B4600E0009B1A46EB
:10051000B9B2E31C98B206F0C7F9681E050000D115
:1005200053E700BF06F008030BB15B4600E0009BF9
:100530001A46B9B2231D98B206F0B6F9681E050036
:1005400000D142E700BF06F004030BB15B4600E0B8
:10055000009B1A46B9B2631D98B206F0A5F9681E51
:10056000050000D131E700BF06F002030BB15B4686
:1005700000E0009B1A46B9B2A31D98B206F094F9A8
:10058000681E050000D120E700BF06F001030BB193
:100590005B4600E0009B1A46B9B2E31D98B206F034
:1005A00083F9681E050000D10FE7083408F1010047
:1005B0008046067873E706F0800018B13946204679
:1005C00006F0F5F8681E050000D1FEE600BF06F053
:1005D000400018B13946601C06F0E9F8681E0500B5
:1005E00000D1F2E600BF06F0200018B13946A01C89
:1005F00006F0DDF8681E050000D1E6E600BF06F053
:10060000100018B13946E01C06F0D1F8681E05004C
:1006100000D1DAE600BF06F0080018B13946201D07
:1006200006F0C5F8681E050000D1CEE600BF06F052
:10063000040018B13946601D06F0B9F8681E0500BF
:1006400000D1C2E600BF06F0020018B13946A01D75
:1006500006F0ADF8681E050000D1B6E600BF06F052
:10066000010018B13946E01D06F0A1F8681E05002A
:1006700000D1AAE6083408F10100804606789AE71E
:100680002C5A00202DE9F04704460E4691469A4622
:10069000DDE9087899F80050B8F1000F7AD09C484D
:1006A000007B00F0020058B10AF0030020B10128DD
:1006B00003D0022803D101E04CE05AE06CE07DE079
:1006C0000AF0030020B1012803D0022803D101E081
:1006D00002E00EE01CE02AE0AB1138F81320B1B2C2
:1006E000A0B206F0E1F8781E070001D1BDE8F0875E
:1006F00000BF032303EA251338F81320B1B2631CAB
:1007000098B206F0D1F8781E070000D1EEE700BFDE
:10071000032303EAA50338F81320B1B2A31C98B24F
:1007200006F0C2F8781E070000D1DFE700BF05F031
:10073000030338F81320B1B2E31C98B206F0B4F802
:10074000781E070000D1D1E709F101008146057844
:10075000241DC1E705F0C00030B1AB1138F81320FB
:10076000B1B2A0B206F0A0F8781E070000D1BDE734
:1007700000BF05F0300048B1032303EA251338F821
:100780001320B1B2631C98B206F08EF8781E0700F1
:1007900001D1ABE728E000BF05F00C0048B103230E
:1007A00003EAA50338F81320B1B2A31C98B206F0EF
:1007B0007BF8781E070000D198E700BF05F0030022
:1007C00040B105F0030338F81320B1B2E31C98B22E
:1007D00006F06AF8781E070000D187E709F10100EA
:1007E00081460578241DB5E74948007B00F00200EA
:1007F00058B10AF0030020B1012803D0022803D128
:1008000001E043E04FE05EE06DE00AF0030020B15C
:10081000012803D0022803D101E002E00BE017E039
:1008200023E0AA11B1B2A0B206F03EF8781E07008C
:1008300000D15BE700BF032303EA2512B1B2631CBA
:1008400098B206F031F8781E070000D14EE700BFDD
:10085000032303EAA502B1B2A31C98B206F024F860
:10086000781E070000D141E700BF05F00302B1B2D6
:10087000E31C98B206F018F8781E070000D135E79F
:1008800009F1010081460578241DCAE705F0C00082
:1008900020B1AA11B1B2A0B206F006F8781E070086
:1008A00000D123E700BF05F0300038B1032303EA8D
:1008B0002512B1B2631C98B205F0F6FF781E07004E
:1008C00000D113E700BF05F00C0038B1032303EAA1
:1008D000A502B1B2A31C98B205F0E6FF781E07008E
:1008E00000D103E700BF05F0030030B105F00302BB
:1008F000B1B2E31C98B205F0D7FF781E070000D113
:10090000F4E609F1010081460578241DBEE70000E8
:100910002C5A00202DE9F04704460E469046994691
:10092000DDE9087A98F80050BAF1000F52D04E482D
:10093000007B00F0020020B109F0010000B925E0C1
:1009400032E009F0010000B900E00CE02B113AF8A8
:100950001320B1B2A0B205F0A7FF781E070001D1A5
:10096000BDE8F08700BF05F00F033AF81320B1B2DD
:10097000631C98B205F098FF781E070000D1EFE7DE
:10098000A41C08F1010080460578DFE7281130B18A
:100990002B113AF81320B1B2A0B205F085FF781EF2
:1009A000070000D1DCE700BF05F00F0040B105F003
:1009B0000F033AF81320B1B2631C98B205F074FF2C
:1009C000781E070000D1CBE7A41C08F10100804687
:1009D0000578DBE72448007B00F0020020B109F035
:1009E000010000B920E02BE009F0010000B900E0AF
:1009F00009E02A11B1B2A0B205F056FF781E070037
:100A000000D1ADE700BF05F00F02B1B2631C98B290
:100A100005F04AFF781E070000D1A1E7A41C08F1E9
:100A2000010080460578E4E7281120B12A11B1B20F
:100A3000A0B205F039FF781E070000D190E700BF93
:100A400005F00F0030B105F00F02B1B2631C98B28F
:100A500005F02AFF781E070000D181E7A41C08F1E9
:100A6000010080460578DFE72C5A00202DE9F04789
:100A70000446884615461E46DDF820902348007B34
:100A800000F00200F0B9B9F1000F0ED00AE02F78A3
:100A900039F817201FFA88F1A0B205F005FF761E7D
:100AA000641C6D1C002EF2DC2DE008E02A781FFA91
:100AB00088F1A0B205F0F8FE761E641C6D1C002EB5
:100AC000F4DC20E0B9F1000F0FD00BE02F7837B144
:100AD00039F817201FFA88F1A0B205F0E5FE761E5E
:100AE000641C6D1C002EF1DC0DE00AE02F782FB1A4
:100AF0001FFA88F1A0B23A4605F0D6FE761E641CB5
:100B00006D1C002EF2DCBDE8F08700002C5A00209E
:100B100051B18200A2F1C042126842F0010382008A
:100B2000A2F1C042136009E08200A2F1C042126843
:100B3000034B1A408300A3F1C0431A6070470000C2
:100B4000FEFF0F00D0E901121143C2681143026990
:100B500011434269114382691143C2691143026A18
:100B60001143426A1143826A1143C26A1143026B04
:100B7000114302689200A2F1C04211608168082905
:100B80000BD101688900A1F1C041096841F0400220
:100B900001688900A1F1C0410A60416B0968426B9C
:100BA000526841EA0211426B926841EA0221426BAB
:100BB000928941EA0241426B128A41EA0251426B38
:100BC000127D41EA0261426B926911430268521C34
:100BD0009200A2F1C0421160C16AB1F5804F1BD1F1
:100BE000816B0968826B526841EA0211826B9268DC
:100BF00041EA0221826B128A41EA0251826B127D24
:100C000041EA0261826B9269114302689200A2F18B
:100C1000C042C2F8041107E06FF070420168890019
:100C2000A1F1C041C1F80421704700002DE9F04353
:100C300087B004460E461746D4F80C80002000F01A
:100C400065FE0546B8F1000F05D098F8041011B103
:100C500045F0020101E025F00201084600F056FED1
:100C6000206970B10123D4E902018DE80B000393E0
:100C70006388228820693946D0F800C03046E047B2
:100C80001EE0E06801F0DEFB8146B9F1000F06D1FD
:100C9000E088012801D0002000E00C488146A188AE
:100CA000E088A26801230093CDE90429CDE9013051
:100CB0000391638822883946304601F08DF800BFE1
:100CC000284600F023FE07B0BDE8F0832C5A002030
:100CD00070B504460D461646032332462946204683
:100CE00000F001F870BDF8B507460C4615461E46E3
:100CF000ADF800408DF803508DF802606946384623
:100D000000F016F8F8BD000010B50121182006F01B
:100D1000B7FF0422D1020448FFF7DAFF042211468C
:100D20000248FFF7D5FF10BD00100140000C014044
:100D30002DE9F04102460025002600200023002472
:100D4000002791F803C00CF00F0591F803C00CF0D8
:100D5000100CBCF1000F03D091F802C04CEA05055D
:100D600091F800C0BCF1000F31D0146800202BE0D6
:100D70004FF0010C0CFA00F3B1F800C00CEA0306C6
:100D80009E4220D183004FF00F0C0CFA03F7BC43B6
:100D900005FA03FC4CEA040491F803C0BCF1280FE7
:100DA00006D14FF0010C0CFA00FCC2F814C00AE0A6
:100DB00091F803C0BCF1480F05D14FF0010C0CFABB
:100DC00000FCC2F810C0401C0828D1D31460B1F850
:100DD00000C0BCF1FF0F34DD546800202EE000F1AC
:100DE000080C4FF0010808FA0CF3B1F800C00CEA47
:100DF00003069E4221D183004FF00F0C0CFA03F73B
:100E0000BC4305FA03FC4CEA040491F803C0BCF1AE
:100E1000280F05D100F1080C08FA0CF8C2F814806C
:100E200091F803C0BCF1480F07D100F1080C4FF056
:100E3000010808FA0CF8C2F81080401C0828CED32C
:100E40005460BDE8F0810246002093680B400BB16E
:100E5000012000E0002070472DE9F04F8BB00546DF
:100E60005C48B0F922000A905A48B0F924A0806981
:100E70008469B4F80C80454509DBE089A84206DBAB
:100E8000D4F80090A5EB08064FF0FF371DE0A068EE
:100E9000D4F80490A8B1B0F8008045450DDB418836
:100EA000A9420ADB0288AA1A95B2416801EB8501C2
:100EB000B1F90060B1F9027006E04FF0FF36374635
:100EC00002E04FF0FF36374600BF701C77D0414834
:100ED0008069007DA17C48430990207C08903D48B2
:100EE0008069007D07903B48B0F92AB0584605F06C
:100EF000C5FCC0B20690374B099806FB0092A17C56
:100F00000120CDE90423CDE9020118468069C37DA3
:100F100030488069827DCDE900235146DDE9073202
:100F20000A9800F059FF781C1BD04BF0020005F026
:100F3000A5FC284B099807FB0092A17C0120CDE974
:100F40000423CDE9020118468069C37D21488069E8
:100F5000827DCDE900235146DDE907320A9800F091
:100F60003BFF1C488069407D1A498969097D884298
:100F700021DDBBF1020F1ED08BF0040005F07EFCDA
:100F800014488069007DDFF84CC0DCF818C09CF87C
:100F900015C000FB0CA10F488069407D00EB0A03DF
:100FA0000C48806990F816E0DDF820C00A980CFB28
:100FB0000E0201F049F9069805F060FC00BF0548F3
:100FC000408C617C084400B2024948840BB0BDE803
:100FD000F08F00002C5A0020014603488069826986
:100FE00000BF507C704700002C5A002000BF022236
:100FF0000A80704730B50446A2699589A94204DB8E
:10100000D089884201DB012030BD93683BB118884C
:10101000884204DC5888884201DB0120F4E700BFE5
:101020000020F1E72DE9F04F87B005464348B0F9BD
:101030002A80014689698869294600F081F80646B8
:10104000002E77D03188691A706800EBC104A77848
:10105000404605F013FC0690384B01206268CDE94C
:1010600003720593029018468069C37D33488069F6
:10107000827DDFF8C8C0CDE90023DCF818C09CF8F9
:1010800014302278DFF8B4C0BCF92410BCF9220077
:1010900000F0A2FE29488069407D28498969097DC0
:1010A000884237DD2548806990F817902348806989
:1010B000407D00FB09FA21488069007D00FB09FBA7
:1010C000B8F1020F25D000F095FA059000F074FAFF
:1010D000049000F011FCDFF864C0BCF922C094F861
:1010E00000E00CEB0E02DFF854C0BCF924C00CEB9E
:1010F0000A03DFF848C0BCF924C00CEB0B01DFF891
:101100003CC0BCF9220001F09FF8059800F0F4FB08
:1011100000BF00BF069805F0B1FB0848B0F92200F7
:101120006178064A9269927D01FB020000B2034990
:10113000488400BF07B0BDE8F08F00002C5A0020A3
:1011400007E002888A4203DC42888A4200DB02E030
:1011500080680028F5D100BF7047000070B50446D4
:101160000949896988692146FFF7EAFF05464DB1BB
:101170002988611A686810F8310003498969897DF6
:10118000484370BD0020FCE72C5A002000BF01221C
:101190000A80704770B504460D462946A069FFF7DE
:1011A000CFFF06460EB1012000E00020C0B270BDA6
:1011B00010B5002414E004EBC40101EB04110A4A49
:1011C00002EB8101081D60220849FFF735F8002075
:1011D00004EBC40101EB0411034A42F82100641C32
:1011E000042CE8DB10BD0000C05A00202C5A00205F
:1011F00010B54FF0FF300249086000F01FFC10BD31
:10120000EC00002070B504460CB9002070BD00F061
:101210005FFA204607F0CEFA054600F0F1FB2846BB
:10122000F4E770B5044600F053FA2046FFF7EAFFF2
:1012300005463DB1284600F025F806462246002125
:1012400000F02FFD00F0DCFB284670BD40F23910A5
:1012500009494860886042F21070C8810882002005
:101260000860888104200549488000200880888023
:101270000120034908707047185A00204850002088
:1012800098000020014609B900207047024830F953
:101290003100024A1044F8E7485000203829002065
:1012A0002DE9FF410D4616461C462146684607F0CB
:1012B00003FB281AC5B20EB1681EC5B2174850F814
:1012C00025000099884204D8144850F82500401E93
:1012D00000901CE02846691ECDB2B04205D11048EE
:1012E00001782268501C206011700C4850F825804D
:1012F000009890FBF8F0C7B2009807FB1800009028
:1013000007F13000C1B22268501C20601170002D1E
:10131000E0D1002021680870BDE8FF813C7401081D
:101320009C00002010B50021084600F0A7F940F607
:10133000FF731A465942084600F002F810BD00003B
:101340002DE9FC4104460D4616461F4600F0C0F943
:10135000042005F093FA80461648006C04441548B2
:10136000406C05441348006C06441248406C074426
:1013700020B2ADF8000030B2ADF8040028B2ADF8EC
:10138000020038B2ADF80600684607F005F950B122
:1013900000BF3B4632462946204600F055FF07F085
:1013A0009DF80028F5D1404605F068FA00F028FBCA
:1013B000BDE8FC812C5A00202DE9FF4105460E4670
:1013C00017461C4601A800906B460022214628467D
:1013D000FFF766FF3A46314601A800F0A7F8BDE8DE
:1013E000FF8100002DE9FC4704460CB9BDE8FC87ED
:1013F00000F06EF900F00CF907464B48B0F9228076
:1014000000F012F906464848808C801B00B246491D
:10141000888475E047F6FF71204600F0B7FB8246EE
:101420005146204600F090FB05463F48808D00F075
:101430000300012807D0022807D1284605EBD57103
:101440004FEA610904E0A94602E04FF0000900BF3D
:1014500000BF3548408CA0EB090000B232494884F7
:10146000ADF80000BDF800002844401E00B2ADF801
:1014700004000846808CADF80200BDF80200384434
:10148000401E00B2ADF806006A465146204600F004
:10149000F7FABDF80200244988845146204600F03E
:1014A0007DFA044420780A2802D020780D281DD126
:1014B0001D48808D00F00300012802D0022805D1CC
:1014C00000BF0FFA88F01849488404E01648008CE1
:1014D0001549488400BF00BF20780A280CD1124863
:1014E000808C384400B21049888405E0BDF80000C3
:1014F000284400B20C494884207800B903E0641CF9
:101500002078002886D100BF0748808C304400B284
:10151000054988840846B0F92C0020F0030088852E
:1015200000F06EFA00BF61E72C5A002070B5064645
:101530000C46154600F0CCF820B20549488428B284
:1015400088843046FFF74EFF00F05AFA70BD000065
:101550002C5A00207CB504460D46164600F0B8F81B
:101560001448006C05441348406C064428B2ADF89A
:10157000000021880844401E00B2ADF8040030B2DB
:10158000ADF8020061880844401E00B2ADF80600C4
:10159000684607F001F848B100BF324629462046A8
:1015A000FFF744FB06F09AFF0028F6D100F028FA76
:1015B0007CBD00002C5A002070B500F089F800F0C6
:1015C0007DFE054600F068FF044600F019FA20464B
:1015D00070BD000070B5044600F07AF804488069D8
:1015E000416820468847054600F00AFA284670BD43
:1015F0002C5A002070B500F06BF800F065FE05462F
:1016000000F04AFF044600F0FBF9204670BD0000E0
:1016100010B500F05DF803488069447D00F0F0F9F2
:10162000204610BD2C5A002010B5002400F050F8C0
:101630001148808D00F00C00042804D008280ED03A
:101640000C2813D104E00C488069007D441E0DE095
:1016500009498969087D00EBD0714C1006E0064904
:101660008969087D00EBD0714C1000BF00BF00F00D
:10167000C7F9204610BD00002C5A002070B5064660
:101680000C4600F025F8304608F00AF905462046D9
:1016900008F00EF9054300F0B3F9284670BD0000CC
:1016A00010B52E200849087000F0BEF9074808F070
:1016B00007F9FFF79DFD00F015FF044606F09EFDBB
:1016C000FFF776FD204610BD9C0000202C5A00201C
:1016D00010B52348006830B900F0C0F900F09CF95B
:1016E000204908600BE000F097F91E49096888421C
:1016F00005D000F0B3F900F08FF91A4908601848D6
:101700000068401C16490860012827D108F090F8AD
:1017100004461548006884421FD01348006800281A
:1017200019DB1149096801EBC10202EB01110F4AF3
:1017300002EB8101081D60220D49FEF77DFD04EBDF
:10174000C40000EB0410094A02EB8000011D602276
:101750000748FEF771FD0448046000BF10BD00009B
:10176000F0000020F4000020EC000020C05A00200F
:101770002C5A002070B504460449B1F94C00FFF71B
:1017800081FD05462046E969884770BD2C5A002036
:1017900010B50449B1F94C00FFF774FD0446606AC6
:1017A000804710BD2C5A002070B505460B49B1F991
:1017B0004C00FFF767FD0446208828806088688019
:1017C0002088A1880844401E00B2A8806088E18873
:1017D0000844401E00B2E88070BD00002C5A002072
:1017E00070B504460449B1F94C00FFF74BFD0546BE
:1017F0002046296A884770BD2C5A002010B5002861
:101800003FD081B37AB3B1F90030B2F90040A342BE
:1018100002DDB2F9003001E0B1F900301BB2038003
:10182000B1F90230B2F90240A34202DDB2F902304E
:1018300001E0B1F902301BB24380B1F90430B2F9D2
:101840000440A34202DDB1F9043001E0B2F90430F2
:101850001BB28380B1F90630B2F90640A34203DD22
:10186000B1F9063002E004E0B2F906301BB2C380E1
:1018700010BD09B10B4600E013461C6804605B68AC
:10188000436000BFF4E778B103880B441BB20380C8
:1018900083880B441BB28380438813441BB243806C
:1018A000C38813441BB2C38070470246B2F90200DA
:1018B000B1F90630984213DCB1F90200B2F90630F2
:1018C00098420DDCB2F90000B1F90430984207DC0F
:1018D000B1F90000B2F90430984201DC01207047F0
:1018E0000020FCE710B50446FFF7F2FE204604F0A6
:1018F0006FFF00F085F810BD10B50446FFF7E8FE55
:10190000204604F09DFF00F07BF810BD70B5044642
:10191000FFF7DEFE204604F0B1FF054600F070F848
:10192000284670BD70B5044605488569FFF7D0FEAE
:101930000CB10348846100F063F8284670BD0000D4
:101940002C5A002070B50446FFF7C2FE0448B0F9D7
:101950002A5020B20249488500F052F8284670BD4E
:101960002C5A00200249096809B9014908607047EA
:101970009000002070B5044625680748C0690168DA
:101980002846884706460448C06941682846884773
:1019900005442560304670BD2C5A00202DE9F041E9
:1019A00005460E46002707E00748C06941682846FB
:1019B00088470446254427443000A6F10106F3D1A8
:1019C0003846BDE8F08100002C5A00202DE9F04196
:1019D00004460E4615461F46DDF8188000BF2A460D
:1019E0006D1CA0683B463146D0F804C02046E04755
:1019F000A8F101005FEA0008F1D1BDE8F081000024
:101A000010B504480068401E0249086001D100F08A
:101A10002FF810BDF00000200248006890F8360052
:101A2000704700004C00002010B5002005F07CF944
:101A30000149086010BD00002000002010B5012001
:101A400005F072F903490860002005F0F3F8024937
:101A5000086010BD180000201C00002008B56A4670
:101A600000210248006805F089F908BD180000202F
:101A700010B50248006805F0FDF910BD18000020FF
:101A80007CB505460E4614462D48006878B1002006
:101A900006F082FD002852D000BF6A463146284633
:101AA00006F088FF06F01AFD0028F6D147E020680E
:101AB000009060680190BDF800002249096C08445C
:101AC00000B2ADF80000BDF802001E49496C0844A0
:101AD00000B2ADF80200BDF804001A49096C0844D0
:101AE00000B2ADF80400BDF806001649496C084480
:101AF00000B2ADF80600684606F04EFD80B100BFAA
:101B0000BDF800000F494884BDF8020088846A4689
:101B10003146284606F04EFF06F0E0FC0028EFD1E3
:101B20000848408C0749096C401A00B205494884AE
:101B30000846808C496C401A00B2024988847CBDFA
:101B4000AC0000202C5A002073B50C4600250098EC
:101B5000C0B10D488069006938B10B4880690069DF
:101B600021460268009890477CBD07E06846FFF771
:101B700001FF06463046FFF72DFD0544601E041E9A
:101B8000F4DA00BF2846EFE72C5A002073B50D4663
:101B900000240098C0B10D488069006938B10B4835
:101BA0008069006929464268009890477CBD08E03A
:101BB0006846FFF7DFFE06460EB10A2E00D102E0AE
:101BC000641CAC42F4DB00BF2046EFE72C5A002037
:101BD000B0F90020B1F900309A4201DA0A88028097
:101BE000B0F90220B1F902309A4201DA4A88428003
:101BF000B0F90420B1F904309A4201DD8A8882806C
:101C0000B0F90620B1F906309A4201DDCA88C280D7
:101C1000704710B50346B1F90000B2F90040A04288
:101C200002DDB1F9000001E0B2F9000000B2188055
:101C3000B1F90200B2F90240A04202DDB1F902009E
:101C400001E0B2F9020000B25880B1F90400B2F923
:101C50000440A04202DDB2F9040001E0B1F9040041
:101C600000B29880B1F90600B2F90640A04202DD48
:101C7000B2F9060001E0B1F9060000B2D880B3F96C
:101C80000400B3F90040A04201DA002010BDB3F90E
:101C90000600B3F90240A04201DA0020F6E7012075
:101CA000F4E770B503460D4602E003F8015B521EEF
:101CB00012B113F0030FF8D19108A9B102F0030299
:101CC00005EB054606EB0624184604E010C010C0DC
:101CD00010C010C0091F0429F8DA01E010C0491E25
:101CE0000029FBD1034600BF02E003F8015B521E4E
:101CF000002AFAD170BD70B503460C46154613F0A4
:101D0000020F02D023F8024B6D1E6908A9B104EB43
:101D100004421846042909DB00BF02604260826069
:101D2000C26010300E1F3146042EF6DA01E004C006
:101D3000491E0029FBD1034600BF15F0010F00D05A
:101D40001C8070BD00BFFEE710B504460248806CE1
:101D500001682046884710BD2C5A002010B5014666
:101D6000C1F3C402C1F38523C1F3C44404EB43109F
:101D700000EBC22010BD10B500F004F800F02AFA04
:101D800010BD000008B50121080205F069FF01211E
:101D9000612005F075FF4FF68070ADF8000003205C
:101DA0008DF8020018208DF8030069460848FEF7F8
:101DB000BFFF4CF6B370ADF8000003208DF80200B1
:101DC00018208DF8030069460248FEF7B1FF08BDF0
:101DD00000180140001401402DE9F04F8BB005467A
:101DE0008A4690461F46DDF85890189E00200A90BB
:101DF00087480068A0B1199B1799CDE90291CDE9F8
:101E00000463DDE914238248CDE9002300683B46E2
:101E10004246514604682846A0470BB0BDE8F08F03
:101E20000AEB0700401E089005EB0800401E0990D1
:101E3000DDE91401084301287AD17648B0F906009B
:101E4000A0EB0A04002C09DD3F1B002F00DCE4E7B7
:101E50007048B0F906A0179804FB00666D48B0F909
:101E60000A100898441A002C03DD3F1B002F00DCE9
:101E7000D3E76848B0F908100998441A002C01DD2E
:101E8000A8EB040800246348B0F90400A84239DD37
:101E90006048B0F90400441BA8EB0408B9F1040F32
:101EA0001ED006DCB9F1010F0AD0B9F1020F28D11A
:101EB0000EE0B9F1080F1BD0B9F1100F21D11BE0D2
:101EC00006EBE406E01005EBC00504F0070418E09B
:101ED00006EBA406A01005EB800504F0030410E057
:101EE00006EB6406601005EB400504F0010408E011
:101EF00026442544002404E006EB4406254400243F
:101F000000BF00BFB8F1000F00DC86E7199B1798EF
:101F1000CDE90090CDE9026404933E48806C3B46D5
:101F200042465146D0F80CC02846E0476DE0FFE736
:101F3000C9F10800059054460020069061E015980C
:101F40002044401E04903348B0F9061004988142A2
:101F500050DC3048B0F90A00A0424BDB002003906F
:101F600001960795029041E0039838B901980078EE
:101F70000A900198401C01900820039005990A9846
:101F8000084100F0FF0B0A9800FA09F0C0B20A906D
:101F90000398A0EB09000390BBF1000F04D11D488A
:101FA000007B10F0020F1AD11A484088009019984F
:101FB00028B1199830F81B001649488002E01548EE
:101FC000A0F802B0149907980844421E2146049BC9
:101FD000079800F039F90F490098488000BF02982F
:101FE000401C0290149907980844079002984045B5
:101FF000BADB00BF0698401C069015980444179859
:1020000006440698B8429ADB00BF00BF05E700000F
:10201000AC0000202C5A002070B504460D46164630
:102020001348B0F90600A84200DD70BD1048B0F9B1
:102030000A00A84200DAF8E70D48B0F90400A0420F
:1020400002DD0B48B0F904400948B0F90800B0427D
:1020500002DA0748B0F90860A64200DAE5E704486A
:10206000806C3246294603692046984700BFDCE76A
:102070002C5A00202DE9F04F04460D4691469A4611
:10208000DDF824B04C4503DD0FFA89F7A146BCB258
:10209000554503DD0FFA8AF7AA46BDB2A9EB040045
:1020A0000FFA80F8AAEB050006B2B8F1000F0BD1C9
:1020B00000BF5A462946204604F0F6FB681C85B24C
:1020C000AA45F6DABDE8F08F56B900BF5A46294650
:1020D000204604F0E9FB601C84B2A145F6DAF1E782
:1020E000B04521DDC8EB460007B215E05A46294647
:1020F000204604F0D9FB601C84B2002F08DD681C68
:1021000085B27000022101FB1800384407B203E0D9
:10211000022000FB067007B24C45E7D15A4629461B
:10212000204604F0C1FB20E0C6EB480007B215E0F2
:102130005A462946204604F0B7FB681C85B2002F9A
:1021400008DD601C84B27000022101FB18003844D5
:1021500007B203E0022000FB067007B25545E7D145
:102160005A462946204604F09FFB00BFAAE700001C
:1021700070B504460D461648B0F90600A84200DDC9
:1021800070BD1348B0F90A00A84200DAF8E7104819
:10219000B0F90400A04200DDF2E70D48B0F90800F4
:1021A000A04200DAECE70A48007B10F0010F06D0ED
:1021B0000748806C2946826A2046904706E004481A
:1021C0004288806C2946436A2046984700BFD7E77B
:1021D0002C5A002000B597B00A20019000200290F0
:1021E0000A20039000200490059006900790089024
:1021F00009900A9010200B9000200C900E900F90E8
:1022000010904FF480501190002012900D90139078
:10221000149001A8159008A8FEF794FC03200190E3
:102220000020029003200390002004900590069067
:10223000079001A8169008A8FEF784FC0121002051
:10224000FEF766FC17B000BD2DE9F04104460D46CF
:1022500016461F461848B0F90400A04202DD164891
:10226000B0F904401448B0F90800B04202DA12484C
:10227000B0F90860A64201DABDE8F0810E48B0F975
:102280000600A84202DD0C48B0F906500A48B0F931
:102290000A00B84202DA0848B0F90A70AF4200DA20
:1022A000EAE70548806C3B4632462946D0F818C01C
:1022B0002046E04700BFDFE72C5A00200148008895
:1022C000704700002C5A00200148408870470000E9
:1022D0002C5A00204FF6FF7070470000F8B50246F8
:1022E0000B46104619460646084640F23F14A41B0A
:1022F000A1B2524C2478241F0B2C07D2DFE804F043
:10230000151606060606252726064B0020244FF044
:10231000C0473C804A4F388000BF21244FF0C0475F
:102320003C80474F398000BF36E000BF4E244FF05D
:10233000C0473C80424F388000BF4F244FF0C04719
:102340003C803F4F398000BF26E000BF00BF022421
:1023500007124FF0C04CACF80040DFF8E4C0ACF816
:10236000007000BF032467073C806746388000BFC9
:1023700006240F124FF0C04CACF80040DFF8C0C08C
:10238000ACF8007000BF07244FF0C0473C806746A0
:10239000398000BF00E000BF00BF00BF27480078C1
:1023A000001F0A282FD2DFE800F0090805062E2EAC
:1023B0001416150700BF00BF00BF00BF00BF2220DA
:1023C0004FF0C04108801E48008800901C480088DB
:1023D000F8BD00BF00BF22264FF0C0473E80184E18
:1023E00035883688C6F3C700154E3688C6F3870190
:1023F000134E3688C6F3C704C60246EA4116264382
:10240000B5B22846E4E700BF22214FF0C044218046
:102410000B49098800910A49088800BF00F01F078E
:10242000C0F34516C40A4FEAC72C0CEB461CA44463
:102430001FFA8CF100BF0846CAE7000029000020FF
:102440000000026010B50446204600F001F810BDFF
:102450002DE9F041044614B90020BDE8F081A068E0
:1024600008B90020F9E72068B0F5807F01DD002081
:10247000F3E72668A768002507E057F82500FFF76F
:1024800063FC044921F815006D1CB542F5DB0148D9
:10249000E3E70000505C002010B504460248806C61
:1024A00041682046884710BD2C5A002030B50146AF
:1024B00001F01F03C1F34512C1F3C424C4EB04208F
:1024C0001F25B0FBF5F4C2EB02203F25B0FBF5F26F
:1024D000C3EB03201F25B0FBF5F304EB022000EB58
:1024E000034030BD10B5002404F0A0F904F04EF90B
:1024F000044300F011F8042004F0C0F940F6FF7323
:102500001A4600210846FFF79FFE002004F0B6F9A6
:1025100004F041F9204610BD704700000EB5FFF7EA
:102520002AFC642007F010FB002001904FF0C0410E
:1025300001980880FE480088029049F225310298EF
:10254000884203D0C91C029888427DD10120F949F4
:102550000870E7200090102001904FF0C0410098D3
:102560000880F3490198088000BF002000900120F6
:1025700001904FF0C04100980880ED490198088013
:1025800000BF01200090000201904FF0C041009870
:102590000880E7490198088000BF022000904FF4AE
:1025A000E06001904FF0C04100980880E049019838
:1025B000088000BF0320009041F2300001904FF0EE
:1025C000C04100980880DA490198088000BF0420C3
:1025D0000090002001904FF0C04100980880D4493D
:1025E0000198088000BF0820009040F20720019069
:1025F0004FF0C04100980880CD490198088000BF85
:1026000009200090002001904FF0C0410098088000
:10261000C7490198088000BF0A200090002001905F
:102620004FF0C04100980880C1490198088000BF60
:102630000C200090012001904FF0C04100980880CC
:10264000BB490198088000E04EE200BF0D200090D9
:10265000002001904FF0C04100980880B4490198D3
:10266000088000BF0F200090002001904FF0C04173
:1026700000980880AE490198088000BF10200090A3
:10268000002001904FF0C04100980880A8490198AF
:10269000088000BF11200090072001904FF0C0413A
:1026A00000980880A2490198088000BF122000907D
:1026B000002001904FF0C041009808809C4901988B
:1026C000088000BF13200090002001904FF0C0410F
:1026D0000098088096490198088000BF322007F0D2
:1026E00033FA1020009041F2905001904FF0C04119
:1026F000009808808E490198088000BF1120009042
:1027000040F2272001904FF0C0410098088088498E
:102710000198088000BF322007F016FA12200090BE
:102720009C2001904FF0C04100980880804901989A
:10273000088000BF322007F007FA132000904FF402
:10274000C85001904FF0C041009808807849019826
:10275000088000BF29200090232001904FF0C04145
:102760000098088072490198088000BF2B200090D3
:102770000E2001904FF0C041009808806C490198EC
:10278000088000BF322007F0DFF9202000900020F1
:1027900001904FF0C0410098088065490198088079
:1027A00000BF21200090002001904FF0C041009810
:1027B00008805F490198088000BF322007F0C4F903
:1027C00030200090072001904FF0C0410098088011
:1027D00057490198088000BF3120009040F20770EF
:1027E00001904FF0C041009808805149019808803D
:1027F00000BF32200090062001904FF0C0410098A9
:1028000008804B490198088000BF3520009040F2B5
:10281000047001904FF0C04100980880444901982D
:10282000088000BF3620009041F6047001904FF000
:10283000C041009808803E490198088000BF3720B9
:102840000090042001904FF0C04100980880384962
:102850000198088000BF38200090002001904FF0C0
:10286000C0410098088032490198088000BF392093
:10287000009040F2067001904FF0C041009808802F
:102880002B490198088000BF3C20009040F2017065
:1028900001904FF0C04100980880254901980880B8
:1028A00000BF3D2000900F2001904FF0C0410098E4
:1028B00008801F490198088000BF322007F044F9C2
:1028C00050200090002001904FF0C04100980880F7
:1028D00017490198088000BF51200090EF20019017
:1028E0004FF0C0410098088011490198088000BF4E
:1028F00052200090002001904FF0C04100980880C5
:102900000B490198088000BF5320009040F23F100F
:1029100001904FF0C0410098088005490198088057
:1029200000BF602000904FF42740019004E00000B9
:1029300000000260290000204FF0C041009808808C
:10294000FE490198088000BF61200090012001909D
:102950004FF0C04100980880F8490198088000BFF6
:102960006A200090002001904FF0C041009808803C
:10297000F2490198088000BF80200090002001905B
:102980004FF0C04100980880EC490198088000BFD2
:1029900081200090002001904FF0C04100980880F5
:1029A000E6490198088000BF822000900020019035
:1029B0004FF0C04100980880E0490198088000BFAE
:1029C00083200090002001904FF0C04100980880C3
:1029D000DA490198088000BF84200090002001900F
:1029E0004FF0C04100980880D4490198088000BF8A
:1029F00085200090002001904FF0C0410098088091
:102A0000CE490198088000BF9020009010200190CE
:102A10004FF0C04100980880C8490198088000BF65
:102A200092200090002001904FF0C0410098088053
:102A3000C2490198088000BF9320009003200190B4
:102A40004FF0C04100980880BC490198088000BF41
:102A5000952000904FF4887001904FF0C04100988D
:102A60000880B6490198088000BF97200090002098
:102A700001904FF0C04100980880B049019808804B
:102A800000BF98200090002001904FF0C0410098B6
:102A90000880AA490198088000BF0720009040F2F2
:102AA000331001904FF0C04100980880A34901986D
:102AB000088000BF20200090002001904FF0C0410E
:102AC000009808809D490198088000BF212000904F
:102AD000002001904FF0C04100980880974901986C
:102AE000088000BF03F08EBD49F220310298884271
:102AF00003D00298B0F5134F7ED1002090490870A2
:102B0000009001904FF0C041009808808B490198D7
:102B1000088000BF01200090000201904FF0C041EA
:102B20000098088085490198088000BF0220009025
:102B30004FF4E06001904FF0C041009808807F4959
:102B40000198088000BF0320009041F21800019016
:102B50004FF0C0410098088078490198088000BF74
:102B600004200090002001904FF0C04100980880A0
:102B700072490198088000BF0820009040F20220AE
:102B800001904FF0C041009808806C49019808807E
:102B900000BF09200090002001904FF0C041009834
:102BA000088066490198088000BF0A200090002034
:102BB00001904FF0C041009808806049019808805A
:102BC00000BF0C200090012001904FF0C041009800
:102BD00008805A490198088000BF0D20009000200D
:102BE00001904FF0C0410098088054490198088036
:102BF00000BF0F20009000E063E1002001904FF043
:102C0000C041009808804D490198088000BF6420A9
:102C100006F09AFF0720009040F2011001904FF05B
:102C2000C0410098088045490198088000BF642091
:102C300006F08AFF102000904FF4865001904FF06C
:102C4000C041009808803D490198088000BF1120CC
:102C50000090072001904FF0C0410098088037494C
:102C60000198088000BF122000904FF488700190F6
:102C70004FF0C0410098088030490198088000BF9B
:102C8000132000904FF4306001904FF0C041009845
:102C900008802A490198088000BF29200090002060
:102CA00001904FF0C04100980880244901980880A5
:102CB00000BF2B20009044F2100001904FF0C04163
:102CC000009808801D490198088000BF502000909E
:102CD000002001904FF0C0410098088017490198EA
:102CE000088000BF51200090EF2001904FF0C041BC
:102CF0000098088011490198088000BF5220009078
:102D0000002001904FF0C041009808800B490198C5
:102D1000088000BF5320009040F23F1001904FF018
:102D2000C0410098088005490198088000BF6020D4
:102D300000904FF41C50019004E00000000002607D
:102D4000290000204FF0C04100980880FE490198FA
:102D5000088000BF61200090012001904FF0C04129
:102D600000980880F8490198088000BF6A20009008
:102D7000002001904FF0C04100980880F24901986E
:102D8000088000BF80200090002001904FF0C041DB
:102D900000980880EC490198088000BF81200090CD
:102DA000002001904FF0C04100980880E64901984A
:102DB000088000BF82200090002001904FF0C041A9
:102DC00000980880E0490198088000BF83200090A7
:102DD000002001904FF0C04100980880DA49019826
:102DE000088000BF84200090002001904FF0C04177
:102DF00000980880D4490198088000BF8520009081
:102E0000002001904FF0C04100980880CE49019801
:102E1000088000BF90200090102001904FF0C0412A
:102E200000980880C8490198088000BF922000904F
:102E3000002001904FF0C04100980880C2490198DD
:102E4000088000BF93200090012001904FF0C04106
:102E500000980880BC490198088000BF9520009028
:102E60004FF4887001904FF0C04100980880B64937
:102E70000198088000BF97200090002001904FF03B
:102E8000C04100980880B0490198088000BF982090
:102E90000090002001904FF0C04100980880AA499E
:102EA0000198088000BF0720009040F27310019045
:102EB0004FF0C04100980880A3490198088000BFE6
:102EC00010E649F23131029888427DD103209F49B2
:102ED0000870E720009041F2140001904FF0C041CB
:102EE0000098088098490198088000BF0120009050
:102EF000000201904FF0C04100980880924901986B
:102F0000088000BF02200090000201904FF0C041F5
:102F1000009808808C490198088000BF0320009029
:102F200041F2300001904FF0C0410098088086497E
:102F30000198088000BF0820009040F20220019014
:102F40004FF0C041009808807F490198088000BF79
:102F500009200090002001904FF0C04100980880A7
:102F600079490198088000BF0A2000900020019054
:102F70004FF0C0410098088073490198088000BF55
:102F80000C200090002001904FF0C0410098088074
:102F90006D490198088000BF0D200090002001902D
:102FA0004FF0C0410098088067490198088000BF31
:102FB0000F200090002001904FF0C0410098088041
:102FC00061490198088000E007E200BF10200090EE
:102FD000002001904FF0C041009808805A490198A4
:102FE000088000BF11200090072001904FF0C041E1
:102FF0000098088054490198088000BF1220009072
:10300000002001904FF0C041009808804E4901987F
:10301000088000BF13200090002001904FF0C041B5
:103020000098088048490198088000BFC82006F031
:103030008BFD1020009041F2906001904FF0C04154
:103040000098088040490198088000BF1120009036
:1030500040F2272001904FF0C041009808803A4983
:103060000198088000BF322006F06EFD122000900B
:103070000C2001904FF0C04100980880324901981F
:10308000088000BF322006F05FFD132000904FF44F
:10309000006001904FF0C041009808802A490198D3
:1030A000088000BF29200090112001904FF0C041FE
:1030B0000098088024490198088000BF2B200090C8
:1030C0000B2001904FF0C041009808801E490198E4
:1030D000088000BF322006F037FD2020009000203D
:1030E00001904FF0C041009808801749019808806E
:1030F00000BF21200090002001904FF0C0410098B7
:10310000088011490198088000BF302000900020FD
:1031100001904FF0C041009808800B490198088049
:1031200000BF312000904FF4837001904FF0C041F8
:103130000098088004490198088000BF3220009060
:103140000020019004E0000000000260290000203F
:103150004FF0C04100980880FE490198088000BFE8
:10316000352000904FF4017001904FF0C04100985D
:103170000880F8490198088000BF3620009041F28D
:103180000A6001904FF0C04100980880F149019811
:10319000088000BF3720009040F2077001904FF088
:1031A000C04100980880EB490198088000BF382092
:1031B00000904FF4837001904FF0C0410098088058
:1031C000E4490198088000BF3920009040F2077060
:1031D00001904FF0C04100980880DE4901980880B6
:1031E00000BF3C20009040F2024001904FF0C041EF
:1031F00000980880D7490198088000BF3D200090C2
:1032000040F60F4001904FF0C04100980880D1492E
:103210000198088000BF50200090002001904FF0DE
:10322000C04100980880CB490198088000BF512018
:103230000090EF2001904FF0C04100980880C549F0
:103240000198088000BF52200090002001904FF0AC
:10325000C04100980880BF490198088000BF5320F2
:10326000009040F23F1001904FF0C041009808805C
:10327000B8490198088000BF602000904FF41C50AE
:1032800001904FF0C04100980880B2490198088031
:1032900000BF61200090012001904FF0C0410098D4
:1032A0000880AC490198088000BF6A200090002087
:1032B00001904FF0C04100980880A649019808800D
:1032C00000BF80200090002001904FF0C041009886
:1032D0000880A0490198088000BF8120009000204C
:1032E00001904FF0C041009808809A4901980880E9
:1032F00000BF82200090002001904FF0C041009854
:10330000088094490198088000BF83200090002025
:1033100001904FF0C041009808808E4901980880C4
:1033200000BF84200090002001904FF0C041009821
:10333000088088490198088000BF852000900020FF
:1033400001904FF0C04100980880824901980880A0
:1033500000BF90200090102001904FF0C0410098D5
:1033600008807C490198088000BF922000900815D1
:1033700001904FF0C041009808807649019808807C
:1033800000BF07200090212001904FF0C04100981D
:10339000088070490198088000BF322006F0D4FBF5
:1033A00007200090612001904FF0C04100980880F4
:1033B00068490198088000BF322006F0C5FB07204D
:1033C000009040F2331001904FF0C0410098088007
:1033D00060490198088000BF72E549F6191102980A
:1033E00088427DD10E205C4908702820009006207C
:1033F00001904FF0C041009808805649019808801C
:1034000000BF00200090012001904FF0C0410098C3
:10341000088050490198088000BF102000900020CB
:1034200001904FF0C041009808804A4901980880F7
:1034300000BF0120009047F2EF2001904FF0C04103
:103440000098088043490198088000BF022000903E
:10345000081501904FF0C041009808803D4901983F
:10346000088000BF0320009046F6382001904FF0FE
:10347000C0410098088037490198088000BF11209A
:10348000009046F6740001904FF0C041009808800B
:1034900030490198088000BF0F2000900020019063
:1034A0004FF0C041009808802A490198088000BF69
:1034B0000B20009045F2083001904FF0C041009879
:1034C000088024490198088000BF0C200090032048
:1034D00001904FF0C041009808801E49019800E01B
:1034E00003E1088000BF0D2000900A2001904FF0FA
:1034F000C0410098088017490198088000BF0E203D
:1035000000904FF4385001904FF0C041009808806F
:1035100010490198088000BF1E200090BE20019035
:103520004FF0C041009808800A490198088000BF08
:10353000252000904FF4004001904FF0C0410098CA
:10354000088004490198088000BF262000904FF4AD
:10355000F04003E0000002602900002001904FF0DD
:10356000C04100980880FE490198088000BF2720CC
:103570000090782001904FF0C04100980880F849F1
:103580000198088000BF4E200090002001904FF06D
:10359000C04100980880F2490198088000BF4F2080
:1035A0000090002001904FF0C04100980880EC4945
:1035B0000198088000BF1220009040F6D9000190C9
:1035C0004FF0C04100980880E5490198088000BF8D
:1035D00030200090002001904FF0C04100980880FA
:1035E000DF490198088000BF312000904FF48270BD
:1035F00001904FF0C04100980880D9490198088097
:1036000000BF322000904FF4807001904FF0C04115
:1036100000980880D2490198088000BF33200090AC
:1036200040F2053001904FF0C04100980880CC492D
:103630000198088000BF3420009040F205500190AE
:103640004FF0C04100980880C5490198088000BF2C
:103650003520009040F2053001904FF0C0410098B5
:103660000880BF490198088000BF3620009040F2D2
:10367000077001904FF0C04100980880B849019848
:10368000088000BF37200090481501904FF0C041DE
:1036900000980880B2490198088000BF3A20009045
:1036A0004FF4905001904FF0C04100980880AC4911
:1036B0000198088000BF3B2000904FF4006001900B
:1036C0004FF0C04100980880A5490198088000BFCC
:1036D00007200090332001904FF0C04100980880EF
:1036E0009F490198088000BF76E641F20551029893
:1036F000884204D040F20551029888427ED10920C8
:1037000098490870E52000904FF4004001904FF078
:10371000C0410098088092490198088000BF0020AD
:103720000090012001904FF0C041009808808C4922
:103730000198088000BF2B200090102001904FF0CE
:10374000C0410098088086490198088000BF012088
:103750000090000201904FF0C0410098088080491D
:103760000198088000BF022000904FF4E0600190B3
:103770004FF0C0410098088079490198088000BF47
:103780000320009041F2180001904FF0C0410098D2
:10379000088073490198088000BF04200090002031
:1037A00001904FF0C041009808806D490198088051
:1037B00000BF0820009040F2022001904FF0C0416D
:1037C0000098088066490198088000BF0920009091
:1037D000002001904FF0C041009808806049019896
:1037E000088000BF0A200090002001904FF0C041E7
:1037F000009808805A490198088000E031E200BF33
:103800000C200090002001904FF0C04100980880EB
:1038100053490198088000BF0D20009000200190BE
:103820004FF0C041009808804D490198088000BFC2
:103830000F200090002001904FF0C04100980880B8
:1038400047490198088000BF502000900020019057
:103850004FF0C0410098088041490198088000BF9E
:1038600051200090EF2001904FF0C0410098088057
:103870003B490198088000BF522000900020019031
:103880004FF0C0410098088035490198088000BF7A
:103890005320009040F23F1001904FF0C04100983B
:1038A00008802F490198088000BF602000904FF4E5
:1038B0001C5001904FF0C0410098088028490198A1
:1038C000088000BF61200090012001904FF0C041AE
:1038D0000098088022490198088000BF6A20009063
:1038E000002001904FF0C041009808801C490198C9
:1038F000088000BF80200090002001904FF0C04160
:103900000098088016490198088000BF8120009027
:10391000002001904FF0C0410098088010490198A4
:10392000088000BF82200090002001904FF0C0412D
:10393000009808800A490198088000BF8320009001
:10394000002001904FF0C041009808800449019880
:10395000088000BF842000900020019004E0000057
:1039600000000260290000204FF0C041009808804C
:10397000FE490198088000BF85200090002001903A
:103980004FF0C04100980880F8490198088000BFB6
:1039900090200090102001904FF0C04100980880C6
:1039A000F2490198088000BF922000900020019009
:1039B0004FF0C04100980880EC490198088000BF92
:1039C00093200090032001904FF0C04100980880A0
:1039D000E6490198088000BF952000904FF4887058
:1039E00001904FF0C04100980880E049019808809C
:1039F00000BF97200090002001904FF0C041009838
:103A00000880DA490198088000BF982000900020C3
:103A100001904FF0C04100980880D4490198088077
:103A200000BF10200090002001904FF0C04100988E
:103A30000880CE490198088000BF11200090002026
:103A400001904FF0C04100980880C8490198088053
:103A500000BF12200090002001904FF0C04100985C
:103A60000880C2490198088000BF13200090002000
:103A700001904FF0C04100980880BC49019808802F
:103A800000BF642006F060F81020009041F2B07092
:103A900001904FF0C04100980880B4490198088017
:103AA00000BF11200090042001904FF0C041009809
:103AB0000880AE490198088000BF322006F044F823
:103AC000122000904FF49F7001904FF0C041009879
:103AD0000880A6490198088000BF322006F034F81B
:103AE000132000904FF4F85001904FF0C04100981F
:103AF00008809E490198088000BF292000900F206F
:103B000001904FF0C04100980880984901980880C2
:103B100000BF322006F018F820200090002001900D
:103B20004FF0C0410098088090490198088000BF7C
:103B300021200090002001904FF0C04100980880A3
:103B40008A490198088000BF302000904FF401702E
:103B500001904FF0C0410098088084490198088086
:103B600000BF31200090012001904FF0C04100982B
:103B700008807E490198088000BF32200090002014
:103B800001904FF0C0410098088078490198088062
:103B900000BF3520009040F2062001904FF0C04158
:103BA0000098088071490198088000BF3620009075
:103BB000081501904FF0C041009808806B490198AA
:103BC000088000BF372000904FF4A06001904FF0B4
:103BD000C0410098088065490198088000BF3820DE
:103BE000009040F2055001904FF0C04100980880CD
:103BF0005E490198088000BF3920009040F20740DC
:103C000001904FF0C0410098088058490198088001
:103C100000BF3C2000904FF4A06001904FF0C041E5
:103C20000098088051490198088000BF3D2000900D
:103C300040F2035001904FF0C041009808804B497A
:103C40000198088000BF0720009040F27310019097
:103C50004FF0C0410098088044490198088000BF97
:103C600042E548F68911029888427DD105204049F5
:103C7000087000200090012001904FF0C041009892
:103C800008803A490198088000BF322005F05CFFA7
:103C9000032000904AF6A40001904FF0C041009824
:103CA000088032490198088000BF322005F04CFF9F
:103CB0000C200090002001904FF0C0410098088037
:103CC0002A490198088000BF322005F03DFF0D20F1
:103CD000009040F60C0001904FF0C0410098088021
:103CE00022490198088000BF322005F02DFF0E20E8
:103CF00000904FF42C5001904FF0C0410098088084
:103D00001A490198088000BF322005F01DFF1E20CF
:103D10000090B02001904FF0C041009808801349F6
:103D20000198088000BF322005F00EFF01200090AE
:103D300042F63F3001904FF0C041009808800B4997
:103D40000198088000BF322005F0FEFE022000909E
:103D50004FF4C06001904FF0C041009808800349C3
:103D60000198088000BF05E004E200000000026046
:103D700029000020322005F0E7FE102000900020EE
:103D800001904FF0C04100980880F94901980880DF
:103D900000BF322005F0D8FE1120009046F27000DE
:103DA00001904FF0C04100980880F14901980880C7
:103DB00000BF322005F0C8FE0520009000200190D1
:103DC0004FF0C04100980880E9490198088000BF81
:103DD000322005F0B9FE06200090002001904FF03F
:103DE000C04100980880E2490198088000BF322055
:103DF00005F0AAFE162000904EF61C7001904FF0C0
:103E0000C04100980880DA490198088000BF32203C
:103E100005F09AFE17200090032001904FF0C0415A
:103E200000980880D2490198088000BF322005F030
:103E30008BFE0720009040F2331001904FF0C041FC
:103E400000980880CA490198088000BF322005F018
:103E50007BFE0B200090002001904FF0C0410098A5
:103E60000880C3490198088000BF322005F06CFE2D
:103E70000F200090002001904FF0C0410098088072
:103E8000BB490198088000BF322005F05DFE41204B
:103E90000090002001904FF0C04100980880B44984
:103EA0000198088000BF322005F04EFE42200090AD
:103EB000002001904FF0C04100980880AC49019863
:103EC000088000BF322005F03FFE4820009000200F
:103ED00001904FF0C04100980880A54901980880E2
:103EE00000BF322005F030FE4920009040F23F1024
:103EF00001904FF0C041009808809D4901980880CA
:103F000000BF322005F020FE4A20009000200190E2
:103F10004FF0C0410098088095490198088000BF83
:103F2000322005F011FE4B200090002001904FF050
:103F3000C041009808808E490198088000BF322057
:103F400005F002FE442000904FF46F4001904FF0C6
:103F5000C0410098088086490198088000BF32203F
:103F600005F0F2FD45200090002001904FF0C04187
:103F7000009808807E490198088000BF322005F033
:103F8000E3FD4620009040F23F1001904FF0C04109
:103F90000098088076490198088000BF322005F01B
:103FA000D3FD3020009040F2077001904FF0C041E7
:103FB000009808806E490198088000BF322005F003
:103FC000C3FD312000904FF4017001904FF0C041CB
:103FD0000098088066490198088000BF322005F0EB
:103FE000B3FD322000904FF4017001904FF0C041BA
:103FF000009808805E490198088000BF322005F0D3
:10400000A3FD3320009040F2025001904FF0C041D8
:104010000098088056490198088000BF322005F0BA
:1040200093FD3420009040F2075001904FF0C041C2
:10403000009808804E490198088000BF322005F0A2
:1040400083FD352000904FF4017001904FF0C04186
:104050000098088046490198088000BF322005F08A
:1040600073FD362000904FF4017001904FF0C04175
:10407000009808803E490198088000BF322005F072
:1040800063FD3720009040F2025001904FF0C04194
:104090000098088036490198088000BF322005F05A
:1040A00053FD3A20009040F2023001904FF0C041A1
:1040B000009808802E490198088000BF322005F042
:1040C00043FD3B20009040F2023001904FF0C04190
:1040D0000098088026490198088000BF322005F02A
:1040E00033FD23200090002001904FF0C041009844
:1040F00008801F490198088000BF322005F024FD88
:1041000024200090002001904FF0C04100980880CA
:1041100017490198088000BF322005F015FD2520C1
:1041200000904FF4004001904FF0C041009808808B
:104130000F490198088000BF322005F005FD4F208F
:104140000090002001904FF0C0410098088008497D
:104150000198088000BF4E200090002001904FF091
:10416000C0410098088002490198088000BF77E5A7
:104170000000026048F69911029888427ED104201E
:10418000FE49087028200090062001904FF0C041A1
:1041900000980880FA490198088000BF002000902C
:1041A000012001904FF0C04100980880F449019827
:1041B000088000BF032000904AF6A46001904FF0F1
:1041C000C04100980880EE490198088000BF0C208B
:1041D0000090042001904FF0C04100980880E84909
:1041E0000198088000BF0D2000900C2001904FF036
:1041F000C04100980880E2490198088000BF0E2065
:1042000000904FF4205001904FF0C041009808807A
:10421000DB490198088000BF1E200090B520019066
:104220004FF0C04100980880D5490198088000BF30
:104230000120009043F63F3001904FF0C0410098BC
:104240000880CF490198088000BF0220009008151F
:1042500001904FF0C04100980880C949019808803A
:1042600000BF10200090002001904FF0C041009846
:104270000880C3490198088000BF00E0AFE1112029
:10428000009046F6300001904FF0C0410098088041
:10429000BB490198088000BF0520009000200190D4
:1042A0004FF0C04100980880B5490198088000BFD0
:1042B00006200090002001904FF0C0410098088037
:1042C000AF490198088000BF162000904EF61C7080
:1042D00001904FF0C04100980880A94901980880DA
:1042E00000BF07200090332001904FF0C04100989C
:1042F0000880A3490198088000BF0B20009000208F
:1043000001904FF0C041009808809D4901980880B5
:1043100000BF0F200090002001904FF0C041009896
:10432000088097490198088000BF41200090002034
:1043300001904FF0C0410098088091490198088091
:1043400000BF42200090002001904FF0C041009833
:1043500008808B490198088000BF48200090002009
:1043600001904FF0C041009808808549019808806D
:1043700000BF4920009040F23F1001904FF0C04133
:10438000009808807E490198088000BF4A2000906C
:10439000002001904FF0C0410098088078490198B2
:1043A000088000BF4B200090002001904FF0C041DA
:1043B0000098088072490198088000BF442000904E
:1043C0004FF46F4001904FF0C041009808806C4955
:1043D0000198088000BF45200090002001904FF018
:1043E000C0410098088066490198088000BF4620B7
:1043F000009040F23F1001904FF0C04100980880BB
:104400005F490198088000BF4E2000900020019075
:104410004FF0C0410098088059490198088000BFBA
:104420004F200090002001904FF0C041009808807C
:1044300053490198088000BF3020009040F2077077
:1044400001904FF0C041009808804D4901980880C4
:1044500000BF3120009040F2022001904FF0C04197
:104460000098088046490198088000BF32200090DB
:104470004FF4017001904FF0C0410098088040490E
:104480000198088000BF3320009040F20250019054
:104490004FF0C0410098088039490198088000BF5A
:1044A0003420009040F2075001904FF0C041009836
:1044B000088033490198088000BF352000904FF4F0
:1044C000017001904FF0C041009808802C4901987C
:1044D000088000BF362000904FF4017001904FF02B
:1044E000C0410098088026490198088000BF372005
:1044F000009040F2025001904FF0C04100980880B7
:104500001F490198088000BF3A20009040F2023015
:1045100001904FF0C0410098088019490198088027
:1045200000BF3B20009040F2023001904FF0C041AC
:104530000098088012490198088000BF232000904D
:10454000002001904FF0C041009808800C4901986C
:10455000088000BF24200090002001904FF0C0414F
:104560000098088006490198088000BF2520009027
:104570004FF4004001904FF0C04103E029000020BB
:104580000000026000980880FE490198088000BF82
:10459000262000904FF4E04001904FF0C041009879
:1045A0000880F8490198088000BF202000904BF255
:1045B000EB0001904FF0C04100980880F14901984C
:1045C000088000BF272000907C2001904FF0C04160
:1045D00000980880EB490198088000BFC7E545F2C4
:1045E0000841029888427DD10820E74908700120DF
:1045F0000090000201904FF0C04100980880E1490E
:104600000198088000BF022000904FF4E060019004
:104610004FF0C04100980880DA490198088000BF37
:104620000320009041F2300001904FF0C04100980B
:104630000880D4490198088000BF04200090002021
:1046400001904FF0C04100980880CE490198088041
:1046500000BF0820009040F2072001904FF0C041B9
:1046600000980880C7490198088000BF0920009081
:10467000002001904FF0C04100980880C149019886
:10468000088000BF0A200090002001904FF0C04138
:1046900000980880BB490198088000BF0C2000905A
:1046A000002001904FF0C04100980880B549019862
:1046B000088000BF0D200090002001904FF0C04105
:1046C00000980880AF490198088000BF0F20009033
:1046D000002001904FF0C04100980880A94901983E
:1046E000088000E058E100BF322005F02DFA0720D5
:1046F000009040F2011001904FF0C04100980880F6
:10470000A0490198088000BF322005F01DFA102052
:10471000009041F2B06001904FF0C04100980880D5
:1047200098490198088000BF112000900120019055
:104730004FF0C0410098088092490198088000BF5E
:1047400017200090012001904FF0C0410098088090
:104750008C490198088000BF122000904FF49C7093
:1047600001904FF0C0410098088086490198088068
:1047700000BF132000904FF4006001904FF0C04143
:10478000009808807F490198088000BF2920009088
:10479000092001904FF0C0410098088079490198A4
:1047A000088000BF2A200090092001904FF0C041EE
:1047B0000098088073490198088000BFA4200090E9
:1047C000002001904FF0C041009808806D49019889
:1047D000088000BF50200090002001904FF0C041A1
:1047E0000098088067490198088000BF5120009018
:1047F000EF2001904FF0C041009808806149019876
:10480000088000BF52200090002001904FF0C0416E
:10481000009808805B490198088000BF53200090F1
:1048200040F23F1001904FF0C04100980880554978
:104830000198088000BF602000904FF41C50019048
:104840004FF0C041009808804E490198088000BF91
:1048500061200090032001904FF0C0410098088033
:1048600048490198088000BF6A200090002001900C
:104870004FF0C0410098088042490198088000BF6D
:1048800080200090002001904FF0C04100980880E7
:104890003C490198088000BF8120009000200190D1
:1048A0004FF0C0410098088036490198088000BF49
:1048B00082200090002001904FF0C04100980880B5
:1048C00030490198088000BF8320009000200190AB
:1048D0004FF0C041009808802A490198088000BF25
:1048E00084200090002001904FF0C0410098088083
:1048F00024490198088000BF852000900020019085
:104900004FF0C041009808801E490198088000BF00
:1049100090200090132001904FF0C0410098088033
:1049200018490198088000BF922000900020019053
:104930004FF0C0410098088012490198088000BFDC
:1049400093200090032001904FF0C0410098088010
:104950000C490198088000BF952000904FF48870A2
:1049600001904FF0C04100980880064901980880E6
:1049700000BF0720009040F2731001904FF0C0413B
:10498000009803E000000260290000200880FE4932
:104990000198088000BF21E644F231510298884214
:1049A0007DD10720F9490870002000900120019076
:1049B0004FF0C04100980880F3490198088000BF7B
:1049C000102000904FF4C56001904FF0C041009856
:1049D0000880ED490198088000BF12200090062051
:1049E00001904FF0C04100980880E7490198088085
:1049F00000BF1320009040F6322001904FF0C041DC
:104A000000980880E0490198088000BF11200090BC
:104A1000402001904FF0C04100980880DA49019889
:104A2000088000BF15200090502001904FF0C04139
:104A300000980880D4490198088000BF1220009097
:104A4000162001904FF0C04100980880CE4901988F
:104A5000088000BF322005F077F81020009045F262
:104A6000606001904FF0C04100980880C6490198ED
:104A7000088000BF322005F067F81320009042F64E
:104A80004E2001904FF0C04100980880BE49019827
:104A9000088000BF012000900002019000E035E195
:104AA0004FF0C04100980880B7490198088000BFC6
:104AB00002200090481501904FF0C04100980880F6
:104AC000B1490198088000BF0320009041F23000F6
:104AD00001904FF0C04100980880AB4901980880D0
:104AE00000BF0820009040F2022001904FF0C0412A
:104AF00000980880A4490198088000BF0A2000900F
:104B0000002001904FF0C041009808809E49019814
:104B1000088000BF30200090002001904FF0C0417D
:104B20000098088098490198088000BF31200090C3
:104B300040F2024001904FF0C04100980880924935
:104B40000198088000BF322000904FF483700190DC
:104B50004FF0C041009808808B490198088000BF41
:104B6000332000904FF4E06001904FF0C041009876
:104B7000088085490198088000BF342000904FF4D8
:104B8000827001904FF0C041009808807E490198E2
:104B9000088000BF3520009040F2013001904FF0B6
:104BA000C0410098088078490198088000BF3620ED
:104BB000009040F2077001904FF0C04100980880CB
:104BC00071490198088000BF3720009040F20530FD
:104BD00001904FF0C041009808806B49019808800F
:104BE00000BF382000904FF4027001904FF0C04198
:104BF0000098088064490198088000BF392000901F
:104C000040F60B7001904FF0C041009808805E495B
:104C10000198088000BF322004F096FF41200090E8
:104C2000022001904FF0C041009808805649019839
:104C3000088000BF602000904FF41C5001904FF09E
:104C4000C0410098088050490198088000BF612049
:104C50000090012001904FF0C041009808804A491F
:104C60000198088000BF9020009040F21910019038
:104C70004FF0C0410098088043490198088000BF68
:104C8000922000904FF4857001904FF0C041009841
:104C900008803D490198088000BF932000900420BF
:104CA00001904FF0C0410098088037490198088072
:104CB00000BFA02000904FF4807001904FF0C041E1
:104CC0000098088030490198088000BF322004F025
:104CD0003BFF0720009040F2331001904FF0C0419D
:104CE0000098088028490198088000BF322004F00D
:104CF0002BFFA0200090002001904FF0C0410098B1
:104D0000088021490198088000BF67E444F23551CA
:104D1000029888427ED10D201C4908701520009011
:104D2000302001904FF0C04100980880164901984A
:104D3000088000BF9A200090102001904FF0C041E1
:104D40000098088010490198088000BF1120009049
:104D5000202001904FF0C041009808800A49019836
:104D6000088000BF1020009043F2284001904FF0CF
:104D7000C0410098088004490198088000BF1220B3
:104D800000900220019003E0000002602900002052
:104D90004FF0C04100980880FE490198088000BF8C
:104DA0001320009041F2380001904FF0C04100986C
:104DB0000880F8490198088000BF282004F0C4FE4C
:104DC0001220009001904FF0C04100980880F149F6
:104DD0000198088000BF282004F0B6FE1020009043
:104DE00043F2204001904FF0C04100980880E9490B
:104DF0000198088000BF1320009043F24500019005
:104E00004FF0C04100980880E2490198088000BF37
:104E1000462000E056E104F097FE3020009000208C
:104E200001904FF0C04100980880DA49019808804D
:104E300000BF3120009040F2024001904FF0C0418D
:104E400000980880D3490198088000BF3220009064
:104E500040F2073001904FF0C04100980880CD49E2
:104E60000198088000BF332000904FF441700190FA
:104E70004FF0C04100980880C6490198088000BFE3
:104E800034200090042001904FF0C0410098088029
:104E9000C0490198088000BF3520009040F20140D1
:104EA00001904FF0C04100980880BA4901980880ED
:104EB00000BF3620009040F2077001904FF0C041D3
:104EC00000980880B3490198088000BF37200090FF
:104ED00040F2053001904FF0C04100980880AD4984
:104EE0000198088000BF382000904FF4C260019004
:104EF0004FF0C04100980880A6490198088000BF83
:104F0000392000904FF4C26001904FF0C0410098EA
:104F10000880A0490198088000BF0120009000028D
:104F200001904FF0C041009808809A49019808808C
:104F300000BF02200090481501904FF0C04100983A
:104F4000088094490198088000BF0320009041F236
:104F5000300001904FF0C041009808808D490198C1
:104F6000088000BF0820009040F6080001904FF034
:104F7000C0410098088087490198088000BF0A2036
:104F80000090082001904FF0C041009808808149AE
:104F90000198088000BF602000904FF41C500190E1
:104FA0004FF0C041009808807A490198088000BFFE
:104FB00061200090012001904FF0C04100980880CE
:104FC00074490198088000BF902000904FF49F70B2
:104FD00001904FF0C041009808806E490198088008
:104FE00000BF922000904FF4807001904FF0C041BC
:104FF0000098088067490198088000BF93200090BE
:105000004FF4807001904FF0C041009808806149D2
:105010000198088000BFA02000904FF440500190FC
:105020004FF0C041009808805A490198088000BF9D
:10503000A3200090102001904FF0C04100980880FC
:1050400054490198088000BF07200090012001907A
:105050004FF0C041009808804E490198088000BF79
:1050600007200090212001904FF0C0410098088057
:1050700048490198088000BF072000902320019034
:105080004FF0C0410098088042490198088000BF55
:1050900007200090332001904FF0C0410098088015
:1050A0003C490198088000BF0720009040F233106F
:1050B00001904FF0C041009808803649019808805F
:1050C00000BF68E40298472868D10B203249087075
:1050D000EA200090002001904FF0C0410098088025
:1050E0002C490198088000BFEB20009020200190FF
:1050F0004FF0C0410098088026490198088000BF01
:10510000EC2000900C2001904FF0C04100980880E6
:1051100020490198088000BFED200090C420019034
:105120004FF0C041009808801A490198088000BFDC
:10513000E8200090402001904FF0C0410098088086
:1051400014490198088000BFE920009038200190A0
:105150004FF0C041009808800E490198088000BFB8
:10516000F1200090012001904FF0C041009808808C
:1051700008490198088000BFF2200090102001909B
:105180004FF0C0410098088002490198088000BF94
:10519000272004E0000002602900002021E20090A6
:1051A000A32001904FF0C04100980880FE4901986B
:1051B000088000BF40200090012001904FF0C041C6
:1051C00000980880F8490198088000BF41200090AD
:1051D000002001904FF0C04100980880F2490198EA
:1051E000088000BF42200090002001904FF0C04195
:1051F00000980880EC490198088000BF4320009087
:10520000102001904FF0C04100980880E6490198B5
:10521000088000BF442000900E2001904FF0C04154
:1052200000980880E0490198088000BF4520009060
:10523000242001904FF0C04100980880DA4901987D
:10524000088000BF46200090042001904FF0C0412C
:1052500000980880D4490198088000BF472000903A
:10526000502001904FF0C04100980880CE4901982D
:10527000088000BF48200090022001904FF0C041FC
:1052800000980880C8490198088000BF4920009014
:10529000132001904FF0C04100980880C249019846
:1052A000088000BF4A200090192001904FF0C041B3
:1052B00000980880BC490198088000BF4B200090EE
:1052C000192001904FF0C04100980880B64901981C
:1052D000088000BF4C200090162001904FF0C04184
:1052E00000980880B0490198088000BF50200090C5
:1052F0001B2001904FF0C04100980880AA490198F6
:10530000088000BF51200090312001904FF0C04133
:1053100000980880A4490198088000BF522000909E
:105320002F2001904FF0C041009808809E490198BD
:10533000088000BF532000903F2001904FF0C041F3
:105340000098088098490198088000BF5420009078
:105350003F2001904FF0C041009808809249019889
:10536000088000BF552000903E2001904FF0C041C2
:10537000009808808C490198088000BF5620009052
:105380002F2001904FF0C041009808808649019875
:10539000088000BF572000907B2001904FF0C04153
:1053A0000098088080490198088000BF582000902C
:1053B000092001904FF0C041009808807A49019877
:1053C000088000BF59200090062001904FF0C04196
:1053D0000098088074490198088000BF5A20009006
:1053E000062001904FF0C041009808806E49019856
:1053F000088000BF5B2000900C2001904FF0C0415E
:105400000098088068490198088000BF5C200090DF
:105410001D2001904FF0C04100980880624901981A
:10542000088000BF5D200090CC2001904FF0C0416B
:10543000009808805C490198088000BF1B200090FC
:10544000182001904FF0C0410098088056490198FB
:10545000088000BF1A200090012001904FF0C04149
:105460000098088050490198088000BF24200090CF
:10547000152001904FF0C041009808804A490198DA
:10548000088000BF25200090502001904FF0C041BF
:105490000098088044490198088000BF23200090AC
:1054A0008B2001904FF0C041009808803E49019840
:1054B000088000BF18200090362001904FF0C041B6
:1054C0000098088038490198088000BF1920009092
:1054D000012001904FF0C0410098088032490198A6
:1054E000088000BF01200090002001904FF0C041D3
:1054F000009808802C490198088000BF1F20009068
:10550000882001904FF0C0410098088026490198FA
:10551000088000BF322004F017FB1F20009080207D
:1055200001904FF0C041009808801F490198088001
:1055300000BF322004F008FB1F2000909020019053
:105540004FF0C0410098088017490198088000BFBB
:10555000322004F0F9FA1F200090D02001904FF083
:10556000C0410098088010490198088000BF32208F
:1055700004F0EAFA17200090052001904FF0C04196
:105580000098088008490198088000BF36200090E4
:10559000002001904FF0C041009808800249019816
:1055A000088000BF282001E0000002600090382041
:1055B00001904FF0C04100980880FE490198088092
:1055C00000BF322004F0C0FA282000903C20019057
:1055D0004FF0C04100980880F6490198088000BF4C
:1055E0006FE547F28371029888427DD10620F24927
:1055F0000870FF200090012001904FF0C0410098FA
:105600000880EC490198088000BFF3200090082032
:1056100001904FF0C04100980880E6490198088049
:1056200000BF01200090000201904FF0C04100989F
:105630000880E0490198088000BF022000904FF4E4
:10564000E06001904FF0C04100980880D94901986E
:10565000088000BF0320009041F2300001904FF01D
:10566000C04100980880D3490198088000BF0820F5
:10567000009040F2023001904FF0C0410098088045
:10568000CC490198088000BF0820009040F2072014
:1056900001904FF0C04100980880C64901980880E9
:1056A00000BF09200090002001904FF0C0410098F9
:1056B0000880C0490198088000BF0A20009000209F
:1056C00001904FF0C04100980880BA4901980880C5
:1056D00000BF10200090002001904FF0C0410098C2
:1056E0000880B449019800E068E1088000BF1120FB
:1056F0000090052001904FF0C04100980880AD490E
:105700000198088000BF12200090002001904FF007
:10571000C04100980880A7490198088000BF132065
:105720000090002001904FF0C04100980880A149EE
:105730000198088000BF322004F006FA1020009083
:1057400041F2B02001904FF0C04100980880994983
:105750000198088000BF322004F0F6F91120009073
:10576000072001904FF0C0410098088091490198AE
:10577000088000BF322004F0E7F9122000908B204F
:1057800001904FF0C041009808808A490198088034
:1057900000BF322004F0D8F9132000904FF4B85025
:1057A00001904FF0C041009808808249019808801C
:1057B00000BF322004F0C8F9292000902220019077
:1057C0004FF0C041009808807A490198088000BFD6
:1057D00030200090002001904FF0C04100980880D8
:1057E00074490198088000BF3120009040F2077092
:1057F00001904FF0C041009808806E4901980880E0
:1058000000BF3220009040F2055001904FF0C0419F
:105810000098088067490198088000BF35200090F3
:1058200040F2071001904FF0C04100980880614994
:105830000198088000BF36200090082001904FF0AA
:10584000C041009808805B490198088000BF37205C
:105850000090002001904FF0C04100980880554909
:105860000198088000BF3820009040F2022001908B
:105870004FF0C041009808804E490198088000BF51
:10588000392000904FF4837001904FF0C041009890
:10589000088048490198088000BF3C20009040F2F1
:1058A000022001904FF0C0410098088041490198C2
:1058B000088000BF3D2000904FF4816001904FF0C0
:1058C000C041009808803B490198088000BF322001
:1058D00004F03AF950200090002001904FF0C041B0
:1058E0000098088033490198088000BF512000903B
:1058F000EF2001904FF0C041009808802D49019899
:10590000088000BF52200090002001904FF0C0415D
:105910000098088027490198088000BF5320009014
:1059200040F23F1001904FF0C0410098088021499B
:105930000198088000BF602000904FF4274001903C
:105940004FF0C041009808801A490198088000BFB4
:1059500061200090012001904FF0C0410098088024
:1059600014490198088000BF9020009033200190D6
:105970004FF0C041009808800E490198088000BF90
:105980002B2000900B2001904FF0C0410098088020
:1059900008490198088000BF0720009040F23310AA
:1059A00001904FF0C041009808800249019808809A
:1059B00000BF15E60000026029000020672001906A
:1059C0004FF0C04101980880FE480188029102987A
:1059D00046287DD10A20FC4908704620009094207A
:1059E00001904FF0C04100980880F6490198088066
:1059F00000BF47200090412001904FF0C041009827
:105A00000880F0490198088000BF482000900020DD
:105A100001904FF0C04100980880EA490198088041
:105A200000BF49200090332001904FF0C041009802
:105A30000880E4490198088000BF4A200090232094
:105A400001904FF0C04100980880DE49019808801D
:105A500000BF4B200090452001904FF0C0410098BE
:105A60000880D8490198088000BF4C20009044204D
:105A700001904FF0C04100980880D24901980880F9
:105A800000BF4D200090772001904FF0C04100985A
:105A90000880CC490198088000BF4E200090122059
:105AA00001904FF0C04100980880C64901980880D5
:105AB00000BF4F200090CC2001904FF0C0410098D3
:105AC0000880C0490198088000BF5020009000E085
:105AD00076E2462001904FF0C04100980880B94915
