:020000040800F2
:10000000300C002045010008850A0008DF080008C0
:10001000810A0008750200083D2D0008000000005C
:10002000000000000000000000000000F5290008AA
:10003000E1050008000000002D0B0008E12A00087F
:100040005F0100085F0100085F0100085F01000810
:100050005F0100085F0100085F0100085F01000800
:100060005F0100085F0100085F0100085F010008F0
:100070005F0100085F0100085F0100085F010008E0
:100080005F0100085F0100085F0100085F010008D0
:100090005F0100085F0100085F0100085F010008C0
:1000A0005F0100085F0100085F0100085F010008B0
:1000B0005F0100085F0100085F0100085F010008A0
:1000C0005F0100085F0100085F0100085F01000890
:1000D0005F0100085F0100085F0100085F01000880
:1000E0005F0100085F0100085F0100085F01000870
:1000F0005F0100085F0100085F0100085F01000860
:100100005F010008510E00085F0100085F01000850
:100110005F0100085F0100085F0100085F0100083F
:100120005F0100085F0100085F0100085F0100082F
:10013000DFF80CD000F050F80048004711410008EB
:10014000300C00200648804706480047FEE7FEE7DF
:10015000FEE7FEE7FEE7FEE7FEE7FEE7FEE7FEE777
:10016000E52A000831010008421C10F8011B002993
:10017000FBD1801A70472DE9F05F054600209246BA
:100180009B4688460646814640241BE02846414659
:100190004746224600F041F853465A46C01A91415C
:1001A00010D311461846224600F028F82D1A67EBA6
:1001B00001084F4622460120002100F01FF817EBEE
:1001C00000094E41201EA4F10104DFDC48463146FF
:1001D0002A464346BDE8F09F064C074D06E0E0681E
:1001E00040F0010394E8070098471034AC42F6D37E
:1001F000FFF7A2FFB0440008D0440008202A04DB27
:10020000203A00FA02F1002070479140C2F1200329
:1002100020FA03F3194390407047202A04DB203A68
:1002200021FA02F00021704721FA02F3D040C2F116
:100230002002914008431946704730B58C1810F8D9
:10024000012B12F00F0301D110F8013B120906D166
:1002500010F8012B03E010F8015B01F8015B5B1E55
:10026000F9D101E001F8013B521EFBD1A142E6D3D6
:10027000002030BD00BFFEE770B52A254FF4803462
:1002800000E0641E24B1802000F0B6FD0028F8D004
:1002900014B90325284670BD40F2FF5000F064FDFC
:1002A0002846F8E72DE9F04106462A274848456BDD
:1002B00001E04748456B05F045000028F9D005F0FE
:1002C000040030B10327042000F04EFD3846BDE89D
:1002D000F08105F0010028B10127012000F044FD64
:1002E0003846F4E700F082FDB04202D010273846CD
:1002F000EDE740F2FF5000F037FD002000F09CFDDC
:1003000004463448204008B93846E0E704F000408D
:1003100008B11C20DBE704F0804008B10920D6E7D3
:1003200004F0005008B10A20D1E704F0805008B171
:100330000B20CCE704F0006008B10C20C7E704F004
:10034000806008B10D20C2E704F0807008B10E2073
:10035000BDE704F4000008B10F20B8E704F4800002
:1003600008B11020B3E704F4001008B11120AEE783
:1003700004F4801008B11220A9E704F4002008B1A9
:100380001320A4E704F4802008B114209FE704F4AC
:10039000003008B115209AE704F4803008B1162027
:1003A00095E704F4004008B1172090E704F480407A
:1003B00008B118208BE704F4005008B1192086E733
:1003C00004F0080008B11A2081E738467FE70000F2
:1003D0000080014008E0FFFD70B52A251048446BFD
:1003E00001E00F48446B04F045000028F9D004F008
:1003F000040028B10325042000F0B6FC284670BD97
:1004000004F0010028B10125012000F0ADFC2846D0
:10041000F5E740F2FF5000F0A7FC2846EFE70000A8
:100420000080014070B52A250B48446B01E00A4862
:10043000446B04F045000028F9D004F0040028B112
:100440000325042000F090FC284670BD40F2FF50C8
:1004500000F08AFC2846F8E7008001402DE9F041D1
:1004600006460F464FF02A082248456B01E0214816
:10047000456B05F045000028F9D005F0040038B1BF
:100480004FF00308042000F06FFC4046BDE8F08107
:1004900005F0010030B14FF00108012000F064FCCC
:1004A0004046F3E700F0A2FCB04203D04FF0100842
:1004B0004046EBE740F2FF5000F056FC002000F011
:1004C000BBFC044604F4604018B9200C3880404658
:1004D000DCE704F4005008B11320D7E704F48040AF
:1004E00008B11020D2E704F4004008B10F20CDE796
:1004F0004046CBE70080014070B52A264FF4803596
:100500000F48446B02E06D1E0D48446B04F045003B
:1005100008B9002DF7D115B104F0040028B1032665
:10052000042000F021FC304670BD04F0400028B1EA
:100530002A26402000F018FC3046F5E73046F3E765
:100540000080014000F0805111B10349086001E0D2
:100550000249486070470000040402400000024065
:1005600021B1026842F00102026004E002684FF625
:10057000FE731A400260704701460020002201F01D
:10058000805313B1054B1A6801E0054B1A6802EA63
:1005900001030BB1012000E000207047000402407D
:1005A0000000024010B50022026847F6F0739A433B
:1005B0000C6A8B6823430C6923434C6923438C6981
:1005C0002343CC6923434C6A23438C6A23431A4355
:1005D0000260CB6843600B6883604B68C36010BDEA
:1005E000704700002DE9FC4107460D4600262A24ED
:1005F00000200090019008205C49086010204860AD
:10060000402088600020C8604FF480600861084680
:1006100000F050FC1020FFF745FE04462A2C02D0C3
:100620002046BDE8FC815248008800044F4908601C
:1006300037204860402088600020C8604FF4806008
:100640000861084600F036FC3720FFF72BFE044611
:100650002A2C01D02046E4E7464847490860082094
:100660004860302088600220C860002008610120B6
:100670004861084600F090FB00203C4908603320A8
:100680004860402088600020C8604FF480600861A6
:10069000084600F00FFC3320FFF704FE04462A2C26
:1006A00001D02046BDE709E04FF4001000F0A4FBA4
:1006B00020B100F0F9FB4DF82600761C2F48406B66
:1006C00040F22A6108400028EED0082000F094FB98
:1006D00028B1082000F048FB04242046A1E70220AE
:1006E00000F08AFB28B1022000F03EFB02242046E5
:1006F00097E7202000F080FB28B1202000F034FB99
:10070000062420468DE74FF4007000F075FB30B1F1
:100710004FF4007000F028FB0724204681E740F2E8
:10072000FF5000F021FB00980006009901F47F4182
:1007300040EA0120009901F47F0140EA112000996C
:1007400040EA1160686001980006019901F47F4158
:1007500040EA0120019901F47F0140EA112001994A
:1007600040EA1160286020465BE700000006002098
:1007700004020020FFFF0F0014060020008001404B
:1007800070B504460D4616460323324629462046D8
:1007900000F001F870BDF8B507460C4615461E4638
:1007A000ADF800408DF803508DF802606946384678
:1007B00000F001F8F8BD2DE9F041024600250026C1
:1007C000002000230024002791F803C00CF00F053F
:1007D00091F803C00CF0100CBCF1000F03D091F89D
:1007E00002C04CEA050591F800C0BCF1000F31D001
:1007F000146800202BE04FF0010C0CFA00F3B1F864
:1008000000C00CEA03069E4220D183004FF00F0C7B
:100810000CFA03F7BC4305FA03FC4CEA040491F814
:1008200003C0BCF1280F06D14FF0010C0CFA00FCFC
:10083000C2F814C00AE091F803C0BCF1480F05D11A
:100840004FF0010C0CFA00FCC2F810C0401C082844
:10085000D1D31460B1F800C0BCF1FF0F34DD54688F
:1008600000202EE000F1080C4FF0010808FA0CF30C
:10087000B1F800C00CEA03069E4221D183004FF07C
:100880000F0C0CFA03F7BC4305FA03FC4CEA040412
:1008900091F803C0BCF1280F05D100F1080C08FA4B
:1008A0000CF8C2F8148091F803C0BCF1480F07D1CE
:1008B00000F1080C4FF0010808FA0CF8C2F810809B
:1008C000401C0828CED35460BDE8F08102460020C9
:1008D00093680B400BB1012000E00020704700BF7F
:1008E000FEE700007CB504462A2500200190009018
:1008F0005F48008800045F4908600D204860402080
:1009000088600020C8604FF480600861084600F0ED
:10091000D1FA5948406B009002E05748406B009074
:10092000009800F045000028F7D0009800F004007F
:1009300028B10325042000F017FA28467CBD009852
:1009400000F0010028B10125012000F00DFA284631
:10095000F4E700F04BFA009000980D2802D0102523
:100960002846EBE740F2FF5000F0FEF9002000F0CF
:1009700063FA01900198C0F3432020703F49019829
:10098000084008B92846D9E7019800F0004008B1AE
:100990001C20D3E7019800F0804008B10920CDE782
:1009A000019800F0005008B10A20C7E7019800F054
:1009B000805008B10B20C1E7019800F0006008B139
:1009C0000C20BBE7019800F0806008B10D20B5E76E
:1009D000019800F0807008B10E20AFE7019800F494
:1009E000000008B10F20A9E7019800F4800008B1C9
:1009F0001020A3E7019800F4001008B111209DE732
:100A0000019800F4801008B1122097E7019800F4D3
:100A1000002008B1132091E7019800F4802008B16C
:100A200014208BE7019800F4003008B1152085E709
:100A3000019800F4803008B116207FE7019800F497
:100A4000004008B1172079E7019800F4804008B110
:100A5000182073E7019800F4005008B119206DE7E1
:100A6000019800F0080008B11A2067E7284665E7FA
:100A700004020020000600200080014008E0FFFD85
:100A800000BFFEE77047F8B504460D4616461F4600
:100A90008DF800408DF801508DF802608DF80370DC
:100AA000684600F001F8F8BD70B5002100230F2260
:100AB000C47804B3154C246804F4E064C4F5E0641D
:100AC000210AC1F10403CA40447804FA03F184788E
:100AD0001440214309010E4C0678A155047804F016
:100AE0001F050124AC4005786D11AD0005F1E0252E
:100AF000C5F8004109E0047804F01F050124AC406A
:100B0000044D0678761145F8264070BD0CED00E0E6
:100B100000E400E080E100E002490143024A116084
:100B2000704700000000FA050CED00E0704700007F
:100B300029B1064A52690243044B5A6104E0034A50
:100B400052698243014B5A61704700000010024015
:100B500029B1064A92690243044B9A6104E0034AB0
:100B600092698243014B9A61704700000010024075
:100B700030B500210022002400232D4D6D6805F0C2
:100B80000C0121B1042905D0082923D105E0294D04
:100B9000056022E0274D05601FE0254D6D6805F4D6
:100BA0007012234D6D6805F48034022505EB9242E6
:100BB0001CB9214D554305600BE01D4D6D6805F4D2
:100BC00000351DB11C4D5543056002E0194D5543DC
:100BD000056002E0174D056000BF00BF144D6D6851
:100BE00005F0F0010909154D6B5C0568DD404560B5
:100BF0000F4D6D6805F4E061090A104D6B5C4568A6
:100C0000DD4085600A4D6D6805F46051C90A0B4DE1
:100C10006B5C4568DD40C560054D6D6805F440417D
:100C2000890B074D6B5CC568B5FBF3F5056130BDFD
:100C30000010024000127A0000093D002E02002040
:100C40003E0200207CB505462A2400200090019039
:100C500000F0F2F800F0007010B10E2420467CBDC8
:100C60003F49098888B26946FFF7BCFC04462A2C34
:100C700001D02046F3E7012D38D1019800F48020FF
:100C8000002830D0364800880004364908603720F4
:100C90004860402088600020C860A80208610846BB
:100CA00000F008F93720FFF7FDFA04462A2C01D09E
:100CB0002046D4E702202B490860062048604020E7
:100CC00088600020C8604FF480600861084600F02A
:100CD000F1F80620FFF7E6FA04462A2C01D0204658
:100CE000BDE72046BBE725242046B8E7019800F47D
:100CF000803078B31A48008800041A490860372009
:100D00004860402088600020C8604FF4806008611F
:100D1000084600F0CFF83720FFF7C4FA04462A2C23
:100D200001D020469BE700200E490860062048605D
:100D3000402088600020C8604FF480600861084649
:100D400000F0B8F80620FFF7ADFA04462A2C02D0CE
:100D5000204684E701E0204681E7252420467EE7FF
:100D6000040200200006002001498863704700004B
:100D70000080014001498863704700000080014005
:100D80000149086070470000A00030420149086036
:100D9000704700008C05304200210A4B02685A62FD
:100DA00042689A621A46D16A21F0F701D0E902231B
:100DB0001A4303691A4343691A431143014AD16232
:100DC000704700000080014000200649086048602C
:100DD0008860C86048628862C862034888630020EF
:100DE000C863704700800140FF07C00001480069E8
:100DF000C0B270470080014001460020034A526B98
:100E00000A400AB1012000E0002070470080014044
:100E100001460020034A526B0A400AB1012000E05B
:100E200000207047008001400248006800F0030085
:100E3000704700000080014008B501460020009086
:100E40000248084400900098006808BD14800140E2
:100E500010B500F0F3FD10BD29B1064AD26B024374
:100E6000044BDA6304E0034AD26B8243014BDA633A
:100E7000704700000080014000210A4A516847F68F
:100E8000FF629143027D83681A4343681A43C36833
:100E90001A4303681A4303691A431143014A516014
:100EA0007047000000800140014800687047000062
:100EB000808001400021094B02689A601A46D1687F
:100EC0006FF30A01D0E901231A43C3681A43036987
:100ED0001A431143014AD16070470000008001406D
:100EE0000549096821F00301034A116011460968A8
:100EF0000143116070470000008001400149086013
:100F000070470000808001402DE9F04104460E4604
:100F100017461D462CB98EB131460AA001F010FFCC
:100F20000CE03A46214609A001F00AFF1DB129460E
:100F30000BA001F005FF0CA001F002FF2046BDE868
:100F4000F081000025730D0A000000005344204585
:100F500052524F5220282564293A20257300000060
:100F600020282573290000000D0A000070B56FF0DD
:100F70007F4400F049FC4FF4C060FFF7CDFD012332
:100F8000002211463120FFF77EFD00F075F80128A0
:100F900003D10FA001F0D4FE0EE012A001F0D0FEAC
:100FA00000BF00F069F80128FBD11AA001F0C8FECB
:100FB00000E0641E002CFCD11F49002002F0AAFEB4
:100FC000054600231DA222A1FFF79EFF70BD000071
:100FD000534420436172642064657465637465647E
:100FE0002E0D0A004E6F205344204361726420642A
:100FF000657465637465642E2057616974696E67F2
:1010000020666F7220636F6E6E656374202E2E2EC5
:101010000D0A0000534420436172642064657465C6
:10102000637465642E205761697420612073656361
:10103000202E2E2E0D0A0000480200204D6F756EE6
:1010400074696E67206661696C65642E000000003B
:1010500053442043617264206D6F756E7465642023
:10106000617420303A2F000010B50248FFF784FA6F
:1010700010BD00000020001008B5012000900821DC
:101080000448FFF723FC08B1002000909DF8000001
:1010900008BD00000014014070B504462A2522480E
:1010A0000068032802D12725284670BD1E48006825
:1010B00038B11D480068012803D01B480068022889
:1010C00030D1B4F5805F02D127252846EDE7B4F58D
:1010D000006F15D10120FFF7B5FD05462A2D21D15E
:1010E00001201249087500200860486088604FF4AC
:1010F0000060C860002008610846FFF7BDFE11E0EF
:101100000020FFF79FFD05462A2D0BD1012007493E
:1011100008750020086048608860C860086108465B
:10112000FFF7AAFE2846C0E700020020E8050020DD
:1011300030B501462A200022AC4B1B7881F84E3096
:10114000AB4B1B88A1F84C30AA4B1B681A0E9309B5
:101150000B70C2F383034B7002F003038B70A54B3B
:101160001B68C3F30742CA70A24B1B88C3F3072254
:101170000A71A04B1A784A715B681A0E1301CB8072
:101180009C4B5B68C3F30742CB8843EA1213CB80C6
:1011900002F00F030B72974B9B88C3F30722D3090E
:1011A0004B72C2F380138B72C2F34013CB72C2F343
:1011B00000130B7300234B738C4B1B681BB18B4BC1
:1011C0001B68012B3CD193071B0D0B61894B1A79CE
:1011D0000B6943EA82030B61864B9B681A0E0B690D
:1011E00043EA92130B61C2F3C2030B7502F00703CB
:1011F0004B75804B9B68C3F3074253098B75C2F351
:101200008203CB7593075B0F0B767A4B1B89C3F375
:1012100007220B7E43EAD2130B760B695B1C4B64EF
:101220000C7E4B6CA41C0125A5406B434B640C7ACF
:101230000123A3408B64D1E9113463434B6421E063
:101240006A4B1B68022B1DD16A4B1A7993069B0AC5
:101250000B61684B9B681A0E0B6943EA02230B6112
:10126000644B9B68C3F307420B6913430B61614BEB
:101270001B89C3F307220B695B1CDB044B644FF42F
:1012800000738B64C2F3801301F8193F93065B0E61
:101290004B70584B1A7A4B7843EAD2134B7002F0DA
:1012A0007F038B70534BDB681A0ED309CB70C2F3EC
:1012B00041130B71C2F382034B7193071B0F8B71A8
:1012C0004C4BDB68C3F307428B7943EA92138B7173
:1012D000C2F34013CB7100230B7202F001034B7277
:1012E000444B9B89C3F30722D3098B72C2F380134B
:1012F000CB72C2F340130B73C2F300134B73C2F3F0
:1013000081038B7302F00303CB733A4B1A7B5308B0
:101310000B7401234B74384B1B681A0ECA741939AD
:10132000354B1B68C3F307421402CC85324B1B8834
:10133000C3F30722CB8D1343CB852F4B1A781406AA
:101340000C635B681A0E0B6B43EA02440C632A4B76
:101350005B68C3F307420B6B43EA02240C63264B22
:101360009B88C3F307220B6B13430B63224B1A7941
:1013700034235A54204B9B681A0E35235A541E4B63
:101380009B68C3F3074214068C631B4B1B89C3F392
:1013900007228B6B43EA02448C63174B1A7A8B6BE0
:1013A00043EA02248C63144BDB681A0E8B6B1343E5
:1013B0008B63114BDB68C3F307423C235B5C43EA5E
:1013C00012143C235C5413071C0DCC870A4B9B89D9
:1013D000C3F30722CB8F1343CB87074B1A7B5408E9
:1013E00040235C54012441235C5430BD00020020A2
:1013F0000402002078050020880500207CB5044602
:1014000001AA69460DA002F0FBFB054600230CA2D1
:101410001946FFF779FD68B901988078009948432B
:10142000C00A206001988069801E0199897848432C
:10143000C00A7CBD00202060FBE70000303A0000BD
:10144000436172642073697A6520776173206E6FDF
:10145000742064657465637465642E0010B52A2475
:1014600000F0D2F9FFF7B0FC00F000FA04462A2C95
:1014700001D0204610BD00F033F804462A2C01D0DC
:101480002046F7E7012014490875002008604860ED
:101490008860C86008610846FFF7EEFC2A2C03D17B
:1014A0000E48FFF745FE04462A2C06D10B49B1F839
:1014B0004C10080400F09EFE04462A2C04D14FF480
:1014C0000060FFF7E9FD04462A2C03D1002000F05C
:1014D000ABFE04462046CDE7E80500209805002035
:1014E00038B52A2401200090FFF79EFC10B925246E
:1014F000204638BD45480068042829D000204449CA
:10150000086002204860C02088600020C8604FF456
:10151000806008610846FFF7CDFCFEF75DFF0446DA
:101520002A2C01D02046E4E70020FFF785FC39494A
:1015300008600420FFF780FC364948600820FFF768
:101540007BFC344988600C20FFF776FC3149C86089
:101550002E48006858B12D480068012807D02B4854
:101560000068062803D029480068022817D1002007
:101570002749086003204860402088600020C86038
:101580004FF4806008610846FFF794FC6946032029
:10159000FEF764FF04462A2C01D02046A9E71B4829
:1015A000006804282FD0BDF800001B490860BDF872
:1015B000000000041649086009204860C0208860C7
:1015C0000020C8604FF4806008610846FFF772FC95
:1015D000FEF702FF04462A2C01D0204689E70020AE
:1015E000FFF72AFC0D4908600420FFF725FC0B4992
:1015F00048600820FFF720FC084988600C20FFF7AE
:101600001BFC0649C8602A24204672E7000200201D
:101610000006002088050020040200207805002034
:101620002DE9F04391B004460F462D480F904FF43A
:10163000807010902146684602F082FB8146234666
:1016400028A20021FFF760FC0646002E45D1204667
:10165000FEF78AFD05463EE009A9684602F0ACFBAC
:10166000064616B99DF82D0000B935E09DF82D000D
:101670002E2800D12FE00F98007808B10F9801E0D4
:101680000DF12D0080469DF82C0000F01000E0B117
:101690004046FEF769FD691C0844B84206D318A00D
:1016A00001F04EFB022011B0BDE8F0836019424604
:1016B00020A101F055FB39462046FFF7B1FF064651
:1016C00006B109E00020605504E0424621461AA018
:1016D00001F036FB00BFBFE700BF3046E3E7000084
:1016E00078040020436F756C64206E6F74206F70F7
:1016F000656E206469726563746F72792E000000F4
:101700005061746820627566666572206973207422
:101710006F6F20736D616C6C2C2066696C65206C3A
:10172000697374696E672061626F727465642E0DEF
:101730000A0000002F25730025732F25730D0A0062
:1017400030B58BB005460C461348FEF7FBFE002172
:101750001248FEF705FF1248009001950020029004
:10176000A00803900020049080200590800006903F
:1017700080000790002008904FF40050099000204E
:101780000A9069460548FEF70DFF01210348FEF760
:10179000E7FE0BB030BD000000F000104404024032
:1017A0008080014030B58BB005460C461348FEF7EB
:1017B000C9FE00211248FEF7D3FE124800900195A1
:1017C00010200290A0080390002004908020059033
:1017D0008000069080000790002008904FF4005091
:1017E000099000200A9069460548FEF7DBFE0121BA
:1017F0000348FEF7B5FE0BB030BD000000F000104E
:10180000440402408080014008B501213020FFF7E8
:101810009FF94FF4F850ADF8000003208DF8020056
:1018200018208DF8030069460E48FEF7C4FF042017
:10183000ADF8000069460C48FEF7BDFF0820ADF882
:10184000000048208DF8030069460748FEF7B3FF03
:1018500001218802FFF76CF901210220FFF768F9E6
:1018600008BD000000100140001401402DE9F041C6
:101870002A240026002500274FF00008B2205B49EB
:1018800008750020086048608860C86008610846E4
:10189000FFF7F2FA0320FFF723FB0120FFF770FAAE
:1018A00000205349086048608860C8604FF4806039
:1018B00008610846FFF7FEFAFEF7DEFC04462A2C14
:1018C00002D02046BDE8F0814FF4D5704849086049
:1018D00008204860402088600020C8604FF4806085
:1018E00008610846FFF7E6FAFEF706FE04462A2CD2
:1018F00005D101203F4908604FF0804812E00020E8
:101900003B49086037204860402088600020C8605C
:101910004FF4806008610846FFF7CCFA3720FEF7E5
:10192000C1FC04460020324908603720486040204E
:1019300088600020C8604FF4806008610846FFF7A7
:10194000B9FA3720FEF7AEFC04462A2C4CD138E019
:101950000020274908603720486040208860002028
:10196000C8604FF4806008610846FFF7A3FA37208B
:10197000FEF798FC04462A2C01D02046A2E71E4818
:1019800048EA00001A490860292048604020886021
:101990000020C8604FF4806008610846FFF78AFAAB
:1019A000FEF740FD04462A2C01D020468AE700209D
:1019B000FFF742FA0646012080EAD67080F0010760
:1019C0006D1C1FB94FF6FF708542C1D34FF6FF70F3
:1019D000854202D31B24204674E706F080400600AF
:1019E00002D002200349086020466BE7E80500208A
:1019F00000060020000200200000108038B5002002
:101A000000906846FFF7FAFC044624B1214602A084
:101A1000009A01F095F938BD256C75204D4220746F
:101A20006F74616C2028256C75204D4220617661B1
:101A3000696C61626C65290D0A00000070B50024B4
:101A4000002588480068012867D1C003FFF7E0F946
:101A5000A8B100BF06E0FFF727FA8349096841F8FB
:101A60002400641C082CF6D37F48006820307E498F
:101A700008607E48006820307C4908604DE04FF4E3
:101A80008040FFF7C5F9002847D0794800687749BA
:101A90000968401A20282BD27548007873490968D4
:101AA000401A00F0030030B9714800686F490968B6
:101AB000401A800806E06E4800686C490968401AC0
:101AC0008008401C054600240FE06A490968086840
:101AD000FFF714FA641C67480068001D6549086038
:101AE00062480068001D61490860AC42EDD314E013
:101AF000002406E05F49096851F82400FFF7FEF969
:101B0000641C082CF6D35B480068203059490860F3
:101B1000564800682030554908604FF48070FFF740
:101B200077F9D8B34F480068D0B10EE0FFF7BCF9A1
:101B30004D49096808604C480068001D4A49086022
:101B40004A480068001D494908604FF40010FFF73B
:101B500053F928B145480068454909688842E5D3EA
:101B600045480068012804D100F06CFB4349087027
:101B700002E02A20414908704FF48070FFF7FAF81C
:101B800000214CF23A30FFF767F901203C49086028
:101B90000020364908603948007870BDFFE7022010
:101BA000FFF736F970B10220FFF7E4F800214CF29C
:101BB0003A30FFF751F900202C49086002202F49E4
:101BC0000870EAE70820FFF723F970B10820FFF753
:101BD000D1F800214CF23A30FFF73EF900202349BA
:101BE0000860042025490870D7E72020FFF710F986
:101BF00070B12020FFF7BEF800214CF23A30FFF719
:101C00002BF900201949086006201C490870C4E718
:101C10001020FFF7FDF870B11020FFF7ABF800219E
:101C20004CF23A30FFF718F90020104908600520FF
:101C300012490870B1E74FF40070FFF7E9F878B186
:101C40004FF40070FFF796F800214CF23A30FFF79E
:101C500003F90020054908600720084908709CE73F
:101C60002A209AE7080200201802002024020020FF
:101C70000C02002014020020100200201C02002090
:101C8000200200202DE9F04706460F4614464FF08B
:101C90002A084FF0000935464FF0000A26B94FF0E8
:101CA00026084046BDE8F0872A208A4908700020AF
:101CB000894908608949086089488A490860002084
:101CC00048608860C860086148610846FFF764F8AA
:101CD0000020FFF75BF80020FFF7AEF800F000707F
:101CE00018B14FF00E084046DCE77F480068022834
:101CF00001D104027F0A002C21DDB4F5006F1EDC47
:101D0000601E2040D8B9204601F0CAFB82467748C1
:101D10000460102075494860402088600020C86039
:101D20004FF4806008610846FFF7C4F81020FEF702
:101D3000B9FA8046B8F12A0F05D04046B2E74FF015
:101D400026084046AEE76648664908600846446093
:101D50004FEA0A1088600220C86000200861012054
:101D600048610846FFF718F85C48046000206049A5
:101D70000860604806605D48076011205B49486064
:101D8000402088600020C8604FF4806008610846E9
:101D9000FFF790F81120FEF785FA8046B8F12A0F78
:101DA00001D040467EE754480068022857D111E030
:101DB0004FF40040FFF720F860B14FF0000905E054
:101DC000FFF772F845F8290009F10109B9F1080F88
:101DD000F6D320354948406B40F22A61084000287C
:101DE000E6D00820FFF708F830B10820FEF7BCFF66
:101DF0004FF00408404655E70220FEF7FDFF30B1E2
:101E00000220FEF7B1FF4FF0020840464AE72020CB
:101E1000FEF7F2FF30B12020FEF7A6FF4FF00608D4
:101E200040463FE74FF40070FEF7E6FF38B14FF44D
:101E30000070FEF799FF4FF00708404632E703E0D5
:101E4000FFF732F828602D1D4FF40010FEF7D4FF85
:101E50000028F5D140F2FF50FEF786FF38E0264813
:101E60000068012813D1012148F22A30FEF7F4FF5F
:101E700000BF1948006818B9164800782A28F8D019
:101E8000144800782A2823D0124800780AE71A4814
:101E90000068E8B9012140F22A30FEF7DDFF012099
:101EA000FEF774FF21463046FFF74AFC00BFFFF7FC
:101EB000DBF830B90848006818B9064800782A28C5
:101EC000F5D0044800782A2802D002480078E9E6D4
:101ED0004046E7E61C020020200200200C02002001
:101EE000FFFF0F0014060020000200200006002063
:101EF000100200201802002008020020008001408B
:101F00002DE9F05F0746894614461D464FF02A0822
:101F10004FF0000A3E464FF0000B27B94FF026085D
:101F20004046BDE8F09F2A20A74908700020A74935
:101F30000860A7490860A748A749086000204860D2
:101F40008860C860086148610846FEF725FF0020E8
:101F5000FEF71CFF0020FEF76FFF00F0007018B1C5
:101F60004FF00E084046DCE79C480068022802D18A
:101F700004024FEA5929002C21DDB4F5006F1EDC64
:101F8000601E2040D8B9204601F08AFA8346944862
:101F90000460102092494860402088600020C8609A
:101FA0004FF4806008610846FEF784FF1020FEF7BA
:101FB00079F98046B8F12A0F05D04046B1E74FF0D5
:101FC00026084046ADE7012D70D905FB04F0B0F1BD
:101FD000007F03D34FF026084046A2E705FB04F03C
:101FE0007B49086001207F4908607F480760794885
:101FF0007949086005FB04F048604FEA0B108860DF
:102000000220C86000200861012048610846FEF7F0
:10201000C3FE7348C0F80090122071494860402008
:1020200088600020C8604FF4806008610846FEF7B1
:1020300041FF1220FEF736F98046B8F12A0F01D091
:1020400040466EE76948006802287BD111E04FF4F2
:102050000040FEF7D1FE60B14FF0000A05E0FEF748
:1020600023FF46F82A000AF1010ABAF1080FF6D355
:1020700020365F48406B40F22A3108400028E6D005
:102080000820FEF7B9FE30B10820FEF76DFE4FF0D4
:102090000408404645E70220FEF7AEFE38B10220B4
:1020A000FEF762FE4FF0020840463AE78AE0202041
:1020B000FEF7A2FE30B12020FEF756FE4FF00608D4
:1020C00040462EE74FF40070FEF796FE38B14FF40D
:1020D0000070FEF749FE4FF00708404621E703E095
:1020E000FEF7E2FE3060361D4FF40010FEF784FE6E
:1020F0000028F5D14FF48070FEF77EFE18B3374804
:10210000006838B135480068022803D033480068B9
:10211000012818D10020324908600C204860402076
:1021200088600020C8604FF4806008610846FEF7B0
:10213000C1FE0C20FEF7B6F88046B8F12A0F02D097
:102140004046EEE604E040F2FF50FEF70DFE39E0B7
:1021500026480068012813D1012148F22A30FEF7F1
:102160007BFE00BF1948006818B9174800782A2874
:10217000F8D0154800782A2824D013480078D0E6F3
:102180001A480068F0B9012140F22A30FEF764FED7
:102190000120FEF7FBFD05FB04F13846FFF7D0FAFE
:1021A00000BFFEF761FF30B90848006818B906485B
:1021B00000782A28F5D0044800782A2802D002485E
:1021C0000078AEE64046ACE61C020020200200206B
:1021D0000C020020FFFF0F00140600200002002068
:1021E0000006002010020020180200200802002033
:1021F0000080014070B504462A250A480460072083
:1022000008494860402088600020C8604FF4806022
:1022100008610846FEF74EFE0720FEF743F8054624
:10222000284670BD0006002001462A2019B1012968
:1022300001D0022902D1024A116000E02620704735
:102240000802002010B52A2400200A4908600C204A
:102250004860402088600020C8604FF480600861BA
:102260000846FEF727FE0C20FEF71CF80446204621
:1022700010BD0000000600202DE9FF5F81468A4660
:1022800014462A25002003900290834600260190E0
:1022900000270090C846B9F1000F04D12625284632
:1022A00004B0BDE8F09F2A20C24908700020C2494E
:1022B0000860C2490860C248C249086000204860FE
:1022C0008860C860086148610846FEF765FD002027
:1022D000FEF75CFD0020FEF7AFFD00F0007010B1CE
:1022E0000E252846DCE7B8480068022802D104021F
:1022F0004FEA5A2A002C20DDB4F5006F1DDC601E69
:102300002040D0B9204601F0CBF80390AF480460DC
:102310001020AE494860402088600020C8604FF41B
:10232000806008610846FEF7C5FD1020FDF7BAFF82
:1023300005462A2D04D02846B2E726252846AFE7D1
:10234000A34800880004A14908600D20486040208F
:1023500088600020C8604FF4806008610846FEF77E
:10236000A9FD0D20FDF79EFF05462A2D01D0284628
:1023700096E70020FEF760FD0190DFF844B21EE012
:10238000ABF1010B924800880004904908600D20D1
:102390004860402088600020C8604FF48060086179
:1023A0000846FEF787FD0D20FDF77CFF05462A2D28
:1023B00001D0284674E70020FEF73EFD0190019809
:1023C00000F4807010B9BBF1000FD9D1BBF1000F40
:1023D00001D1292064E77D48C0F800A018207B497E
:1023E0004860402088600020C8604FF48060086129
:1023F0000846FEF75FFD1820FDF754FF05462A2D1D
:1024000001D028464CE76D480460002071490860FF
:102410007148C0F800906A486A49086008464460FC
:102420000398000188600020C860086101204861AD
:102430000846FEF7B1FC69480068022866D134E01E
:102440004FF48040FEF7D8FC78B35C480068801BEE
:1024500020281ED259480078801B00F0030020B9C4
:1024600056480068801B800804E054480068801BC0
:102470008008401C0090002707E0D8F80000FEF715
:102480003DFD7F1C08F10408361D009887420CD2E0
:10249000F3E7002704E058F82700FEF72FFD7F1C24
:1024A000082FF8D308F1200820364D48406B40F241
:1024B0001A6108400028C3D00820FEF79DFC28B10F
:1024C0000820FEF751FC04252846E9E60220FEF725
:1024D00093FC28B10220FEF747FC02252846DFE6E0
:1024E0001020FEF789FC28B11020FEF73DFC0525E1
:1024F0002846D5E64FF40070FEF77EFCF0B34FF4AB
:102500000070FEF731FC07252846C9E6334800680D
:10251000012813D1012144F21A30FEF79DFC00BFBF
:102520002548006818B9234800782A28F8D021489F
:1025300000782A2825D01F480078B1E6274800688F
:10254000E0B9012140F21A30FEF786FC21464846E8
:10255000FFF728F90120FEF719FC00BFFEF784FD04
:1025600030B91548006818B9124800782A28F5D003
:10257000104800782A2804D00E4800E001E00078D6
:102580008EE640F2FF50FEF7EFFB02A8FEF7AAF935
:10259000054603E002A8FEF7A5F905462A2D07D156
:1025A0009DF808000728F5D09DF808000628F1D00E
:1025B000284675E61C020020200200200C020020A4
:1025C000FFFF0F001406002000020020000600207C
:1025D0000402002010020020140200200802002043
:1025E000008001402DE9FE4F81468A4614461E4672
:1025F0002A254FF0000B0020029000270190C846CA
:102600000090B9F1000F03D126252846BDE8FE8FC2
:102610002A20EC4908700020EB490860EB4908606B
:10262000EB48EC490860002048608860C860086199
:1026300048610846FEF7B0FB0020FEF7A7FB00202C
:10264000FEF7FAFB00F0007010B10E252846DDE71A
:10265000E1480068022802D104024FEA5A2A002CFD
:1026600020DDB4F5006F1DDC601E2040D0B920468F
:1026700000F016FF8346D94804601020D74948600F
:10268000402088600020C8604FF4806008610846E0
:10269000FEF710FC1020FDF705FE05462A2D04D09C
:1026A0002846B3E726252846B0E7CD480088000431
:1026B000CA4908600D204860402088600020C8603A
:1026C0004FF4806008610846FEF7F4FB0D20FDF72B
:1026D000E9FD05462A2D01D0284697E7012E7AD933
:1026E00006FB04F0B0F1007F02D3262528468DE7D3
:1026F000B948006838B1B8480068012803D0B64826
:10270000006802282FD1B64800880004B349086049
:1027100037204860402088600020C8604FF4806007
:1027200008610846FEF7C6FB3720FDF7BBFD0546EE
:102730002A2D01D0284669E7A84806601720A74936
:102740004860402088600020C8604FF480600861C5
:102750000846FEF7AFFB1720FDF7A4FD05462A2D1E
:1027600001D0284652E79D48C0F800A019209B4997
:102770004860402088600020C8604FF48060086195
:102780000846FEF797FB1920FDF78CFD05462A2D1C
:1027900001D028463AE706FB04F08C490860012086
:1027A000904908609048C0F80090894889490860BD
:1027B00006FB04F048604FEA0B1088600020C860F8
:1027C0000861012048610846FEF7E6FA874800687C
:1027D000022870D13EE0D1E04FF48040FEF70CFBC0
:1027E000C0B37A480068C01B202811D30020009095
:1027F00007E0009958F82100FEF780FB0098401C84
:10280000009000980828F4D308F12008203721E030
:102810006E480078C01B00F0030020B96B480068C8
:10282000C01B800804E069480068C01B8008401C89
:1028300001900020009009E0D8F80000FEF75EFB50
:102840000098401C009008F104083F1DDDE90010CD
:102850008142F1D36648406B40F21A3108400028AB
:10286000BAD00820FEF7C8FA28B10820FEF77CFA93
:1028700004252846CAE60220FEF7BEFA28B1022047
:10288000FEF772FA02252846C0E61020FEF7B4FAD9
:1028900028B11020FEF768FA05252846B6E64FF461
:1028A0000070FEF7A9FA38B14FF40070FEF75CFA39
:1028B00007252846AAE627E04FF48070FEF79CFA29
:1028C00000285BD04448006838B1434800680128BC
:1028D00003D041480068022850D100203F490860D9
:1028E0000C204860402088600020C8604FF4806061
:1028F00008610846FEF7DEFA0C20FDF7D3FC05461A
:102900002A2D3BD0284681E638480068012813D19B
:10291000012144F21A30FEF79FFA00BF2A480068EE
:1029200018B9284800782A28F8D0264800782A289C
:1029300024D02448007869E62C480068F0B90121C9
:1029400040F21A30FEF788FA0120FEF71FFA06FB64
:1029500004F14846FEF726FF00BFFEF785FB30B9BD
:102960001948006818B9174800782A28F5D0154882
:1029700000782A2802D01348007847E640F2FF503A
:10298000FEF7F2F90020009002E00098401C009051
:102990004FF6FF7100988842F7D302A8FDF7A2FF17
:1029A000054603E002A8FDF79DFF05462A2D07D145
:1029B0009DF808000728F5D09DF808000628F1D0FA
:1029C000284623E61C020020200200200C020020E2
:1029D000FFFF0F0014060020000200200006002068
:1029E000040200201002002014020020080200202F
:1029F00000800140704710B500F002F810BD0000E3
:102A00000CB50020019000903348006840F48030FD
:102A10003149086000BF3048006800F40030009081
:102A20000198401C0190009818B90198B0F5A06F6A
:102A3000F1D12948006800F4003010B10120009065
:102A400001E0002000900098012843D1234800684D
:102A500040F01000214908600846006820F003009B
:102A600008600846006840F0020008601A484068A4
:102A7000194948600846406848600846406840F484
:102A8000806048600846406820F47C104860084632
:102A9000406840F4E81048600846006840F08070E4
:102AA000086000BF0C48006800F000700028F9D0F2
:102AB0000948406820F0030007494860084640681C
:102AC00040F00200486000BF0348406800F00C007E
:102AD0000828F9D10CBD000000100240002002407F
:102AE0007047000010B51348006840F0010011491C
:102AF000086008464068104908400E49486008468A
:102B000000680E4908400B4908600846006820F438
:102B1000802008600846406820F4FE0048604FF4BA
:102B20001F008860FFF767FF4FF0006004490860EE
:102B300010BD0000001002400000FFF8FFFFF6FE8D
:102B400008ED00E021B1828942F40052828104E064
:102B500082894DF6FF731A40828170471CB5044686
:102B600000200090034622464FF480410190024825
:102B700000F004F81CBD0000003801402DE9FF47BB
:102B800007460C4615461E46DDE90C8944F0040054
:102B90000121FDF7DDFF18224FF400711548FDF704
:102BA000EFFD042211021348FDF7EAFD0095ADF890
:102BB0000460ADF80680ADF808900C20ADF80A006E
:102BC0000020ADF80C006946384600F047F80122B5
:102BD00040F22551384600F01CF8012240F22771DE
:102BE000384600F016F801213846FFF7ABFFBDE884
:102BF000FF8700000008014002460020B1F5007F79
:102C000000D100BF13880B400BB1012000E0002071
:102C10007047F0B50346002400260025002040F64A
:102C20006A17B94200D100BF1846C1F3421401F03F
:102C30001F06012707FA06F5012C01D10C3004E02C
:102C4000022C01D1103000E014301AB107682F4374
:102C5000076002E00768AF430760F0BD2DE9F04769
:102C600086B005460E460024A24600BFA1460027B6
:102C7000B08900B100BF2F462C8A4CF6FF7004408B
:102C8000F08804432C82AC894EF6F3100440B088DF
:102C900031890843718908430443AC81AC8A4FF6FB
:102CA000FF400440B0890443AC8201A8FDF760FFF7
:102CB0001F48874202D1DDF810A001E0DDF80CA02A
:102CC000A88900F4004040B10AEBCA0000EB0A10EA
:102CD00031684900B0FBF1F807E00AEBCA0000EBED
:102CE0000A1031688900B0FBF1F86420B8FBF0F0FD
:102CF00004012009642101FB1089A88900F4004027
:102D000040B1322000EBC900B0FBF1F000F0070049
:102D1000044308E0322000EB09106421B0FBF1F01D
:102D200000F00F0004432C8106B0BDE8F0870000DE
:102D300000380140C1F308028280704700BFFEE7FF
:102D40000FB4054B10B503A9044A029800F02CF803
:102D500010BC5DF814FB0000E13E000844020020B6
:102D60000FB4084B10B504A902AA039800F01CF890
:102D7000044602A9002000F02DF9204610BC5DF8A1
:102D800014FB0000D52F000802E008C8121F08C17C
:102D9000002AFAD170477047002001E001C1121FDC
:102DA000002AFBD1704700002DE9FF4F8BB09A46F7
:102DB0000F460446002606E025280BD052460D9902
:102DC0009047641C761C20780028F5D10FB030465F
:102DD000BDE8F08F0025A94601227D4900E00543AA
:102DE00014F8013F203B02FA03F00842F7D12078A3
:102DF0002E2817D114F8010F45F004052A280ED00B
:102E00006FF02F022078A0F1300109290AD809EBD0
:102E1000890102EB410100EB0109641CF2E757F85C
:102E2000049B641C20786C280DD004DC4C2812D044
:102E30006A2811D104E074280DD07A280CD10AE058
:102E400045F4001507E0617845F48015814202D110
:102E5000641C05F58015641C207869283ED006DCCA
:102E60000028B3D063280BD0642804D136E073283F
:102E700010D075285CD052460D999047761CA5E07D
:102E800017F8040B8DF8000000208DF80100E846CB
:102E9000012003E057F8048B4FF0FF3069074FF033
:102EA000000501D40AE06D1C4D450DDA8542FADBC0
:102EB00018F805100029F6D106E06D1C8542FCDBF0
:102EC00018F805100029F8D12E4404E018F8010B79
:102ED00052460D9990476D1EF8D277E000200A9077
:102EE000C5F302504FF00A0B02280CD001CFC117D6
:102EF000021E71F100020CDA0023D0EB030063EB39
:102F000001012D2208E0FF1D27F00707F7E8020165
:102F1000EEE72A0504D52B228DF82420012203E0B8
:102F2000EA070FD02022F7E70DF12008089218E0F9
:102F300000200A90C5F302504FF00A0B022803D07C
:102F400001CF00210022EFE7FF1D27F00707F7E878
:102F50000201F7E75A460A9BFDF70DF9303208F8EF
:102F6000012D50EA0102F5D1ADEB080000F1200B74
:102F7000680701D44FF00109D94502DDA9EB0B0028
:102F800000E000208146002506E009A85246405D89
:102F90000D9990476D1C761C08988542F5DB04E07E
:102FA000302052460D999047761CB9F10001A9F1E5
:102FB0000109F5DC05E018F8010B52460D99904720
:102FC000761CBBF10001ABF1010BF4DC641CFAE6EA
:102FD000092801000A68531C0B601070704700003C
:102FE00070B504460D46607801232A4604F130018D
:102FF00000F08EFD08B1032070BD94F82E1294F8F5
:103000002F0241EA00204AF65521884201D00220D1
:10301000F2E794F86900010694F8680041EA00417B
:1030200094F8670041EA002094F86610084320F005
:103030007F400E49884201D10020DDE794F88500E9
:10304000010694F8840041EA004194F8830041EAC3
:10305000002094F88210084320F07F400349884202
:1030600001D10020C8E70120C6E700004641540016
:10307000024600E0521C107810B110788842F9D155
:10308000107870472DE9F74F86B0069800680090D9
:103090000098007830380590059809280AD80098DB
:1030A00040783A2806D10098801C00900699009834
:1030B000086001E000200590059818B10B2009B0C8
:1030C000BDE8F08FC749059851F820400798046083
:1030D0000CB90C20F3E7207878B1607800F04CFD53
:1030E000804608F0010040B9089820B108F00400BB
:1030F00008B10A20E3E70020E1E7002020700598EE
:103100006070607800F0EDFC804608F0010008B1C6
:103110000320D4E7089820B108F0040008B10A2081
:10312000CDE74FF0000A51462046FFF759FF05460C
:10313000012D13D104F5F777387978B1F87A0106C3
:10314000B87A41EA0041787A41EA0020397A40EAC7
:10315000010A51462046FFF743FF0546032D01D1E2
:103160000120ACE70DB10D20A9E73B20015D94F8EB
:103170003C0041EA0020B0F5007F01D00D209EE721
:103180004620015D94F8470041EA0029B9F1000F9B
:103190000ED194F85700010694F8560041EA004118
:1031A00094F8550041EA002094F8541040EA0109CF
:1031B000C4F81C904020065DE670012E03D0022E5C
:1031C00001D00D207BE709FB06F93D20005D064696
:1031D000A07016B1701E304008B10D206FE741207D
:1031E000015D94F8420041EA00202081207A00F03D
:1031F0000F0008B10D2062E74320015D94F8440000
:1032000041EA00200490049870B994F85300010634
:1032100094F8520041EA004194F8510041EA00203C
:1032200094F85010084304903E20015D94F83F004C
:1032300041EA00200190019808B90D203FE701986C
:103240004844218900EB11100390DDE9030181421C
:1032500001D20D2033E7DDE90310401AA178B0FB5D
:10326000F1FBBBF1000F01D10D2028E7012540F64D
:10327000F670834500D302254FF6F670834500D3E0
:1032800003250BF10200A06103985044A06201984D
:1032900050442062032D16D1208908B10D200EE77D
:1032A00094F85F00010694F85E0041EA004194F84A
:1032B0005D0041EA002094F85C1008436062A06958
:1032C0008000029014E0208908B90D20F7E6206AFA
:1032D00048446062022D02D1A069400007E0207ED0
:1032E00000F00100A16901EB410100EB51000290E7
:1032F000E169029800F2FF10B1EB502F01D20D20CE
:10330000DDE64FF0FF3020610020E060032D5CD14E
:10331000607194F8601094F8610041EA0020504414
:1033200060616078012304F13001626900F0F0FB14
:10333000F0BB94F82E1294F82F0241EA00204AF6CE
:103340005521884241D13320005D01063220005DC5
:1033500041EA00413120005D41EA002094F830103C
:1033600008432149884230D194F81702010694F8A5
:10337000160241EA004194F8150241EA002094F84F
:1033800014120843194988421FD194F81F020106FC
:1033900094F81E0241EA004194F81D0241EA00201F
:1033A00094F81C120843E06094F81B02010600E048
:1033B0000BE094F81A0241EA004194F8190241EA3C
:1033C000002094F8181208432061257008480088EE
:1033D000401C80B206490880E0800020E062207135
:1033E00000BF6CE6280200205252614172724161B6
:1033F0002C0200200246891E9069801E884201D856
:10340000002070479378906A01FB0300F9E7000001
:103410002DE9F04705460C46207800F0BF00401E1D
:1034200000EB800101EBC00600274FF0010800BF50
:103430001A48C05D205C1949C95D2144497840EAB9
:103440000129B8F1000F10D0484600F0ECFC80468E
:10345000FF2E07D23146761C35F8110000F0E3FC50
:10346000404508D00020BDE8F0874FF6FF70814549
:1034700001D00020F7E7781C07460D28D8D3207824
:1034800000F0400038B1B8F1000F04D035F8160054
:1034900008B10020E7E70120E5E70000F443000859
:1034A0000146002002E04910421CD0B20129FAD1A5
:1034B00070472DE9F04704468946B9F1000F06D15F
:1034C000E76817B1A069B84211D801270FE0494653
:1034D000204600F017FD0646022E02D20120BDE86C
:1034E000F087A069B04201D93046F8E74F463D4623
:1034F00000BF6D1CA069A84204D80225BD4201D9B5
:103500000020ECE72946204600F0FCFC064606B900
:1035100009E0701C08B1012E01D13046DFE7BD4241
:10352000E7D10020DBE700BF6FF07042294620465C
:1035300000F0A0FE8046B8F1000F08D1B9F1000FED
:1035400005D02A464946204600F094FE8046B8F150
:10355000000F09D1E5602069401C68B12069401E58
:1035600020610120607107E0B8F1010F02D14FF036
:10357000FF3000E0012005462846B0E72DE9F34F73
:1035800083B08146002005460746049800680190F4
:10359000D9F81CA000BF38467F1C01990C5C202C78
:1035A00003DB2F2C01D05C2C00D11CE0FF2D03D3BA
:1035B000062005B0BDE8F08FE4B20121204600F0FE
:1035C0002BFC04460CB90620F3E7802C06DA2146D2
:1035D0006AA0FFF74DFD08B10620EAE728466D1CFA
:1035E0002AF81040D7E700BF0198C119049801607C
:1035F000202C01DA042000E00020064608E0681EC6
:103600003AF81040202C02D02E2C00D002E06D1E83
:10361000002DF4D100BF0DB90620CAE700202AF81A
:1036200015000B222021D9F8180000F0A6FD002774
:1036300000E07F1C3AF817002028FAD03AF817006B
:103640002E28F6D00FB146F0030600E06D1E25B11E
:10365000681E3AF810002E28F8D14FF00008CDF877
:1036600008804FF0080B00BF38467F1C3AF8104026
:1036700004B954E0202C03D02E2C04D1AF4202D048
:1036800046F00306F0E70298584501D2AF4216D142
:10369000BBF10B0F02D146F0030640E0AF4201D070
:1036A00046F00306AF4200D939E02F4608200290C9
:1036B0004FF00B0B4FEA88604FEA1068D4E7802C7C
:1036C0000BDB0021204600F0A7FB04461CB1A4F14F
:1036D00080002D490C5C46F0020600BF24B1214653
:1036E0002AA0FFF7C5FC18B15F2446F003060FE0DF
:1036F000412C04DB5A2C02DC48F0020808E0612C63
:1037000006DB7A2C04DC48F00108A4F1200084B226
:10371000D9F818300298411C02911C54A4E700BF4C
:10372000D9F818000078E52803D10520D9F8181039
:103730000870BBF1080F03D14FEA88604FEA1068A8
:1037400008F00C000C2803D008F00300032801D176
:1037500046F0020606F0020058B908F003000128FE
:1037600001D146F0100608F00C00042801D146F003
:103770000806D9F81800C67200201AE7222A3A3C37
:103780003E3F7C7F00000000014400082B2C3B3DA5
:103790005B5D00002DE9F04704460021204600F063
:1037A00052F9074617B13846BDE8F0874FF0FF09D8
:1037B000CA4600BF2169206800F0E9FC074607B14E
:1037C00054E065692E780EB904274FE0E87A00F0DE
:1037D0003F08E52E05D008F0080028B1B8F10F0F1A
:1037E00002D04FF0FF093AE0B8F10F0F1CD1E069A9
:1037F000A0B306F0400030B195F80DA006F0BF066A
:10380000B146E08820844E450AD1687B504507D1F7
:103810002946E069FFF7FCFD10B1A9F1010000E0C5
:10382000FF2000F0FF091AE0B9F1000F05D128468A
:1038300000F0BBFD504500D118E04FF0FF094FF6F6
:10384000FF702084A069C07A00F0010030B90B221B
:103850002846A16900F07EFC00B907E0FFE70021DF
:10386000204600F006F80746002FA3D000BF3846D8
:103870009AE72DE9F04104468846E088401C86B26C
:103880000EB1206910B90420BDE8F08106F00F00E8
:1038900000286FD12069401C2061E06828B92068A9
:1038A0000089B04266DC0420EEE720688078401E84
:1038B00000EA161000285DD1E168206800F022FBC4
:1038C0000546012D01D80220DEE7681C08B9012059
:1038D000DAE720688069A84246D8B8F1000F01D124
:1038E0000420D1E7E1682068FFF7E3FD05460DB944
:1038F0000720C9E7012D01D10220C5E7681C08B9DE
:103900000120C1E70021206800F041FC08B101203E
:10391000BAE7216801F130004FF40072002100F095
:103920002CFC29462068FFF765FD2168C862002746
:1039300010E00120216808710021206800F027FCB8
:1039400008B10120A0E72068C06A401C2168C86255
:10395000781CC7B220688078B842EADC2068C06A68
:10396000C01B2168C86200BFE56029462068FFF7D8
:1039700041FD2061E6802068303006F00F0100EB49
:103980004110606100207FE72DE9F04704464FF0C9
:10399000FF09CA4604274CE02169206800F0F7FBC4
:1039A000074607B148E0666935780DB9042743E05A
:1039B000F07A00F03F08E52D07D02E2D05D008F055
:1039C000080028B1B8F10F0F02D04FF0FF0929E02D
:1039D000B8F10F0F1AD105F0400030B196F80DA0E4
:1039E00005F0BF05A946E08820844D450AD1707BCB
:1039F000504507D13146E06900F002FC10B1A9F151
:103A0000010000E0FF2000F0FF090BE0B9F1000F1A
:103A100004D1304600F0C9FC504502D04FF6FF708B
:103A2000208409E000212046FFF723FF074607B165
:103A300002E020690028AFD100BF0FB10020206153
:103A40003846BDE8F0872DE9F04104460E46E68091
:103A5000A568012D03D020688069A84202D8022001
:103A6000BDE8F0812DB920680078032801D12068D5
:103A7000456A65B9E56020680089B04201DC022032
:103A8000EEE72068406A00EB1610206120E0206815
:103A90008078070112E02946206800F033FA0546D5
:103AA000681C08B90120DBE7022D03D32068806978
:103AB000A84201D80220D3E7F01B86B2BE42EADA60
:103AC000E56029462068FFF795FC00EB16102061A1
:103AD0002068303006F00F0100EB411060610020DB
:103AE000BEE770B5054625B1012D0BD0022D0DD1D5
:103AF0000AE0FDF7B3FC04462A2C01D1002070BD7A
:103B00000120FCE70120FAE70120F8E70120F6E7B1
:103B10002DE9F0410746884615461E4616B9042091
:103B2000BDE8F08127B1012F1ED0022F1ED11CE06D
:103B3000012E09D10F48B0F8480082B26902404610
:103B4000FEF7A0F8044609E00A48B0F8480082B23F
:103B5000690233464046FEF7D3F904462A2C01D1C8
:103B60000020DDE70120DBE701E000E000BF00BF4F
:103B70000120D5E798050020014621B1012904D094
:103B8000022906D103E0002070470020FCE7002056
:103B9000FAE700BF00BF0120F6E700002DE9F04181
:103BA0000746884615461E4616B90420BDE8F08132
:103BB00017B1022F1DD11BE0012E09D10F48B0F81B
:103BC000480082B269024046FEF756FB044609E00F
:103BD0000A48B0F8480082B2690233464046FEF710
:103BE00001FD04462A2C01D10020DFE70120DDE79A
:103BF00000E000BF00BF0120D8E7000098050020CA
:103C00002DE9F74F82B08B4614460022214602A8C8
:103C1000FFF738FA01900198002877D120680169F0
:103C20008069801E814204D820680069CBF80000BA
:103C30006CE0206890F800A00026BAF1010F1DD1B9
:103C4000022700BF3946206800F05CF9804608F181
:103C5000010010B9012001900FE0B8F1010F02D16D
:103C60000220019009E0B8F1000F00D1761C781C09
:103C70000746216889698842E4D33DE02068876966
:103C80002068006A00904FF00009002500BFB9F1DC
:103C9000000F0FD1009A531C11460093206800F0CA
:103CA00076FA0190019800B125E0206800F1300516
:103CB0004FF40079BAF1020F09D12878697840EA07
:103CC000012000B9761CAD1CA9F1020910E0E878CA
:103CD0000006A97840EA0140697840EA0120297885
:103CE000084320F0704000B9761C2D1DA9F104098D
:103CF000781E0700CBD100BF20680661BAF1030F20
:103D000002D1012021684871CBF80060019805B00C
:103D1000BDE8F08F0246012A01DB0B2070470748FF
:103D200050F822300BB10020187009B10020087043
:103D3000024840F822100020F0E70000280200208E
:103D400033B583B004460022214604A8FFF79AF950
:103D500005465DBBC4F818D01648E06120460499BA
:103D600000F06EF80546F5B9606998B16069C07AEF
:103D700000F0100068B16069817EC07E41EA0021D8
:103D80006069027D407D42EA002041EA0040A06077
:103D900000E005253DB92068C088A08000212046AC
:103DA000FFF751FE0546042D00D10525284605B034
:103DB00030BD00002C060020FEB504460E46A1884A
:103DC000206800F002FB054615BB2EB900212046F5
:103DD000FFF739FE05461BE0C4F818D00D48E06136
:103DE0002046FFF7D1FD0546042D02D100202061B9
:103DF00000256DB93146204600F0F6F80021204636
:103E0000FFF737FD0546042D02D100202061002573
:103E10002846FEBD2C0600200246802A01DA104604
:103E200070470020FCE70146802907DA612903DB9F
:103E30007A2901DC21F02001084670470020FCE7C8
:103E40002DE9F3410446019800782F2803D001980A
:103E500000785C2802D10198401C01900020A060ED
:103E600001980078202807D200212046FFF7EBFDBB
:103E70000646002060612FE000BF01A92046FFF741
:103E80007DFB064606B126E02046FFF783FC06468A
:103E9000A069C77A46B1042E00D01CE000BF07F02D
:103EA000040000B9052616E007F0040000B112E096
:103EB0006569E87A00F0100008B905260BE0A97ED4
:103EC000E87E41EA00212A7D687D42EA002041EA3D
:103ED0000040A060D1E700BF3046BDE8FC81000093
:103EE00070B504460D46E1B20548FEF723FF00BF5A
:103EF00040210348FEF780FE0028F9D0204670BD1F
:103F0000003801402DE9F04105460C46022C02D351
:103F1000A869A04202D80120BDE8F08128780128D4
:103F200004D002282CD003285AD13DE0274607EBC5
:103F30005707286A00EB5721284600F028F900B1FE
:103F40004EE0C7F3080105F1300010F801807F1C36
:103F5000286A00EB5721284600F019F900B13FE02C
:103F6000C7F3080105F13000405C48EA002804F07E
:103F7000010010B14FEA1810CEE7C8F30B00CBE7F1
:103F8000286A00EB1421284600F001F900B127E06F
:103F900040F2FF1000EA440105F130000E183078BD
:103FA000717840EA0120B7E7286A00EBD41128466F
:103FB00000F0EDF800B113E040F2FF1000EA8401D8
:103FC00005F130000E18F0780006B17840EA0140A3
:103FD000717840EA01203178084320F070409BE777
:103FE00000BF4FF0FF3097E72DE9FC5F81460E469A
:103FF00006F10908D9F81000002851D0D9F814406A
:10400000207B0190002714E0E55D202D00D112E017
:10401000052D00D1E525019800F0080030B1412DB3
:1040200004DB5A2D02DC05F12000C5B208F8015B63
:104030007F1C082FE8D300BF207A202819D02E201B
:1040400008F8010B082711E0E55D202D00D10FE0F5
:10405000019800F0100030B1412D04DB5A2D02DC34
:1040600005F12000C5B208F8015B7F1C0B2FEBD3D4
:1040700000BFE07A3072E07F0106A07F41EA004194
:10408000607F41EA0020217F08433060217E607E0E
:1040900041EA0020B080A17DE07D41EA0020F0806F
:1040A000002088F80000B06980B3F06970B3B0698F
:1040B00000900027D9F8100020B3B9F820004FF67F
:1040C000FF7188421ED0D9F81CB015E0002150467F
:1040D000FFF7A2FE8246BAF1000F01D1002710E0DF
:1040E00000BFF069401EB84201D8002709E03846F9
:1040F0007F1C009901F800A03BF8021B5FEA010A4F
:10410000E4D100BF00210098C15500BFBDE8FC9F6D
:104110004FF4E130FEF722FD06A0FEF711FEFCF79A
:1041200025FF4FF400710A48FDF77AFAFDF766FCA7
:1041300000BFFEE70D0A446574656374696E67200D
:1041400053442043617264202E2E2E0D0A0000007D
:1041500000000020F0B503461C460D46002000BFBD
:104160001600A2F1010207D014F8017B15F801CB6B
:10417000A7EB0C063000F3D0F0BD30B5034601E0EC
:1041800003F8011B1400A2F10102F9D130BD2DE9A1
:10419000F04104460D46E66AAE422FD0207908B3BE
:1041A00060780123324604F13001FFF7F7FC10B1CB
:1041B0000120BDE8F08100202071D4E907100844F7
:1041C000B0420FD9E7780AE0E0690644607801233D
:1041D000324604F13001FFF7E1FC781EC7B2012F2F
:1041E000F2DC00BF55B1607801232A4604F13001AA
:1041F000FFF78EFC08B10120DBE7E5620020D8E77D
:10420000F0B50346087800F03F00401E00EB800741
:1042100007EBC0020025012600BF1548405D085C81
:10422000134F7F5D0F447F7840EA07244EB1FF2A89
:1042300001D30020F0BD26461046521C23F8104042
:1042400005E04FF6FF70844201D00020F2E7681CC1
:1042500005460D28E1D3087800F0400030B1FF2A70
:1042600001D30020E6E7002023F812000120E1E757
:10427000F44300082DE9F04705460E461746022E86
:1042800002D3A869B04202D84FF002088AE0287829
:10429000012804D0022841D003287DD154E0B14642
:1042A00009EB5909286A00EB59212846FFF76FFFEF
:1042B0008046B8F1000F00D071E0C9F3080105F1A4
:1042C00030000C1806F0010020B1F9B2207861F33B
:1042D0001F1000E03846207009F101090120287103
:1042E000286A00EB59212846FFF751FF8046B8F1B4
:1042F000000F00D053E0C9F3080105F130000C189D
:1043000006F0010010B1C7F3071005E0207800F0B7
:10431000F000C7F303210843207040E0286A00EB57
:1043200016212846FFF733FF8046B8F1000F00D072
:1043300035E040F2FF1000EA460105F130000C18AC
:104340002770380A60702AE0286A00EBD6112846E8
:10435000FFF71DFF8046B8F1000F00D01FE040F2CC
:10436000FF1000EA860105F130000C18E078000625
:10437000A17840EA0140617840EA012021780843B1
:1043800000F0704007432770380A6070380CA07046
:10439000380EE07003E0FFE74FF0020800BF00BFF7
:1043A000012028714046BDE8F08730B50146002065
:1043B0000B2200BF431003EBC01411F8015B63191B
:1043C000D8B2531E1A00F5D130BD70B504460D4663
:1043D00024B1207810B1E088A84201D0092070BD36
:1043E0006078FFF7C9FB00F0010008B10320F6E791
:1043F0000020F4E701030507090E10121416181C1B
:104400001E808182838485868788898A8B8C8D8EA5
:104410008F909192939495969798998A9B8C8D8E74
:104420008FA0A1A2A3A4A5A6A7A8A9AAABACADAE34
:10443000AFB0B1B2A3B4B5B6B7B8A5AABBBCBDBC4A
:10444000AFC0C1C2C3C4C5C6C7C8C9CACBCCCDCE14
:10445000CFD0D1D2D3D4D5D6D7D8D9DADBDCDDDEF4
:10446000DFC0C1C2C3C4C5C6C7C8C9CACBCCCDCEC4
:10447000CFD0D1D2D3D4D5D6F7D8D9DADBDCDDDEB4
:10448000FF00000400020001800040002000100036
:10449000080004000200000000800040002000101E
:1044A0000008004000200010000800040002000086
:1044B000D044000800000020480200003A02000832
:1044C000F044000848020020E8090000982D000888
:1044D00003FF303A01FFB102140202162A701101E3
:1044E0000203040102030406070809020406080087
:0400000508000131BD
:00000001FF
