:020000040800F2
:10000000D0BE0020450100088D8200087134000830
:10001000898200085704000889BC0008000000001D
:10002000000000000000000000000000A5B700086C
:10003000C507000800000000D7010008A9B80008A3
:100040005F0100085F0100085F0100085F01000810
:100050005F0100085F0100085F0100085F01000800
:100060005F0100085F0100085F0100085F010008F0
:100070005F0100085F0100085F0100085F010008E0
:100080005F0100085F0100085F0100085F010008D0
:100090005F0100085F0100085F0100085F010008C0
:1000A0005F0100085F0100085F0100085F010008B0
:1000B0005F0100085F0100085F0100085F010008A0
:1000C0005F0100085F0100085F0100085F01000890
:1000D0005F0100088DBA00085F0100085F01000899
:1000E0005F0100085F0100085F0100085F01000870
:1000F0005F0100085F0100085F0100085F01000860
:100100005F010008199C00085F0100085F010008FA
:100110005F0100085F0100085F0100085F0100083F
:100120005F0100085F0100085F0100085F0100082F
:10013000DFF80CD000F010F9004800474DFB000834
:10014000D0BE00200648804706480047FEE7FEE78D
:10015000FEE7FEE7FEE7FEE7FEE7FEE7FEE7FEE777
:10016000D1B800083101000872B6704762B6704716
:10017000EFF3108072B6704780F310887047B0FAC2
:1001800080F0704790FAA0F0704730BF704720BFF2
:1001900070470000EFF3108072B6704780F310884C
:1001A00070471D484FF0FF010170002080F309885F
:1001B0001A48012101701A484FF08051016062B65F
:1001C000FEE717484FF080510160704714484FF028
:1001D00080510160704772B6EFF3098028B1203872
:1001E00080E8F00F0F490968086000B50E488047A5
:1001F0005DF804EB0D480E490A78027009480D4974
:100200000A680260106890E8F00F203080F30988D7
:100210004EF0040E62B6704722ED00E0710000203F
:1002200004ED00E078000020D78A00086600002076
:10023000670000208000002010B5431A934209D2C5
:100240008318881803E010F8011D03F8011D521EE1
:10025000F9D210BD40EA01039B0703D009E008C9A9
:10026000121F08C0042AFAD203E011F8013B00F87B
:10027000013B521EF9D210BDD2B201E000F8012BB1
:10028000491EFBD270470022F6E710B513460A4616
:1002900004461946FFF7F0FF204610BD30B504466E
:1002A0000020034600E05B1C934203D2E05CCD5C7F
:1002B000401BF8D030BD2DE9F05F05460020924686
:1002C0009B4688460646814640241BE02846414618
:1002D0004746224600F02FF853465A46C01A91412D
:1002E00010D311461846224600F016F82D1A67EB77
:1002F00001084F4622460120002100F00DF817EBBF
:1003000000094E41201EA4F10104DFDC48463146BD
:100310002A464346BDE8F09F202A04DB203A00FA33
:1003200002F1002070479140C2F1200320FA03F34C
:10033000194390407047202A04DB203A21FA02F04A
:100340000021704721FA02F3D040C2F1200291400F
:100350000843194670470000064C074D06E0E06868
:1003600040F0010394E8070098471034AC42F6D3FC
:10037000FFF7E2FE780A0108980A010870B58C18A8
:1003800010F8015B15F0070301D110F8013B2A11A9
:1003900006D110F8012B03E010F8016B01F8016B96
:1003A0005B1EF9D12B0705D40023521E0DD401F892
:1003B000013BFAE710F8013BCB1A921C03E013F85B
:1003C000015B01F8015B521EF9D5A142D8D3002090
:1003D00070BD000000B585B00121080309F02AF9BD
:1003E000002114480BF0A6F90020ADF800004FF4EE
:1003F0008270ADF802000020ADF80400ADF80600F0
:10040000ADF808004FF40070ADF80A002820ADF8F0
:100410000C000020ADF80E000720ADF81000694672
:1004200004480BF0A1F9012102480BF083F905B053
:1004300000BD00000030014010B54FF4E1300BF07A
:1004400033FB0BF017FB0BF0C5FA10BD704770477C
:1004500070477047704700BFFEE770B52A254FF41C
:10046000803400E0641E24B1802009F0A9FB00283C
:10047000F8D014B90325284670BD40F2FF5009F0AA
:1004800057FB2846F8E700002DE9F04106462A27E9
:100490004848456B01E04748456B05F0450000289A
:1004A000F9D005F0040030B10327042009F040FB27
:1004B0003846BDE8F08105F0010028B10127012090
:1004C00009F036FB3846F4E709F074FBB04202D07D
:1004D00010273846EDE740F2FF5009F029FB0020D5
:1004E00009F08EFB04463448204008B93846E0E75E
:1004F00004F0004008B11C20DBE704F0804008B1A4
:100500000920D6E704F0005008B10A20D1E704F032
:10051000805008B10B20CCE704F0006008B10C203B
:10052000C7E704F0806008B10D20C2E704F08070D6
:1005300008B10E20BDE704F4000008B10F20B8E7B1
:1005400004F4800008B11020B3E704F4001008B1EF
:100550001120AEE704F4801008B11220A9E704F4DA
:10056000002008B11320A4E704F4802008B114206F
:100570009FE704F4003008B115209AE704F48030B6
:1005800008B1162095E704F4004008B1172090E761
:1005900004F4804008B118208BE704F4005008B13F
:1005A000192086E704F0080008B11A2081E73846D0
:1005B0007FE700000080014008E0FFFD70B52A25BC
:1005C0001048446B01E00F48446B04F045000028DC
:1005D000F9D004F0040028B10325042009F0A8FA9A
:1005E000284670BD04F0010028B10125012009F062
:1005F0009FFA2846F5E740F2FF5009F099FA28469D
:10060000EFE700000080014070B52A250B48446BDD
:1006100001E00A48446B04F045000028F9D004F0DA
:10062000040028B10325042009F082FA284670BD91
:1006300040F2FF5009F07CFA2846F8E700800140BC
:100640002DE9F04106460F464FF02A082248456B37
:1006500001E02148456B05F045000028F9D005F080
:10066000040038B14FF00308042009F061FA404655
:10067000BDE8F08105F0010030B14FF00108012024
:1006800009F056FA4046F3E709F094FAB04203D075
:100690004FF010084046EBE740F2FF5009F048FAEF
:1006A000002009F0ADFA044604F4604018B9200CAB
:1006B00038804046DCE704F4005008B11320D7E747
:1006C00004F4804008B11020D2E704F4004008B1DF
:1006D0000F20CDE74046CBE70080014070B52A26C9
:1006E0004FF480350F48446B02E06D1E0D48446B9B
:1006F00004F0450008B9002DF7D115B104F004004D
:1007000028B10326042009F013FA304670BD04F026
:10071000400028B12A26402009F00AFA3046F5E7C1
:100720003046F3E70080014000F0805111B10349E9
:10073000086001E00249486070470000040402407C
:100740000000024021B1026842F00102026004E0B0
:1007500002684FF6FE731A4002607047014600209F
:10076000002201F0805313B1054B1A6801E0054BDC
:100770001A6802EA01030BB1012000E00020704773
:10078000000402400000024010B50022026847F653
:10079000F0739A430C6A8B6823430C6923434C69BA
:1007A00023438C692343CC6923434C6A23438C6ADB
:1007B00023431A430260CB6843600B6883604B6835
:1007C000C36010BD704701B5002008E00C2100BFD8
:1007D0000A00A1F10103D9B2FAD1411C88B20099F3
:1007E0008842F3D308BD00002DE9F04104460F46CE
:1007F00015461E461148007B00F0020058B907E07C
:100800002A88B9B2A0B207F0B7FC761E641CAD1CF2
:10081000002EF5DC0FE00CE0B5F80080B8F1000F19
:1008200004D0B9B2A0B2424607F0A6FC761E641C02
:10083000AD1C002EF0DCBDE8F0810000A4B6002065
:100840002DE9F84F04460F4690469946DDE90A5ACD
:10085000BAF800000090BAF802B098F80060D548E5
:10086000007B00F0030020B1012828D0022839D1F4
:1008700012E009F0070008280DD2DFE800F00405B7
:10088000060708090A0BA4E0B3E0C3E0D3E0E3E005
:10089000F3E003E113E125E009F0070008280DD299
:1008A000DFE800F00405060708090A0B1CE029E050
:1008B00036E043E050E05DE06AE077E012E009F006
:1008C000070008280DD2DFE800F004050607080934
:1008D0000A0B0AE115E120E12BE136E141E14CE1AF
:1008E00057E100BF00BF00BF06F0800020B1B9B2E1
:1008F000A0B25A4607F040FC681E050001D1BDE8D1
:10090000F88F00BF06F0400028B1B9B2621C90B267
:100910005A4607F031FC681E050000D1EFE700BF22
:1009200006F0200028B1B9B2A21C90B25A4607F0D6
:1009300023FC681E050000D1E1E700BF06F01000AF
:1009400028B1B9B2E21C90B25A4607F015FC681EF5
:10095000050000D1D3E700BF06F0080028B1B9B206
:10096000221D90B25A4607F007FC681E050000D110
:10097000C5E700BF06F0040028B1B9B2621D90B20D
:100980005A4607F0F9FB681E050000D1B7E700BF23
:1009900006F0020028B1B9B2A21D90B25A4607F083
:1009A000EBFB681E050000D1A9E700BF06F00100BF
:1009B00028B1B9B2E21D90B25A4607F0DDFB681EBD
:1009C000050000D19BE7083408F101008046067855
:1009D0008AE706F080030BB15B4600E0009B1A46F5
:1009E000B9B2A0B207F0C8FB681E050000D186E7C7
:1009F00000BF06F040030BB15B4600E0009B1A46C7
:100A0000B9B2631C98B207F0B7FB681E050000D1AD
:100A100075E700BF06F020030BB15B4600E0009BCA
:100A20001A46B9B2A31C98B207F0A6FB681E0500CF
:100A300000D164E700BF06F010030BB15B4600E095
:100A4000009B1A46B9B2E31C98B207F095FB681EEA
:100A5000050000D153E700BF06F008030BB15B4669
:100A600000E0009B1A46B9B2231D98B207F084FB40
:100A7000681E050000D142E700BF06F004030BB179
:100A80005B4600E0009B1A46B9B2631D98B207F0BE
:100A900073FB681E050000D131E700BF06F00203BA
:100AA0000BB15B4600E0009B1A46B9B2A31D98B299
:100AB00007F062FB681E050000D120E700BF06F0CA
:100AC00001030BB15B4600E0009B1A46B9B2E31D7F
:100AD00098B207F051FB681E050000D10FE70834FB
:100AE00008F101008046067873E706F0800018B12F
:100AF0003946204607F0B1FA681E050000D1FEE62F
:100B000000BF06F0400018B13946601C07F0A5FA96
:100B1000681E050000D1F2E600BF06F0200018B103
:100B20003946A01C07F099FA681E050000D1E6E6D8
:100B300000BF06F0100018B13946E01C07F08DFA2E
:100B4000681E050000D1DAE600BF06F0080018B103
:100B50003946201D07F081FA681E050000D1CEE657
:100B600000BF06F0040018B13946601D07F075FAA1
:100B7000681E050000D1C2E600BF06F0020018B1F1
:100B80003946A01D07F069FA681E050000D1B6E6D7
:100B900000BF06F0010018B13946E01D07F05DFA0C
:100BA000681E050000D1AAE6083408F1010080465D
:100BB00006789AE7A4B600202DE9F04704460E46D1
:100BC00091469A46DDE9087899F80050B8F1000F8F
:100BD0007AD09C48007B00F0020058B10AF0030074
:100BE00020B1012803D0022803D101E04CE05AE0F3
:100BF0006CE07DE00AF0030020B1012803D0022858
:100C000003D101E002E00EE01CE02AE0AB1138F86D
:100C10001320B1B2A0B207F0AFFA781E070001D1DD
:100C2000BDE8F08700BF032303EA251338F813203B
:100C3000B1B2631C98B207F09FFA781E070000D18A
:100C4000EEE700BF032303EAA50338F81320B1B28F
:100C5000A31C98B207F090FA781E070000D1DFE7D6
:100C600000BF05F0030338F81320B1B2E31C98B2BB
:100C700007F082FA781E070000D1D1E709F10100E0
:100C800081460578241DC1E705F0C00030B1AB11E5
:100C900038F81320B1B2A0B207F06EFA781E070040
:100CA00000D1BDE700BF05F0300048B1032303EADF
:100CB000251338F81320B1B2631C98B207F05CFA20
:100CC000781E070001D1ABE728E000BF05F00C005B
:100CD00048B1032303EAA50338F81320B1B2A31CDB
:100CE00098B207F049FA781E070000D198E700BFD4
:100CF00005F0030040B105F0030338F81320B1B24A
:100D0000E31C98B207F038FA781E070000D187E795
:100D100009F1010081460578241DB5E74948007BAB
:100D200000F0020058B10AF0030020B1012803D0FE
:100D3000022803D101E043E04FE05EE06DE00AF0FD
:100D4000030020B1012803D0022803D101E002E012
:100D50000BE017E023E0AA11B1B2A0B207F00CFA41
:100D6000781E070000D15BE700BF032303EA2512CA
:100D7000B1B2631C98B207F0FFF9781E070000D1EA
:100D80004EE700BF032303EAA502B1B2A31C98B249
:100D900007F0F2F9781E070000D141E700BF05F027
:100DA0000302B1B2E31C98B207F0E6F9781E07001F
:100DB00000D135E709F1010081460578241DCAE715
:100DC00005F0C00020B1AA11B1B2A0B207F0D4F969
:100DD000781E070000D123E700BF05F0300038B1CE
:100DE000032303EA2512B1B2631C98B207F0C4F9D9
:100DF000781E070000D113E700BF05F00C0038B1E2
:100E0000032303EAA502B1B2A31C98B207F0B4F918
:100E1000781E070000D103E700BF05F0030030B1E2
:100E200005F00302B1B2E31C98B207F0A5F9781EF1
:100E3000070000D1F4E609F1010081460578241D80
:100E4000BEE70000A4B600202DE9F04704460E4698
:100E500090469946DDE9087A98F80050BAF1000FFB
:100E600052D04E48007B00F0020020B109F0010092
:100E700000B925E032E009F0010000B900E00CE023
:100E80002B113AF81320B1B2A0B207F075F9781E11
:100E9000070001D1BDE8F08700BF05F00F033AF865
:100EA0001320B1B2631C98B207F066F9781E0700F0
:100EB00000D1EFE7A41C08F1010080460578DFE7C8
:100EC000281130B12B113AF81320B1B2A0B207F0BB
:100ED00053F9781E070000D1DCE700BF05F00F00D2
:100EE00040B105F00F033AF81320B1B2631C98B279
:100EF00007F042F9781E070000D1CBE7A41C08F1E7
:100F0000010080460578DBE72448007B00F0020002
:100F100020B109F0010000B920E02BE009F0010048
:100F200000B900E009E02A11B1B2A0B207F024F93B
:100F3000781E070000D1ADE700BF05F00F02B1B287
:100F4000631C98B207F018F9781E070000D1A1E7DA
:100F5000A41C08F1010080460578E4E7281120B1BF
:100F60002A11B1B2A0B207F007F9781E070000D12C
:100F700090E700BF05F00F0030B105F00F02B1B2ED
:100F8000631C98B207F0F8F8781E070000D181E7DB
:100F9000A41C08F1010080460578DFE7A4B6002014
:100FA0002DE9F0470446884615461E46DDF8209098
:100FB0002348007B00F00200F0B9B9F1000F0ED019
:100FC0000AE02F7839F817201FFA88F1A0B207F04D
:100FD000D3F8761E641C6D1C002EF2DC2DE008E0B8
:100FE0002A781FFA88F1A0B207F0C6F8761E641CB2
:100FF0006D1C002EF4DC20E0B9F1000F0FD00BE0E7
:101000002F7837B139F817201FFA88F1A0B207F00E
:10101000B3F8761E641C6D1C002EF1DC0DE00AE0B6
:101020002F782FB11FFA88F1A0B23A4607F0A4F842
:10103000761E641C6D1C002EF2DCBDE8F0870000FB
:10104000A4B6002051B18200A2F1C042126842F061
:1010500001038200A2F1C042136009E08200A2F104
:10106000C0421268034B1A408300A3F1C0431A60C8
:1010700070470000FEFF0F00D0E901121143C26863
:101080001143026911434269114382691143C269E4
:101090001143026A1143426A1143826A1143C26AD0
:1010A0001143026B114302689200A2F1C042116029
:1010B000816808290BD101688900A1F1C041096844
:1010C00041F0400201688900A1F1C0410A60416B12
:1010D0000968426B526841EA0211426B926841EA28
:1010E0000221426B928941EA0241426B128A41EA33
:1010F0000251426B127D41EA0261426B92691143D7
:101100000268521C9200A2F1C0421160C16AB1F59E
:10111000804F1BD1816B0968826B526841EA0211D2
:10112000826B926841EA0221826B128A41EA025183
:10113000826B127D41EA0261826B926911430268FF
:101140009200A2F1C042C2F8041107E06FF07042B1
:1011500001688900A1F1C041C1F804217047000075
:101160002DE9FC4107460D4600262A240020009068
:10117000019008205C490860102048604020886089
:101180000020C8604FF480600861084608F076FDD2
:101190001020FFF779F904462A2C02D02046BDE83A
:1011A000FC815248008800044F490860372048609D
:1011B000402088600020C8604FF4806008610846C5
:1011C00008F05CFD3720FFF75FF904462A2C01D0B8
:1011D0002046E4E746484749086008204860302038
:1011E00088600220C860002008610120486108462C
:1011F00008F0B6FC00203C490860332048604020DD
:1012000088600020C8604FF480600861084608F0DC
:1012100035FD3320FFF738F904462A2C01D020464B
:10122000BDE709E04FF4001008F0CAFC20B108F057
:101230001FFD4DF82600761C2F48406B40F22A61B6
:1012400008400028EED0082008F0BAFC28B1082099
:1012500008F06EFC04242046A1E7022008F0B0FC50
:1012600028B1022008F064FC0224204697E72020E1
:1012700008F0A6FC28B1202008F05AFC06242046DD
:101280008DE74FF4007008F09BFC30B14FF4007014
:1012900008F04EFC0724204681E740F2FF5008F09A
:1012A00047FC00980006009901F47F4140EA0120C4
:1012B000009901F47F0140EA1120009940EA116091
:1012C000686001980006019901F47F4140EA01201D
:1012D000019901F47F0140EA1120019940EA11606F
:1012E000286020465BE7000068850020BC000020E5
:1012F000FFFF0F007C850020008001402DE9F043B6
:1013000087B004460E461746D4F80C80002001F042
:10131000B5FB0546B8F1000F05D098F8041011B1DF
:1013200045F0020101E025F00201084601F0A6FBAC
:10133000206970B10123D4E902018DE80B00039309
:101340006388228820693946D0F800C03046E047DB
:101350001EE0E06802F0D5FC8146B9F1000F06D12D
:10136000E088012801D0002000E00C488146A188D7
:10137000E088A26801230093CDE90429CDE901307A
:101380000391638822883946304602F089F900BF0C
:10139000284601F073FB07B0BDE8F083A4B6002037
:1013A0002DE9F04705468846164640F2C3207043B3
:1013B0004FF47A7190FBF1F000F1010906EBD67160
:1013C000491006FB061A3446AA19A81B2649896D3E
:1013D0000B6841469847012741E007FB07F004FBF3
:1013E0000400504524DD4C4521DD05EB070CACF134
:1013F000010208EB0401A5EB070C0CF10100DFF87A
:1014000068C0DCF858C0DCF80030984705EB070CE2
:10141000ACF10102A8EB0401A5EB070C0CF10100F3
:10142000DFF844C0DCF858C0DCF800309847641E90
:101430002A1908EB0701281BDFF82CC0DCF858C07C
:10144000DCF8003098472A19A8EB0701281BDFF8C1
:1014500018C0DCF858C0DCF8003098477F1C4F45B6
:10146000BBDDBDE8F0870000A4B6002010B5002069
:1014700001F0F0FA6FF07F4001F0F6FA012001F080
:1014800027FB002001F032FB002001F03FFB002091
:1014900001F0F4FA034801F0FDFA002001F00AFB24
:1014A00010BD00004808010870B504460D461646F8
:1014B000032332462946204600F001F870BDF8B5F6
:1014C00007460C4615461E46ADF800408DF8035001
:1014D0008DF802606946384600F001F8F8BD2DE944
:1014E000F0410246002500260020002300240027AA
:1014F00091F803C00CF00F0591F803C00CF0100C2C
:10150000BCF1000F03D091F802C04CEA050591F838
:1015100000C0BCF1000F31D0146800202BE04FF068
:10152000010C0CFA00F3B1F800C00CEA03069E426D
:1015300020D183004FF00F0C0CFA03F7BC4305FADF
:1015400003FC4CEA040491F803C0BCF1280F06D157
:101550004FF0010C0CFA00FCC2F814C00AE091F83C
:1015600003C0BCF1480F05D14FF0010C0CFA00FC90
:10157000C2F810C0401C0828D1D31460B1F800C0D4
:10158000BCF1FF0F34DD546800202EE000F1080CA0
:101590004FF0010808FA0CF3B1F800C00CEA03069A
:1015A0009E4221D183004FF00F0C0CFA03F7BC438D
:1015B00005FA03FC4CEA040491F803C0BCF1280FBF
:1015C00005D100F1080C08FA0CF8C2F8148091F863
:1015D00003C0BCF1480F07D100F1080C4FF001081F
:1015E00008FA0CF8C2F81080401C0828CED35460CA
:1015F000BDE8F0810246002093680B400BB101204A
:1016000000E00020704741617047016170470000B1
:101610002DE9F04F8BB005465C48B0F922000A90E6
:101620005A48B0F924A080698469B4F80C80454513
:1016300009DBE089A84206DBD4F80090A5EB080698
:101640004FF0FF371DE0A068D4F80490A8B1B0F8BF
:10165000008045450DDB4188A9420ADB0288AA1AB1
:1016600095B2416801EB8501B1F90060B1F90270F2
:1016700006E04FF0FF36374602E04FF0FF363746C0
:1016800000BF701C77D041488069007DA17C484331
:101690000990207C08903D488069007D07903B4878
:1016A000B0F92AB0584606F051FDC0B20690374B4B
:1016B000099806FB0092A17C0120CDE90423CDE925
:1016C000020118468069C37D30488069827DCDE97A
:1016D00000235146DDE907320A9801F0E1FF781C4A
:1016E0001BD04BF0020006F031FD284B099807FB98
:1016F0000092A17C0120CDE90423CDE90201184626
:101700008069C37D21488069827DCDE900235146EF
:10171000DDE907320A9801F0C3FF1C488069407D6B
:101720001A498969097D884221DDBBF1020F1ED06B
:101730008BF0040006F00AFD14488069007DDFF894
:101740004CC0DCF818C09CF815C000FB0CA10F4879
:101750008069407D00EB0A030C48806990F816E030
:10176000DDF820C00A980CFB0E0202F0D1F90698B1
:1017700006F0ECFC00BF0548408C617C084400B2D8
:10178000024948840BB0BDE8F08F0000A4B60020E9
:10179000014603488069826900BF507C70470000A1
:1017A000A4B6002000BF02220A80704730B504466C
:1017B000A2699589A94204DBD089884201DB012016
:1017C00030BD93683BB11888884204DC5888884251
:1017D00001DB0120F4E700BF0020F1E710B5002491
:1017E00014E004EBC40101EB04110A4A02EB81018D
:1017F000081D60220849FEF71FFD002004EBC4010C
:1018000001EB0411034A42F82100641C042CE8DBBC
:1018100010BD000034B70020A4B6002010B54FF072
:10182000FF300249086001F09FFC10BDA0010020BC
:1018300070B504460CB9002070BD00F0A5FC204630
:101840000BF0C6F8054601F05FFC2846F4E770B5DA
:10185000044600F099FC2046FFF7EAFF05463DB13B
:10186000284600F069F806462246002101F0AFFD47
:1018700001F04AFC284670BD10B5044604B910BDFD
:1018800000F082FC20460CF059F901F03DFC00BF4D
:10189000F5E700002DE9F041002700F075FC0BF0A2
:1018A00069F9002510E0154830F83500134901EBBF
:1018B000C50149880844114931F83610081A04B2A4
:1018C000BC4200DD274635460C4800EBC500868843
:1018D000002EE8D1094830F83500084901EBC50170
:1018E0004988084442F21071081A04B2BC4200DD73
:1018F000274601F009FC3846BDE8F081C0AC002065
:1019000040F2391009494860886042F21070C8817D
:101910000882002008608881042005494880002052
:1019200008808880012003490870704790B6002025
:10193000C0AC002014010020014609B90020704706
:10194000024830F93100024A1044F8E7C0AC0020E8
:10195000B08500202DE9FF410D4616461C46214664
:1019600068460BF011F9281AC5B20EB1681EC5B24F
:10197000174850F825000099884204D8144850F8B8
:101980002500401E00901CE02846691ECDB2B042E2
:1019900005D1104801782268501C206011700C4855
:1019A00050F82580009890FBF8F0C7B2009807FB2C
:1019B0001800009007F13000C1B22268501C20606E
:1019C0001170002DE0D1002021680870BDE8FF8172
:1019D00088080108180100202DE9F34F93B000F0AA
:1019E000D3FB8B480088002877D08A480168139879
:1019F000814201D0012000E0002087490A68149943
:101A00008A4201D0012100E000210843ECD0834844
:101A10000078002872D082480068006808907C48EE
:101A2000B0F90000FFF788FF09907D480068006862
:101A300000880A90774913980968461A002E0DDD30
:101A4000012012904FF0000A754800680068008875
:101A500011901198401E1090B3460DE04FF0FF30EA
:101A600012900A98A0F1010A4FF0FF3011904FF048
:101A7000000B0AEB06001090674914980968471A92
:101A8000002F0DDD01200E9000200F9064480068AB
:101A9000006840880D900D98401E0B900C9710E048
:101AA0004FF0FF300E905E48006800684088401E8E
:101AB0000F904FF0FF300D9000200C900F9838449D
:101AC0000B900F9C92E004EB07080C98844205DB16
:101AD0000B98844202DC012001E094E00020C0B2B7
:101AE00007900C98804504DB0B98804501DC0120B1
:101AF00000E00020C0B20690554672E07BE00998F5
:101B000000EB45010A98604301EB4000019005EBB2
:101B1000060922462946089800F06CFA03905D45B4
:101B200006DB1098854203DC079808B1012000E02D
:101B30000020C0B20590D94506DB1098814503DC32
:101B4000069808B1012000E00020C0B2049003987C
:101B500098B1059828B1E21BA91B089800F04AFA31
:101B600058B9019B1A882F4BB3F9023019192D4B24
:101B7000B3F9003058190CF0CFFA049848B109981D
:101B800000EB49010A9808FB00F031F810000290C0
:101B90000DE0244AB2F9022002EB0801214AB2F911
:101BA000002002EB09000CF01FF880B20290DDE982
:101BB00001100880039890B103980CF00BF980B2E3
:101BC0000090184AB2F9022002EB0801154AB2F956
:101BD000002002EB0900009A0CF09EFA00BF129858
:101BE0000544119885428AD10E9804440D98844288
:101BF0007FF469AF00BF074913980860064914983D
:101C000008600AF059FF01F07FFA15B0BDE8F08FC7
:101C1000340100204C010020500100203F01002031
:101C2000400100203601002010B50021084600F0D8
:101C300081FA40F6FF731A465942084600F002F84E
:101C400010BD00002DE9FC4104460D4616461F4616
:101C500000F09AFA042006F079FA80461648006CE3
:101C600004441548406C05441348006C064412486F
:101C7000406C074420B2ADF8000030B2ADF804006B
:101C800028B2ADF8020038B2ADF8060068460AF096
:101C900037FC50B100BF3B4632462946204601F092
:101CA00037FF0AF0CFFB0028F5D1404606F04EFA88
:101CB00001F02AFABDE8FC81A4B6002070B5054603
:101CC00000F00AFA461909E000F058F9052C01DD88
:101CD000052100E02146084601F022FA00F0FCF957
:101CE000341A002C01DD012000E000200028EBD197
:101CF00070BD70B504460D4600222946204600F00E
:101D000001F870BD7FB504460D46164601A8009047
:101D10006B46324629462046FFF71CFE01A800F01C
:101D200015F87FBD10B500F02FFA00F0C9F906498B
:101D3000898C084400B2044988840846008C488491
:101D400001F0E2F910BD0000A4B600202DE9FC4727
:101D500004460CB9BDE8FC8700F016FA00F0B0F9B3
:101D600007464B48B0F9228000F0BAF906464848C9
:101D7000808C801B00B24649888475E047F6FF716D
:101D8000204601F099FA82465146204601F072FA47
:101D900005463F48808D00F00300012807D0022847
:101DA00007D1284605EBD5714FEA610904E0A94641
:101DB00002E04FF0000900BF00BF3548408CA0EBA7
:101DC000090000B232494884ADF80000BDF80000B7
:101DD0002844401E00B2ADF804000846808CADF8DF
:101DE0000200BDF802003844401E00B2ADF8060003
:101DF0006A465146204601F0D9F9BDF8020024494F
:101E000088845146204601F029F8044420780A28A5
:101E100002D020780D281DD11D48808D00F00300D0
:101E2000012802D0022805D100BF0FFA88F0184916
:101E3000488404E01648008C1549488400BF00BF60
:101E400020780A280CD11248808C384400B21049FE
:101E5000888405E0BDF80000284400B20C4948849D
:101E6000207800B903E0641C2078002886D100BFE8
:101E70000748808C304400B2054988840846B0F990
:101E80002C0020F00300888501F03EF900BF61E7D7
:101E9000A4B6002070B506460C46154600F074F94D
:101EA00020B20549488428B288843046FFF74EFFA7
:101EB00001F02AF970BD0000A4B600207CB50446EC
:101EC0000D46164600F060F91448006C05441348AE
:101ED000406C064428B2ADF8000021880844401E3A
:101EE00000B2ADF8040030B2ADF8020061880844D9
:101EF000401E00B2ADF8060068460AF001FB48B18A
:101F000000BF324629462046FFF7F8F90AF09AFA50
:101F10000028F6D101F0F8F87CBD0000A4B600203E
:101F200070B588B004460D461646142103A8FEF786
:101F3000AAF96089ADF812002089ADF81000A189D6
:101F400004F11000042202FB01000590CDF818D026
:101F5000A088ADF80C00E088ADF80E00E089C0B2B2
:101F60008DF80400A089009004F110000290324620
:101F7000294603A8FFF7A2FF08B070BD10B50024E2
:101F800000E0012400F004F80028FAD1204610BD3A
:101F900010B500240648006820B105480068804755
:101FA00000B1012409F08DFF00B10124204610BDCD
:101FB0001C01002070B504460D46164600F0E4F8FA
:101FC0000B48006C04440A48406C054400200AF0A9
:101FD00097FA48B100BF324629462046FFF7E0F99C
:101FE0000AF030FA0028F6D101F08EF870BD00003A
:101FF000A4B6002070B503460C46DD88042D29D018
:1020000004DC012D07D0022D45D113E0082D30D07E
:10201000102D40D133E09D88554305EBD4019D68D8
:10202000685C04F00705C5F1070520FA05F505F021
:10203000010032E09D88554305EB94019D68685C82
:10204000062505EA4405C5F1060520FA05F505F063
:10205000030022E09D88554305EB54019D68685CB0
:1020600014F0010F02D000F00F0500E0050928462A
:1020700013E09D8802FB05419D68685C0DE09D882A
:10208000554305EB44019D686D5C9E680E4476786F
:1020900045EA062001E0002000BF00BF70BD00003F
:1020A00070B5044600F070F8044880694168204625
:1020B0008847054601F028F8284670BDA4B60020E0
:1020C00010B500F061F803488069447D01F01CF808
:1020D000204610BDA4B6002010B501F037F810BDA1
:1020E00010B5002400F050F81148808D00F00C006D
:1020F000042804D008280ED00C2813D104E00C4882
:102100008069007D441E0DE009498969087D00EB66
:10211000D0714C1006E006498969087D00EBD0714A
:102120004C1000BF00BF00F0EFFF204610BD0000C4
:10213000A4B6002070B506460C4600F025F83046DF
:102140000BF0B4FD054620460BF0B8FD054300F04A
:10215000DBFF284670BD000010B52E20084908702E
:1021600000F0F8FF07480BF0B1FDFFF757FB01F057
:102170000FFE044609F0A4FFFFF730FB204610BD18
:1021800018010020A4B6002010B52348006830B91B
:1021900000F0FAFF00F0D2FF204908600BE000F0E9
:1021A000CDFF1E490968884205D000F0EDFF00F020
:1021B000C5FF1A49086018480068401C16490860A5
:1021C000012827D10BF03AFD0446154800688442E7
:1021D0001FD013480068002819DB1149096801EB7A
:1021E000C10202EB01110F4A02EB8101081D6022BE
:1021F0000D49FEF721F804EBC40000EB0410094A76
:1022000002EB8000011D60220748FEF715F8044824
:10221000046000BF10BD0000A4010020A801002040
:10222000A001002034B70020A4B600202DE9F04121
:10223000044634B90E48B0F94C00040001D1BDE8A1
:10224000F081FFF7A1FF2046FFF776FB0746B7F9BD
:10225000185045B12846FFF76FFB0646B068816805
:102260003046884700BF00F04FFF00BFE7E700009F
:10227000A4B6002010B50446024A1146204600F0DC
:1022800003F810BD01F0FFFF2DE9FC4106460D46A5
:102290001746002E3AD0FFF777FF1D48B0F94C8063
:1022A0003046FFF749FB044600F0C8FB40F6FF70DC
:1022B000401903D1B4F90050B4F9027028B2ADF856
:1022C0000000A1880844401E00B2ADF8040038B2F6
:1022D000ADF80200E1880844401E00B2ADF80600E7
:1022E00009F0D4FC68460AF00BF948B100BF3A4641
:1022F0002946304600F042FA0AF0A4F80028F6D148
:10230000404600F017F900F0FFFE00BFBDE8FC8179
:10231000A4B600202DE9FF4F85B081468A46FFF71D
:1023200033FF1748D0F800B01648B0F84C0048B951
:102330001448806C04681348806C45681148806CB0
:10234000866809E00F49B1F94C00FFF7F5FA074636
:10235000FC693D6A7E6A00BFDBF8380001A971C1E3
:10236000129B009351464846DDE9072300F052F9DD
:10237000804600F0C9FE404609B0BDE8F08F00007D
:10238000AC010020A4B6002070B50546FFF7FCFEA6
:10239000A5B10C48B0F94C00A84201D100F04EFBA9
:1023A0002846FFF7C9FA0446208B18B1B4F9180083
:1023B00000F097FE2846FFF75FFA00BF00F0A4FE8A
:1023C00070BD0000A4B600202DE9FF4F85B0044683
:1023D0008B461F466CB3B4F90000002801DA0020D8
:1023E00001E0B4F900008046B4F90200002801DAE7
:1023F000002001E0B4F90200814601F07DFC461E98
:10240000B4F9040031460BF0FDFC049001F077FCB8
:10241000461EB4F9060031460BF0F4FC0390049814
:10242000A0EB080000F1010A0398A0EB0900451C8D
:1024300008E04FF00008C14601F05EFC824601F062
:102440005EFC054607B96F42BAF1000F01DD002DB1
:1024500003DC002009B0BDE8F08F129B00933B46DF
:10246000524649464046FFF755FF0290029818B978
:102470000798D8470120EDE7029800F029F80746B1
:10248000029800F057F8002618E0A81B0190019868
:10249000B84203DADDE9011000F030F846B109EB8B
:1024A00006024146029800F071F80298FFF7BEFE5E
:1024B0000798D8470298FFF7DDFE3E44AE42E4DBC2
:1024C0000298FFF761FF002000F034F80020C1E718
:1024D00070B504460026FFF757FE14B90648B0F958
:1024E0004C402CB12046FFF727FA0546B5F90660A7
:1024F00000F00AFE304670BDA4B6002070B5044658
:102500000D4614B90A48B0F94C4004B970BDFFF744
:102510003BFE2046FFF710FA0646B6F90600A84231
:1025200001DD28B2F08000F0EFFD00BFEEE7000013
:10253000A4B6002070B50446FFF726FE1248B0F995
:102540004C5014B900F07AFA1AE02046FFF7F4F97B
:10255000064609F075FC0C48B0F84C0038B90A483A
:1025600001464A68C0F84E208968C0F852100648F3
:10257000A0F84C400449B06A886405F0BFFD00BF74
:1025800000F0C2FD284670BDA4B600202DE9F04140
:1025900080460E461746B8F1000F07D11548B0F92E
:1025A0004C005FEA000801D1BDE8F081FFF7ECFDC7
:1025B0004046FFF7C1F9044638B2608030B220804F
:1025C00005F09CFD208B88B1B4F91800FFF7B4F931
:1025D0000546B4F90400A88038B1B4F90600E880D3
:1025E00018B130B2288038B2688000BF00F08CFD8E
:1025F00000BFD9E7A4B6002070B504460449B1F97C
:102600004C00FFF799F905462046E969884770BDF7
:10261000A4B600202DE9FF4F83B090461D46DDF89B
:1026200040904FF0000A1198C06B0290029908FB8D
:1026300001F0C01D4FEAD00BFFF72CF9064619F048
:10264000010F06D13046F11706EB9171891001EBAD
:102650004106002D0BDCA6F12C01B1FBFBF0694219
:10266000884201DD694200E001460D4600BF19F0D5
:10267000010F08D1002300932B464246DDE90301F8
:1026800000F08EFC8246002D05DC00F03DFD0020B0
:1026900007B0BDE8F08F05FB0BF000F12C0619F038
:1026A000010F04D030B2FFF7C3F8074603E030B2A1
:1026B000FFF7CDF8074617B33846FFF73DF9044654
:1026C000039800B22080049800B260800FFA88F06E
:1026D000A08028B2E08001F058FAA060C4F80CB0E5
:1026E000A4F818A01298E061139820621498606210
:1026F0001198A062029820610020606105E0BAF1A3
:10270000000F02D05046FFF7B7F83846C0E7000088
:1027100010B50449B1F94C00FFF70EF90446606AA0
:10272000804710BDA4B6002070B505460B49B1F92D
:102730004C00FFF701F904462088288060886880F3
:102740002088A1880844401E00B2A8806088E188E3
:102750000844401E00B2E88070BD0000A4B600200E
:1027600070B504460449B1F94C00FFF7E5F8054699
:102770002046296A884770BDA4B600202DE9F74F8E
:102780008CB08A4690460C98FFF7D6F80546B5F906
:1027900018000B90B5F906000A90E86809902869BE
:1027A00008900898C008079005F12C090B9800289C
:1027B00062D00B98FFF7C0F80646002458E00020CE
:1027C0000690B068224606A94369304698470746F6
:1027D000B5F90400B84225D1A34600E0641CB068F6
:1027E000621C06A9436930469847B842F6D00023D8
:1027F000DDE90801CDE90493CDE90201012300934D
:10280000A4EB0B000193431CB5F9042008EB0B016A
:10281000504600F045FFA4EB0B00401C099900FB5B
:10282000019924E01FE00023DDE9061001FB00927E
:10283000DDE90801CDE90423CDE90201012300937C
:1028400008EB04010193069A0AEB02003A4600F0F5
:1028500027FF069838440690B068224606A94369C7
:10286000304698470746002FDDD109988144641C03
:102870000A988442A3DB10E00023DDE90801CDE9DA
:102880000493CDE90201012300930193B5F90420DB
:10289000414650460A9B00F003FF0FB0BDE8F08FA1
:1028A00010B500283FD081B37AB3B1F90030B2F946
:1028B0000040A34202DDB2F9003001E0B1F900307E
:1028C0001BB20380B1F90230B2F90240A34202DD2B
:1028D000B2F9023001E0B1F902301BB24380B1F924
:1028E0000430B2F90440A34202DDB1F9043001E042
:1028F000B2F904301BB28380B1F90630B2F9064058
:10290000A34203DDB1F9063002E004E0B2F906307B
:102910001BB2C38010BD09B10B4600E013461C6812
:1029200004605B68436000BFF4E778B103880B4440
:102930001BB2038083880B441BB2838043881344FB
:102940001BB24380C38813441BB2C380704700008E
:102950000146054B0DCB81E80D00087A08B1012036
:1029600070470020FCE7000028B7002010B504469F
:102970000BF050FA0C2221460448FDF78FFC18B1E9
:10298000024894E80E000EC010BD000028B70020D9
:1029900070B50024FFF7F8FB0D48006898B10C48AB
:1029A0000068401E0A4908600A48056841682846D0
:1029B00009F038FC07484068012802D1284600F099
:1029C000B5F8012400BF00F09FFB204670BD000059
:1029D000E0000020E40000200246B2F90200B1F954
:1029E0000630984213DCB1F90200B2F90630984281
:1029F0000DDCB2F90000B1F90430984207DCB1F9FE
:102A00000000B2F90430984201DC01207047002038
:102A1000FCE7000010B50446602221460148FDF79E
:102A20000BFC10BDA4B6002010B50446602202497C
:102A30002046FDF701FC10BDA4B6002010B5FFF73D
:102A4000A3FB05F01BFB05F00DFC09F01FF900F0DE
:102A50005BFB10BD10B50446FFF796FB204605F062
:102A60001FFB00F051FB10BD10B50446FFF78CFBB7
:102A7000204605F04DFB00F047FB10BD70B5044645
:102A8000FFF782FB204605F061FB054600F03CFBAA
:102A9000284670BD70B5044605488569FFF774FB8C
:102AA0000CB10348846100F02FFB284670BD000084
:102AB000A4B6002070B50446FFF766FB0348857D89
:102AC000847500F021FB284670BD0000A4B60020EC
:102AD00070B50446FFF758FB0348057D047500F008
:102AE00013FB284670BD0000A4B6002070B5044654
:102AF000FFF74AFB0448B0F92C5020B20249888500
:102B000000F002FB284670BDA4B6002070B5044654
:102B1000FFF73AFB0448B0F92A5020B20249488531
:102B200000F0F2FA284670BDA4B6002002490968F8
:102B300009B9014908607047EC0000202DE9F84F01
:102B400004460D4616461F46DDF828804FF0000962
:102B500014B940F23F1000E0EF208246B7EB0800C6
:102B600001D4014600E04142142902DA0120BDE807
:102B7000F88FA81B01D4014600E04142142901DA74
:102B80000120F4E73B46324629464846CDF800800E
:102B90000BF015F9084941F834003B463246294606
:102BA0005046CDF800800BF00AF9034901EBC4014F
:102BB00048600020DBE70000A085002070B53348A6
:102BC000006832494968884208DA3048006830496C
:102BD00008602E4840682F49086007E02B480068CD
:102BE0002C490860294840682949086027488168BD
:102BF000C068814208DA2548806827490860234870
:102C0000C0682649086007E02048806823490860BA
:102C10001E48C0682049086000F062F82048056836
:102C2000204804682048006810B3194800688542AD
:102C30000BDB18480068854207DC174800688442AF
:102C400003DB16480068844205DD4FF0FF3108467B
:102C50000BF0B4FA19E0284609F07EFE054620463E
:102C600009F08CFE04462146284600F085F80CE069
:102C7000681C06D1601C04D1411E08460BF09EFA68
:102C800003E02146284600F077F870BDA0850020BB
:102C900004010020080100200C0100201001002088
:102CA000FC00002000010020500000200146054BE0
:102CB0000DCB81E80D000348007A08B10120704770
:102CC0000020FCE794850020014800687047000060
:102CD000FC0000200148006870470000000100204F
:102CE00010B54FF0FF30074908600749086006F04B
:102CF00057FD04462CB120880249086060880249CB
:102D0000086010BDFC0000200001002000200449E4
:102D100008604860886000210148C1607047000079
:102D2000A085002070B505460C46002D08DB002C60
:102D300006DB01200649087208460560446002E08F
:102D4000002003490872024800F004F870BD00003A
:102D5000C4BA002010B504460C2206492046FDF7EF
:102D60009DFA30B1034894E80E000EC02046FFF7EC
:102D7000FDFD10BD948500202DE9F04104460D466F
:102D80000E490968601A01D4014600E041420E462E
:102D90000B490968681A01D4014600E041420F4618
:102DA000F019022807DD054804600548056029463A
:102DB0002046FFF7B7FFBDE8F08100009801002032
:102DC0009C0100201CB540F6F660E82140F66173D6
:102DD0007222CDE90010F0214FF4A07000F002F84B
:102DE0001CBD00002DE9F84304460D4616461F465B
:102DF000DDE90889FFF7B0F908F0ACFD04B115B9B9
:102E00000AF040FB11E033462246002108460097B5
:102E1000FFF794FE43462A4600210120CDF800909A
:102E2000FFF78CFE012002490860BDE8F88300002E
:102E30005000002070B5044625680748C069016845
:102E40002846884706460448C0694168284688479E
:102E500005442560304670BDA4B600202DE9F04140
:102E600005460E46002707E00748C0694168284626
:102E700088470446254427443000A6F10106F3D1D3
:102E80003846BDE8F0810000A4B600202DE9F041ED
:102E900004460E4615461F46DDF8188000BF2A4638
:102EA0006D1CA0683B463146D0F804C02046E04780
:102EB000A8F101005FEA0008F1D1BDE8F0812DE939
:102EC000FF4F81B005460E4691462F46B7F90000E8
:102ED000361A07F11404B7F90200A9EB00003969AA
:102EE00000FB014404EBE60404983044401E0090CB
:102EF0000098C010A0EBE60806F00701FF2008418B
:102F000000F0FF0A009800F00700C0F10701FF2061
:102F1000884000F0FF0BB8F1000F05D120780AEAD5
:102F20000B010843207013E0207840EA0A0004F8FF
:102F3000010BA8F10100B0F1000805DDFF224146B8
:102F40002046FDF799F94444207840EA0B002070B0
:102F500005B0BDE8F08FF0B514460346B3F9005054
:102F6000491B03F11402B3F90250651B1E6905FBEE
:102F7000062202EBE102157801F0070780263E41A8
:102F800035431570F0BD70B504462546B5F9060009
:102F90002A6900FB02F105F11400FDF774F970BD18
:102FA0002DE9F84F0746884615461E46DDF828B03D
:102FB00000BF05F10F0000114FEA400906FB09F0C0
:102FC00014300090009800B2FEF741FC8246BAF13E
:102FD000000F02D10020BDE8F88FFFF7D5F850466A
:102FE000FEF7AAFC044638B220800FFA88F0608011
:102FF00028B2A08030B2E0800448A0600120A08107
:10300000C4F8109000F080F85046E4E76009010829
:103010002DE9F04705460F46944639682E46B6F925
:10302000049006F11402B6F90600604502DC0020A7
:10303000BDE8F08730690CFB002202EBE102494554
:1030400001DB0020F4E7A9F10100C010A0EBE108CA
:1030500012F8010B01F0070A00FA0AF0C3B20CE003
:10306000B8F1000F01D10020E2E712F8013BA8F10E
:10307000010801F1080020F00701002BF0D002E068
:103080005806030E491C13F0800FF9D0FF2B08D00F
:103090000C4602E05806030E641C13F0400FF9D1F1
:1030A00000E0CC1D04F00700072816D10FE012F84D
:1030B00001AB5346BAF1FF0F01D1083407E002E03B
:1030C0005806030E641C13F0800FF9D104E0A8F138
:1030D0000100B0F10008EADA00BF3960601A401C54
:1030E000A6E770B50546FFF74FF82846FEF724FC23
:1030F0000446A089401E00B2A08110B92846FEF700
:10310000BBFB00F001F870BD10B504480068401E1C
:103110000249086001D100F041F810BDA40100206F
:1031200070B504464FF47A7060434FF47A71B0FB87
:10313000F1F5A8B205F0D4FC70BD000002480068AB
:1031400090F83600704700007800002010B505F0B8
:1031500045FD10BD10B5002005F0B2FA0149086028
:1031600010BD00004400002010B5012005F0A8FAB1
:1031700003490860002005F029FA0249086010BDE3
:103180003C0000204000002008B56A4600210248AB
:10319000006805F0BFFA08BD3C00002010B50248E9
:1031A000006805F033FB10BD3C0000207CB50546EF
:1031B0000E4614462D48006878B1002009F0A0F9A9
:1031C000002852D000BF6A463146284609F05AFD11
:1031D00009F038F90028F6D147E0206800906068CF
:1031E0000190BDF800002249096C084400B2ADF816
:1031F0000000BDF802001E49496C084400B2ADF859
:103200000200BDF804001A49096C084400B2ADF888
:103210000400BDF806001649496C084400B2ADF838
:103220000600684609F06CF980B100BFBDF80000E7
:103230000F494884BDF8020088846A463146284612
:1032400009F020FD09F0FEF80028EFD10848408C75
:103250000749096C401A00B2054948840846808C29
:10326000496C401A00B2024988847CBD28010020C4
:10327000A4B6002073B50C4600250098C0B10D48D7
:103280008069006938B10B4880690069214602688D
:10329000009890477CBD07E06846FFF7CBFD0646E7
:1032A0003046FEF7FDFE0544601E041EF4DA00BF42
:1032B0002846EFE7A4B6002073B50D460024009819
:1032C000C0B10D488069006938B10B488069006958
:1032D00029464268009890477CBD08E06846FFF7A1
:1032E000A9FD06460EB10A2E00D102E0641CAC42D4
:1032F000F4DB00BF2046EFE7A4B60020B0F90020C1
:10330000B1F900309A4201DA0A880280B0F902204D
:10331000B1F902309A4201DA4A884280B0F90420B9
:10332000B1F904309A4201DD8A888280B0F9062022
:10333000B1F906309A4201DDCA88C280704710B5E3
:103340000346B1F90000B2F90040A04202DDB1F934
:10335000000001E0B2F9000000B21880B1F90200EB
:10336000B2F90240A04202DDB1F9020001E0B2F977
:10337000020000B25880B1F90400B2F90440A04242
:1033800002DDB2F9040001E0B1F9040000B2988056
:10339000B1F90600B2F90640A04202DDB2F906001A
:1033A00001E0B1F9060000B2D880B3F90400B3F926
:1033B0000040A04201DA002010BDB3F90600B3F9C5
:1033C0000240A04201DA0020F6E70120F4E770B5E0
:1033D00003460D4602E003F8015B521E12B113F0E2
:1033E000030FF8D19108A9B102F0030205EB0546DD
:1033F00006EB0624184604E010C010C010C010C030
:10340000091F0429F8DA01E010C0491E0029FBD188
:10341000034600BF02E003F8015B521E002AFAD106
:1034200070BD70B503460C46154613F0020F02D06E
:1034300023F8024B6D1E6908A9B104EB044218463B
:10344000042909DB00BF026042608260C260103064
:103450000E1F3146042EF6DA01E004C0491E002991
:10346000FBD1034600BF15F0010F00D01C8070BDDA
:1034700000BFFEE77CB504462A250020019000909D
:103480005F48008800045F4908600D2048604020C4
:1034900088600020C8604FF480600861084606F02C
:1034A000EDFB5948406B009002E05748406B00909C
:1034B000009800F045000028F7D0009800F00400C4
:1034C00028B10325042006F033FB28467CBD009874
:1034D00000F0010028B10125012006F029FB284653
:1034E000F4E706F067FB009000980D2802D0102545
:1034F0002846EBE740F2FF5006F01AFB002006F0EA
:103500007FFB01900198C0F3432020703F49019850
:10351000084008B92846D9E7019800F0004008B1F2
:103520001C20D3E7019800F0804008B10920CDE7C6
:10353000019800F0005008B10A20C7E7019800F098
:10354000805008B10B20C1E7019800F0006008B17D
:103550000C20BBE7019800F0806008B10D20B5E7B2
:10356000019800F0807008B10E20AFE7019800F4D8
:10357000000008B10F20A9E7019800F4800008B10D
:103580001020A3E7019800F4001008B111209DE776
:10359000019800F4801008B1122097E7019800F418
:1035A000002008B1132091E7019800F4802008B1B1
:1035B00014208BE7019800F4003008B1152085E74E
:1035C000019800F4803008B116207FE7019800F4DC
:1035D000004008B1172079E7019800F4804008B155
:1035E000182073E7019800F4005008B119206DE726
:1035F000019800F0080008B11A2067E7284665E73F
:10360000BC000020688500200080014008E0FFFD2C
:1036100010B504460248806C01682046884710BDFA
:10362000A4B6002010B50146C1F3C402C1F385233E
:10363000C1F3C44404EB431000EBC22010BD10B52D
:1036400000F004F800F02AFA10BD000008B50121CE
:10365000080205F0DFFF0121612005F0EBFF4FF6C6
:103660008070ADF8000003208DF8020018208DF85E
:10367000030069460848FDF732FF4CF6B370ADF819
:10368000000003208DF8020018208DF80300694621
:103690000248FDF724FF08BD001801400014014056
:1036A0002DE9F04F8BB005468A4690461F46DDF85F
:1036B0005890189E00200A9087480068A0B1199B76
:1036C0001799CDE90291CDE90463DDE9142382481D
:1036D000CDE9002300683B4642465146046828462F
:1036E000A0470BB0BDE8F08F0AEB0700401E089022
:1036F00005EB0800401E0990DDE91401084301288C
:103700007AD17648B0F90600A0EB0A04002C09DD56
:103710003F1B002F00DCE4E77048B0F906A01798C3
:1037200004FB00666D48B0F90A100898441A002C92
:1037300003DD3F1B002F00DCD3E76848B0F9081019
:103740000998441A002C01DDA8EB04080024634802
:10375000B0F90400A84239DD6048B0F90400441B08
:10376000A8EB0408B9F1040F1ED006DCB9F1010F73
:103770000AD0B9F1020F28D10EE0B9F1080F1BD021
:10378000B9F1100F21D11BE006EBE406E01005EBC8
:10379000C00504F0070418E006EBA406A01005EB32
:1037A000800504F0030410E006EB6406601005EBEE
:1037B000400504F0010408E026442544002404E008
:1037C00006EB44062544002400BF00BFB8F1000FFB
:1037D00000DC86E7199B1798CDE90090CDE90264DB
:1037E00004933E48806C3B4642465146D0F80CC09C
:1037F0002846E0476DE0FFE7C9F108000590544610
:103800000020069061E015982044401E0490334843
:10381000B0F906100498814250DC3048B0F90A0033
:10382000A0424BDB0020039001960795029041E0F7
:10383000039838B9019800780A900198401C0190CB
:103840000820039005990A98084100F0FF0B0A9898
:1038500000FA09F0C0B20A900398A0EB09000390A7
:10386000BBF1000F04D11D48007B10F0020F1AD1EC
:103870001A4840880090199828B1199830F81B0010
:103880001649488002E01548A0F802B0149907983C
:103890000844421E2146049B079800F039F90F495D
:1038A0000098488000BF0298401C02901499079825
:1038B0000844079002984045BADB00BF0698401CB8
:1038C000069015980444179806440698B8429ADB67
:1038D00000BF00BF05E7000028010020A4B60020BB
:1038E00070B504460D4616461348B0F90600A842C6
:1038F00000DD70BD1048B0F90A00A84200DAF8E710
:103900000D48B0F90400A04202DD0B48B0F90440B4
:103910000948B0F90800B04202DA0748B0F9086077
:10392000A64200DAE5E70448806C3246294603697E
:103930002046984700BFDCE7A4B600202DE9F04FF1
:1039400004460D4691469A46DDF824B04C4503DD09
:103950000FFA89F7A146BCB2554503DD0FFA8AF785
:10396000AA46BDB2A9EB04000FFA80F8AAEB050045
:1039700006B2B8F1000F0BD100BF5A4629462046C7
:1039800004F0FAFB681C85B2AA45F6DABDE8F08FB0
:1039900056B900BF5A462946204604F0EDFB601C8C
:1039A00084B2A145F6DAF1E7B04521DDC8EB460067
:1039B00007B215E05A462946204604F0DDFB601C9C
:1039C00084B2002F08DD681C85B27000022101FB63
:1039D0001800384407B203E0022000FB067007B26B
:1039E0004C45E7D15A462946204604F0C5FB20E065
:1039F000C6EB480007B215E05A462946204604F0B7
:103A0000BBFB681C85B2002F08DD601C84B270000F
:103A1000022101FB1800384407B203E0022000FB3A
:103A2000067007B25545E7D15A462946204604F0AC
:103A3000A3FB00BFAAE7000070B504460D46164878
:103A4000B0F90600A84200DD70BD1348B0F90A00C5
:103A5000A84200DAF8E71048B0F90400A04200DDFF
:103A6000F2E70D48B0F90800A04200DAECE70A4896
:103A7000007B10F0010F06D00748806C2946826A4F
:103A80002046904706E004484288806C2946436AF5
:103A90002046984700BFD7E7A4B6002000B597B0EE
:103AA0000A200190002002900A2003900020049038
:103AB000059006900790089009900A9010200B90AE
:103AC00000200C900E900F9010904FF480501190A9
:103AD000002012900D901390149001A8159008A842
:103AE000FDF7CAFA03200190002002900320039002
:103AF0000020049005900690079001A8169008A851
:103B0000FDF7BAFA01210020FDF79CFA17B000BDBD
:103B10002DE9F04104460D4616461F461848B0F9F7
:103B20000400A04202DD1648B0F904401448B0F980
:103B30000800B04202DA1248B0F90860A64201DA81
:103B4000BDE8F0810E48B0F90600A84202DD0C483D
:103B5000B0F906500A48B0F90A00B84202DA08483B
:103B6000B0F90A70AF4200DAEAE70548806C3B46DC
:103B700032462946D0F818C02046E04700BFDFE7AC
:103B8000A4B600204FF6FF7070474FF480307047A6
:103B9000F8B502460B46104619460646084640F25E
:103BA0003F14A41BA1B2524C2478241F0B2C07D223
:103BB000DFE804F0151606060606252726064B0044
:103BC00020244FF0C0473C804A4F388000BF21245A
:103BD0004FF0C0473C80474F398000BF36E000BF00
:103BE0004E244FF0C0473C80424F388000BF4F24E6
:103BF0004FF0C0473C803F4F398000BF26E000BFF8
:103C000000BF022407124FF0C04CACF80040DFF8B0
:103C1000E4C0ACF8007000BF032467073C8067462F
:103C2000388000BF06240F124FF0C04CACF80040A3
:103C3000DFF8C0C0ACF8007000BF07244FF0C047E9
:103C40003C806746398000BF00E000BF00BF00BF76
:103C500027480078001F0A282FD2DFE800F0090863
:103C600005062E2E1416150700BF00BF00BF00BFAB
:103C700000BF22204FF0C04108801E4800880090FD
:103C80001C480088F8BD00BF00BF22264FF0C04787
:103C90003E80184E35883688C6F3C700154E3688E4
:103CA000C6F38701134E3688C6F3C704C60246EA38
:103CB00041162643B5B22846E4E700BF22214FF063
:103CC000C04421800B49098800910A49088800BF37
:103CD00000F01F07C0F34516C40A4FEAC72C0CEBCF
:103CE000461CA4441FFA8CF100BF0846CAE7000036
:103CF00054000020000002604FF4A0707047F020D4
:103D0000704710B50446204600F002F810BD0000D0
:103D10002DE9F041044614B90020BDE8F081A06807
:103D200008B90020F9E72068B0F5807F01DD0020A8
:103D3000F3E72668A768002507E057F82500FFF796
:103D400067FC044921F815006D1CB542F5DB0148FC
:103D5000E3E70000C4B8002030B5014601F01F03BE
:103D6000C1F34512C1F3C424C4EB04201F25B0FBEA
:103D7000F5F4C2EB02203F25B0FBF5F2C3EB0320C4
:103D80001F25B0FBF5F304EB022000EB034030BD30
:103D900010B5002404F0B2F904F04EF9044300F029
:103DA00011F8042004F0D2F940F6FF731A460021FE
:103DB0000846FFF7ADFE002004F0C8F904F041F911
:103DC000204610BD704700000EB5FFF738FC642098
:103DD0000AF0BAFF002001904FF0C041019808801E
:103DE000FE480088029049F225310298884203D0AB
:103DF000C91C029888427DD10120F9490870E7204A
:103E00000090102001904FF0C04100980880F349C5
:103E10000198088000BF00200090012001904FF021
:103E2000C04100980880ED490198088000BF01203A
:103E30000090000201904FF0C04100980880E749CF
:103E40000198088000BF022000904FF4E0600190CC
:103E50004FF0C04100980880E0490198088000BFF9
:103E60000320009041F2300001904FF0C0410098D3
:103E70000880DA490198088000BF042000900020E3
:103E800001904FF0C04100980880D4490198088003
:103E900000BF0820009040F2072001904FF0C04181
:103EA00000980880CD490198088000BF0920009043
:103EB000002001904FF0C04100980880C749019848
:103EC000088000BF0A200090002001904FF0C04100
:103ED00000980880C1490198088000BF0C2000901C
:103EE000012001904FF0C04100980880BB49019823
:103EF000088000E04EE200BF0D20009000200190FD
:103F00004FF0C04100980880B4490198088000BF74
:103F10000F200090002001904FF0C04100980880D1
:103F2000AE490198088000BF102000900020019049
:103F30004FF0C04100980880A8490198088000BF50
:103F400011200090072001904FF0C0410098088098
:103F5000A2490198088000BF122000900020019023
:103F60004FF0C041009808809C490198088000BF2C
:103F700013200090002001904FF0C041009808806D
:103F800096490198088000BF32200AF0DDFE10201B
:103F9000009041F2905001904FF0C041009808808D
:103FA0008E490198088000BF1120009040F2272020
:103FB00001904FF0C041009808808849019808801E
:103FC00000BF32200AF0C0FE122000909C20019019
:103FD0004FF0C0410098088080490198088000BFD8
:103FE00032200AF0B1FE132000904FF4C850019027
:103FF0004FF0C0410098088078490198088000BFC0
:1040000029200090232001904FF0C04100980880A3
:1040100072490198088000BF2B2000900E2001906B
:104020004FF0C041009808806C490198088000BF9B
:1040300032200AF089FE20200090002001904FF0ED
:10404000C0410098088065490198088000BF212080
:104050000090002001904FF0C041009808805F4917
:104060000198088000BF32200AF06EFE30200090D8
:10407000072001904FF0C0410098088057490198EF
:10408000088000BF3120009040F2077001904FF08F
:10409000C0410098088051490198088000BF322033
:1040A0000090062001904FF0C041009808804B49D5
:1040B0000198088000BF3520009040F20470019004
:1040C0004FF0C0410098088044490198088000BF23
:1040D0003620009041F6047001904FF0C0410098E6
:1040E00008803E490198088000BF372000900420D6
:1040F00001904FF0C041009808803849019808802D
:1041000000BF38200090002001904FF0C04100987F
:10411000088032490198088000BF3920009040F2A1
:10412000067001904FF0C041009808802B4901981B
:10413000088000BF3C20009040F2017001904FF0D9
:10414000C0410098088025490198088000BF3D20A3
:1041500000900F2001904FF0C041009808801F4947
:104160000198088000BF32200AF0EEFD5020009038
:10417000002001904FF0C041009808801749019835
:10418000088000BF51200090EF2001904FF0C04107
:104190000098088011490198088000BF52200090C3
:1041A000002001904FF0C041009808800B49019811
:1041B000088000BF5320009040F23F1001904FF064
:1041C000C0410098088005490198088000BF602020
:1041D00000904FF42740019004E0000000000260CE
:1041E000540000204FF0C04100980880FE4901981B
:1041F000088000BF61200090012001904FF0C04175
:1042000000980880F8490198088000BF6A20009053
:10421000002001904FF0C04100980880F2490198B9
:10422000088000BF80200090002001904FF0C04126
:1042300000980880EC490198088000BF8120009018
:10424000002001904FF0C04100980880E649019895
:10425000088000BF82200090002001904FF0C041F4
:1042600000980880E0490198088000BF83200090F2
:10427000002001904FF0C04100980880DA49019871
:10428000088000BF84200090002001904FF0C041C2
:1042900000980880D4490198088000BF85200090CC
:1042A000002001904FF0C04100980880CE4901984D
:1042B000088000BF90200090102001904FF0C04176
:1042C00000980880C8490198088000BF922000909B
:1042D000002001904FF0C04100980880C249019829
:1042E000088000BF93200090032001904FF0C04150
:1042F00000980880BC490198088000BF9520009074
:104300004FF4887001904FF0C04100980880B64982
:104310000198088000BF97200090002001904FF086
:10432000C04100980880B0490198088000BF9820DB
:104330000090002001904FF0C04100980880AA49E9
:104340000198088000BF0720009040F233100190D0
:104350004FF0C04100980880A3490198088000BF31
:1043600020200090002001904FF0C041009808806C
:104370009D490198088000BF2120009000200190F5
:104380004FF0C0410098088097490198088000BF0D
:1043900003F08EBD49F220310298884203D0029882
:1043A000B0F5134F7ED10020904908700090019025
:1043B0004FF0C041009808808B490198088000BFE9
:1043C00001200090000201904FF0C0410098088049
:1043D00085490198088000BF022000904FF4E060FA
:1043E00001904FF0C041009808807F4901980880F3
:1043F00000BF0320009041F2180001904FF0C0412F
:104400000098088078490198088000BF0420009037
:10441000002001904FF0C041009808807249019837
:10442000088000BF0820009040F2022001904FF069
:10443000C041009808806C490198088000BF09209D
:104440000090002001904FF0C0410098088066491C
:104450000198088000BF0A200090002001904FF0D2
:10446000C0410098088060490198088000BF0C2076
:104470000090012001904FF0C041009808805A49F7
:104480000198088000BF0D200090002001904FF09F
:10449000C0410098088054490198088000BF0F204F
:1044A000009000E063E1002001904FF0C0410098CF
:1044B00008804D490198088000BF64200AF044FC40
:1044C0000720009040F2011001904FF0C041009889
:1044D000088045490198088000BF64200AF034FC38
:1044E000102000904FF4865001904FF0C04100988A
:1044F00008803D490198088000BF112000900720E6
:1045000001904FF0C0410098088037490198088019
:1045100000BF122000904FF4887001904FF0C0410E
:104520000098088030490198088000BF132000904F
:104530004FF4306001904FF0C041009808802A4944
:104540000198088000BF29200090002001904FF0C2
:10455000C0410098088024490198088000BF2B20A2
:10456000009044F2100001904FF0C0410098088084
:104570001D490198088000BF502000900020019044
:104580004FF0C0410098088017490198088000BF8B
:1045900051200090EF2001904FF0C041009808801A
:1045A00011490198088000BF52200090002001901E
:1045B0004FF0C041009808800B490198088000BF67
:1045C0005320009040F23F1001904FF0C0410098FE
:1045D000088005490198088000BF602000904FF4D2
:1045E0001C50019004E00000000002605400002014
:1045F0004FF0C04100980880FE490198088000BF34
:1046000061200090012001904FF0C0410098088087
:10461000F8490198088000BF6A20009000200190AE
:104620004FF0C04100980880F2490198088000BF0F
:1046300080200090002001904FF0C0410098088039
:10464000EC490198088000BF812000900020019073
:104650004FF0C04100980880E6490198088000BFEB
:1046600082200090002001904FF0C0410098088007
:10467000E0490198088000BF83200090002001904D
:104680004FF0C04100980880DA490198088000BFC7
:1046900084200090002001904FF0C04100980880D5
:1046A000D4490198088000BF852000900020019027
:1046B0004FF0C04100980880CE490198088000BFA3
:1046C00090200090102001904FF0C0410098088089
:1046D000C8490198088000BF9220009000200190F6
:1046E0004FF0C04100980880C2490198088000BF7F
:1046F00093200090012001904FF0C0410098088065
:10470000BC490198088000BF952000904FF4887044
:1047100001904FF0C04100980880B6490198088088
:1047200000BF97200090002001904FF0C0410098FA
:104730000880B0490198088000BF982000900020B0
:1047400001904FF0C04100980880AA490198088064
:1047500000BF0720009040F2731001904FF0C0415D
:1047600000980880A3490198088000BF10E649F22C
:104770003131029888427DD103209F490870E7209B
:10478000009041F2140001904FF0C0410098088061
:1047900098490198088000BF012000900002019014
:1047A0004FF0C0410098088092490198088000BFEE
:1047B00002200090000201904FF0C0410098088054
:1047C0008C490198088000BF0320009041F230001E
:1047D00001904FF0C04100980880864901980880F8
:1047E00000BF0820009040F2022001904FF0C0412D
:1047F000009808807F490198088000BF0920009038
:10480000002001904FF0C04100980880794901983C
:10481000088000BF0A200090002001904FF0C041A6
:104820000098088073490198088000BF0C20009010
:10483000002001904FF0C041009808806D49019818
:10484000088000BF0D200090002001904FF0C04173
:104850000098088067490198088000BF0F200090E9
:10486000002001904FF0C0410098088061490198F4
:10487000088000E007E200BF1020009000200190B7
:104880004FF0C041009808805A490198088000BF45
:1048900011200090072001904FF0C041009808803F
:1048A00054490198088000BF122000900020019018
:1048B0004FF0C041009808804E490198088000BF21
:1048C00013200090002001904FF0C0410098088014
:1048D00048490198088000BFC8200AF035FA102026
:1048E000009041F2906001904FF0C0410098088024
:1048F00040490198088000BF1120009040F2272015
:1049000001904FF0C041009808803A490198088012
:1049100000BF32200AF018FA122000900C200190FB
:104920004FF0C0410098088032490198088000BFCC
:1049300032200AF009FA132000904FF40060019031
:104940004FF0C041009808802A490198088000BFB4
:1049500029200090112001904FF0C041009808805C
:1049600024490198088000BF2B2000900B20019063
:104970004FF0C041009808801E490198088000BF90
:1049800032200AF0E1F920200090002001904FF041
:10499000C0410098088017490198088000BF212075
:1049A0000090002001904FF0C0410098088011490C
:1049B0000198088000BF30200090002001904FF047
:1049C000C041009808800B490198088000BF312041
:1049D00000904FF4837001904FF0C0410098088020
:1049E00004490198088000BF322000900020019007
:1049F00004E0000000000260540000204FF0C041BD
:104A000000980880FE490198088000BF352000907A
:104A10004FF4017001904FF0C04100980880F849B0
:104A20000198088000BF3620009041F20A60019092
:104A30004FF0C04100980880F1490198088000BFFC
:104A40003720009040F2077001904FF0C04100986D
:104A50000880EB490198088000BF382000904FF48F
:104A6000837001904FF0C04100980880E44901989C
:104A7000088000BF3920009040F2077001904FF08D
:104A8000C04100980880DE490198088000BF3C20A2
:104A9000009040F2024001904FF0C0410098088021
:104AA000D7490198088000BF3D20009040F60F4094
:104AB00001904FF0C04100980880D14901980880CA
:104AC00000BF50200090002001904FF0C04100989E
:104AD0000880CB490198088000BF51200090EF204A
:104AE00001904FF0C04100980880C54901980880A6
:104AF00000BF52200090002001904FF0C04100986C
:104B00000880BF490198088000BF5320009040F200
:104B10003F1001904FF0C04100980880B8490198BB
:104B2000088000BF602000904FF41C5001904FF0AF
:104B3000C04100980880B2490198088000BF6120F8
:104B40000090012001904FF0C04100980880AC49CE
:104B50000198088000BF6A200090002001904FF06B
:104B6000C04100980880A6490198088000BF8020B5
:104B70000090002001904FF0C04100980880A049AB
:104B80000198088000BF81200090002001904FF024
:104B9000C041009808809A490198088000BF82208F
:104BA0000090002001904FF0C04100980880944987
:104BB0000198088000BF83200090002001904FF0F2
:104BC000C041009808808E490198088000BF842069
:104BD0000090002001904FF0C04100980880884963
:104BE0000198088000BF85200090002001904FF0C0
:104BF000C0410098088082490198088000BF902039
:104C00000090102001904FF0C041009808807C492E
:104C10000198088000BF92200090081501904FF085
:104C2000C0410098088076490198088000BF07209D
:104C30000090212001904FF0C041009808807049F9
:104C40000198088000BF32200AF07EF8072000900B
:104C5000612001904FF0C041009808806849019898
:104C6000088000BF32200AF06FF80720009040F261
:104C7000331001904FF0C0410098088060490198BE
:104C8000088000BF72E549F61911029888427DD16B
:104C90000E205C49087028200090062001904FF0FB
:104CA000C0410098088056490198088000BF002044
:104CB0000090012001904FF0C041009808805049B9
:104CC0000198088000BF10200090002001904FF054
:104CD000C041009808804A490198088000BF01201F
:104CE000009047F2EF2001904FF0C04100980880FB
:104CF00043490198088000BF0220009008150190E8
:104D00004FF0C041009808803D490198088000BFDD
:104D10000320009046F6382001904FF0C0410098E3
:104D2000088037490198088000BF1120009046F69E
:104D3000740001904FF0C0410098088030490198FC
:104D4000088000BF0F200090002001904FF0C0416C
:104D5000009808802A490198088000BF0B20009025
:104D600045F2083001904FF0C04100980880244976
:104D70000198088000BF0C200090032001904FF0A4
:104D8000C041009808801E49019800E003E10880B6
:104D900000BF0D2000900A2001904FF0C041009804
:104DA000088017490198088000BF0E2000904FF43A
:104DB000385001904FF0C041009808801049019888
:104DC000088000BF1E200090BE2001904FF0C0411F
:104DD000009808800A490198088000BF25200090AB
:104DE0004FF4004001904FF0C04100980880044902
:104DF0000198088000BF262000904FF4F04003E0A7
:104E0000000002605400002001904FF0C041009863
:104E10000880FE490198088000BF27200090782074
:104E200001904FF0C04100980880F849019808802F
:104E300000BF4E200090002001904FF0C04100982C
:104E40000880F2490198088000BF4F2000900020A0
:104E500001904FF0C04100980880EC49019808800B
:104E600000BF1220009040F6D90001904FF0C041E1
:104E700000980880E5490198088000BF3020009024
:104E8000002001904FF0C04100980880DF49019850
:104E9000088000BF312000904FF4827001904FF0E5
:104EA000C04100980880D9490198088000BF32208D
:104EB00000904FF4807001904FF0C041009808803E
:104EC000D2490198088000BF3320009040F205309D
:104ED00001904FF0C04100980880CC4901980880AB
:104EE00000BF3420009040F2055001904FF0C041C7
:104EF00000980880C5490198088000BF35200090BF
:104F000040F2053001904FF0C04100980880BF4941
:104F10000198088000BF3620009040F20770019091
:104F20004FF0C04100980880B8490198088000BF40
:104F300037200090481501904FF0C041009808803C
:104F4000B2490198088000BF3A2000904FF4905079
:104F500001904FF0C04100980880AC49019808804A
:104F600000BF3B2000904FF4006001904FF0C04123
:104F700000980880A5490198088000BF072000908C
:104F8000332001904FF0C041009808809F4901985C
:104F9000088000BF76E641F205510298884204D0AD
:104FA00040F20551029888427ED109209849087044
:104FB000E52000904FF4004001904FF0C041009870
:104FC000088092490198088000BF002000900120CD
:104FD00001904FF0C041009808808C4901980880EA
:104FE00000BF2B200090102001904FF0C04100988E
:104FF000088086490198088000BF012000900002C7
:1050000001904FF0C04100980880804901980880C5
:1050100000BF022000904FF4E06001904FF0C041CB
:105020000098088079490198088000BF032000900B
:1050300041F2180001904FF0C04100980880734978
:105040000198088000BF04200090002001904FF0DC
:10505000C041009808806D490198088000BF082071
:10506000009040F2022001904FF0C041009808806B
:1050700066490198088000BF092000900020019037
:105080004FF0C0410098088060490198088000BF37
:105090000A200090002001904FF0C0410098088045
:1050A0005A490198088000E031E200BF0C200090CE
:1050B000002001904FF0C0410098088053490198AA
:1050C000088000BF0D200090002001904FF0C041EB
:1050D000009808804D490198088000BF0F2000907B
:1050E000002001904FF0C041009808804749019886
:1050F000088000BF50200090002001904FF0C04178
:105100000098088041490198088000BF5120009014
:10511000EF2001904FF0C041009808803B49019872
:10512000088000BF52200090002001904FF0C04145
:105130000098088035490198088000BF53200090EE
:1051400040F23F1001904FF0C041009808802F4975
:105150000198088000BF602000904FF41C5001901F
:105160004FF0C0410098088028490198088000BF8E
:1051700061200090012001904FF0C041009808800C
:1051800022490198088000BF6A2000900020019009
:105190004FF0C041009808801C490198088000BF6A
:1051A00080200090002001904FF0C04100980880BE
:1051B00016490198088000BF8120009000200190CE
:1051C0004FF0C0410098088010490198088000BF46
:1051D00082200090002001904FF0C041009808808C
:1051E0000A490198088000BF8320009000200190A8
:1051F0004FF0C0410098088004490198088000BF22
:10520000842000900020019004E000000000026073
:10521000540000204FF0C04100980880FE490198DA
:10522000088000BF85200090002001904FF0C04111
:1052300000980880F8490198088000BF90200090ED
:10524000102001904FF0C04100980880F249019869
:10525000088000BF92200090002001904FF0C041D4
:1052600000980880EC490198088000BF93200090C6
:10527000032001904FF0C04100980880E649019852
:10528000088000BF952000904FF4887001904FF087
:10529000C04100980880E0490198088000BF97202D
:1052A0000090002001904FF0C04100980880DA493A
:1052B0000198088000BF98200090002001904FF0D6
:1052C000C04100980880D4490198088000BF102090
:1052D0000090002001904FF0C04100980880CE4916
:1052E0000198088000BF11200090002001904FF02D
:1052F000C04100980880C8490198088000BF12206A
:105300000090002001904FF0C04100980880C249F1
:105310000198088000BF13200090002001904FF0FA
:10532000C04100980880BC490198088000BF6420F3
:1053300009F00AFD1020009041F2B07001904FF08A
:10534000C04100980880B4490198088000BF11202E
:105350000090042001904FF0C04100980880AE49B1
:105360000198088000BF322009F0EEFC1220009066
:105370004FF49F7001904FF0C04100980880A649FB
:105380000198088000BF322009F0DEFC1320009055
:105390004FF4F85001904FF0C041009808809E49AA
:1053A0000198088000BF292000900F2001904FF045
:1053B000C0410098088098490198088000BF3220B9
:1053C00009F0C2FC20200090002001904FF0C04165
:1053D0000098088090490198088000BF2120009023
:1053E000002001904FF0C041009808808A49019840
:1053F000088000BF302000904FF4017001904FF002
:10540000C0410098088084490198088000BF31207D
:105410000090012001904FF0C041009808807E4923
:105420000198088000BF32200090002001904FF0CA
:10543000C0410098088078490198088000BF352055
:10544000009040F2062001904FF0C0410098088083
:1054500071490198088000BF36200090081501901E
:105460004FF0C041009808806B490198088000BF48
:10547000372000904FF4A06001904FF0C041009899
:10548000088065490198088000BF3820009040F2EC
:10549000055001904FF0C041009808805E49019886
:1054A000088000BF3920009040F2074001904FF083
:1054B000C0410098088058490198088000BF3C20EE
:1054C00000904FF4A06001904FF0C0410098088018
:1054D00051490198088000BF3D20009040F20350E0
:1054E00001904FF0C041009808804B490198088016
:1054F00000BF0720009040F2731001904FF0C041B0
:105500000098088044490198088000BF42E548F6A9
:105510008911029888427DD10520404908700020F9
:105520000090012001904FF0C041009808803A4956
:105530000198088000BF322009F006FC032000908B
:105540004AF6A40001904FF0C0410098088032490B
:105550000198088000BF322009F0F6FB0C20009073
:10556000002001904FF0C041009808802A4901981E
:10557000088000BF322009F0E7FB0D20009040F6C4
:105580000C0001904FF0C04100980880224901981A
:10559000088000BF322009F0D7FB0E2000904FF4A6
:1055A0002C5001904FF0C041009808801A49019892
:1055B000088000BF322009F0C7FB1E200090B020F9
:1055C00001904FF0C041009808801349019808806D
:1055D00000BF322009F0B8FB0120009042F63F30B6
:1055E00001904FF0C041009808800B490198088055
:1055F00000BF322009F0A8FB022000904FF4C060E9
:1056000001904FF0C041009808800349019808803C
:1056100000BF05E004E2000000000260540000202A
:10562000322009F091FB10200090002001904FF0F3
:10563000C04100980880F9490198088000BF3220D5
:1056400009F082FB1120009046F2700001904FF0AB
:10565000C04100980880F1490198088000BF3220BD
:1056600009F072FB05200090002001904FF0C0412E
:1056700000980880E9490198088000BF322009F0AD
:1056800063FB06200090002001904FF0C04100987D
:105690000880E2490198088000BF322009F054FBDD
:1056A000162000904EF61C7001904FF0C0410098FB
:1056B0000880DA490198088000BF322009F044FBD5
:1056C00017200090032001904FF0C04100980880FF
:1056D000D2490198088000BF322009F035FB07202D
:1056E000009040F2331001904FF0C04100980880C4
:1056F000CA490198088000BF322009F025FB0B2021
:105700000090002001904FF0C04100980880C349EC
:105710000198088000BF322009F016FB0F2000908E
:10572000002001904FF0C04100980880BB490198CB
:10573000088000BF322009F007FB412000900020C4
:1057400001904FF0C04100980880B449019808804A
:1057500000BF322009F0F8FA4220009000200190AA
:105760004FF0C04100980880AC490198088000BF04
:10577000322009F0E9FA48200090002001904FF013
:10578000C04100980880A5490198088000BF3220D8
:1057900009F0DAFA4920009040F23F1001904FF0F2
:1057A000C041009808809D490198088000BF3220C0
:1057B00009F0CAFA4A200090002001904FF0C04141
:1057C0000098088095490198088000BF322009F0B0
:1057D000BBFA4B200090002001904FF0C041009890
:1057E00008808E490198088000BF322009F0ACFA89
:1057F000442000904FF46F4001904FF0C04100985A
:10580000088086490198088000BF322009F09CFA80
:1058100045200090002001904FF0C0410098088082
:105820007E490198088000BF322009F08DFA462099
:10583000009040F23F1001904FF0C0410098088066
:1058400076490198088000BF322009F07DFA3020A7
:10585000009040F2077001904FF0C041009808801E
:105860006E490198088000BF322009F06DFA31209E
:1058700000904FF4017001904FF0C04100980880F3
:1058800066490198088000BF322009F05DFA322095
:1058900000904FF4017001904FF0C04100980880D3
:1058A0005E490198088000BF322009F04DFA33208C
:1058B000009040F2025001904FF0C04100980880E3
:1058C00056490198088000BF322009F03DFA342083
:1058D000009040F2075001904FF0C04100980880BE
:1058E0004E490198088000BF322009F02DFA35207A
:1058F00000904FF4017001904FF0C0410098088073
:1059000046490198088000BF322009F01DFA362070
:1059100000904FF4017001904FF0C0410098088052
:105920003E490198088000BF322009F00DFA372067
:10593000009040F2025001904FF0C0410098088062
:1059400036490198088000BF322009F0FDF93A205D
:10595000009040F2023001904FF0C0410098088062
:105960002E490198088000BF322009F0EDF93B2054
:10597000009040F2023001904FF0C0410098088042
:1059800026490198088000BF322009F0DDF9232064
:105990000090002001904FF0C041009808801F49FE
:1059A0000198088000BF322009F0CEF92420009031
:1059B000002001904FF0C0410098088017490198DD
:1059C000088000BF322009F0BFF9252000904FF475
:1059D000004001904FF0C041009808800F490198A5
:1059E000088000BF322009F0AFF94F20009000205E
:1059F00001904FF0C0410098088008490198088044
:105A000000BF4E200090002001904FF0C041009850
:105A1000088002490198088000BF77E50000026015
:105A200048F69911029888427ED10420FE490870F8
:105A300028200090062001904FF0C0410098088077
:105A4000FA490198088000BF0020009001200190D1
:105A50004FF0C04100980880F4490198088000BFC9
:105A6000032000904AF6A46001904FF0C0410098D6
:105A70000880EE490198088000BF0C2000900420A7
:105A800001904FF0C04100980880E84901980880D3
:105A900000BF0D2000900C2001904FF0C0410098F5
:105AA0000880E2490198088000BF0E2000904FF462
:105AB000205001904FF0C04100980880DB490198C8
:105AC000088000BF1E200090B52001904FF0C0411B
:105AD00000980880D5490198088000BF01200090F7
