:020000040800F2
:100000000004002001010008FF010008FB010008B6
:10001000FD01000849010008050300080000000078
:100020000000000000000000000000001D020008A9
:100030004B0100080000000001020008B1020008A6
:100040001B0100081B0100081B0100081B01000820
:100050001B0100081B0100081B0100081B01000810
:100060001B0100081B0100081B0100081B01000800
:100070001B0100081B0100081B0100081B010008F0
:100080001B0100081B0100081B0100081B010008E0
:100090001B0100081B0100081B0100081B010008D0
:1000A0001B0100081B0100081B0100081B010008C0
:1000B0001B0100081B0100081B0100081B010008B0
:1000C0001B0100081B0100081B0100081B010008A0
:1000D0001B0100081B0100081B0100081B01000890
:1000E0001B0100081B0100081B010008DFF80CD0F1
:1000F00000F018F80048004725030008000400201D
:100100000648804706480047FEE7FEE7FEE7FEE7B1
:10011000FEE7FEE7FEE7FEE7FEE7FEE7B5020008C2
:10012000ED000008064C074D06E0E06840F00103D2
:1001300094E8070098471034AC42F6D3FFF7DAFF93
:100140005C0300086C030008FEE770472DE9F041EE
:10015000CA780025D30602F00F0201D58B781A4326
:100160000B884FF00F084FF0010C13F0FF0F1CD05D
:10017000D0F800400E880CFA05F31E409E4210D1C4
:10018000AF0008FA07F624EA060602FA07F4344339
:10019000CE78282E02D0482E02D002E0436100E043
:1001A00003616D1C082DE5D304600B88FF2B1DD95E
:1001B0004468002505F108060CFA06F30E881E4077
:1001C0009E420FD1AF0008FA07F624EA060602FAAB
:1001D00007F43443CE78282E00D14361CE78482EE0
:1001E00000D103616D1C082DE4D34460BDE8F081AB
:1001F0000AB10161704741617047FEE7FEE7704751
:1002000070470000044A0029916901D0014300E0D1
:100210008143916170470000001002407047000068
:1002200021480021026842F4803202604FF4A0634A
:100230000268491C12F4003F01D19942F8D10168CB
:10024000890330D519490A6842F010020A600A6829
:1002500022F003020A600A6842F002020A60416862
:10026000416041684160416841F48061416041689A
:1002700021F47C114160416841F4E811416001685A
:1002800041F08071016001688901FCD5416821F06D
:1002900003014160416841F0020141604168C1F3DE
:1002A00081010229FAD1704700100240002002406B
:1002B000704700000F4810B5016841F0010101606E
:1002C00041680D4A1140416001680C4A11400160CB
:1002D000016821F480210160416821F4FE01416040
:1002E0004FF41F018160FFF79BFF05494FF000604D
:1002F000086010BD001002400000FFF8FFFFF6FE8E
:1003000008ED00E0FEE702E008C8121F08C1002A5D
:10031000FAD170477047002001E001C1121F002A86
:10032000FBD1704708B501210820FFF76BFF1020B3
:100330008DF803000120ADF800000320064C8DF875
:10034000020069462046FFF701FF012211462046C0
:10035000FFF74EFFFEE70000000C01406C030008B1
:0C0360000000002000040000160300084C
:04000005080000ED02
:00000001FF
